{
  "contractName": "Sample",
  "abi": [
    {
      "anonymous": false,
      "inputs": [
        {
          "indexed": true,
          "internalType": "address",
          "name": "gateway",
          "type": "address"
        },
        {
          "indexed": false,
          "internalType": "string",
          "name": "devId",
          "type": "string"
        }
      ],
      "name": "receive_message",
      "type": "event"
    },
    {
      "anonymous": false,
      "inputs": [
        {
          "indexed": false,
          "internalType": "string",
          "name": "_str",
          "type": "string"
        }
      ],
      "name": "test",
      "type": "event"
    },
    {
      "inputs": [
        {
          "internalType": "uint256",
          "name": "",
          "type": "uint256"
        }
      ],
      "name": "lbrids",
      "outputs": [
        {
          "internalType": "address",
          "name": "",
          "type": "address"
        }
      ],
      "stateMutability": "view",
      "type": "function"
    },
    {
      "inputs": [],
      "name": "number",
      "outputs": [
        {
          "internalType": "uint256",
          "name": "",
          "type": "uint256"
        }
      ],
      "stateMutability": "view",
      "type": "function"
    },
    {
      "inputs": [],
      "name": "str",
      "outputs": [
        {
          "internalType": "string",
          "name": "",
          "type": "string"
        }
      ],
      "stateMutability": "view",
      "type": "function"
    },
    {
      "inputs": [],
      "name": "t",
      "outputs": [
        {
          "internalType": "uint256",
          "name": "",
          "type": "uint256"
        }
      ],
      "stateMutability": "view",
      "type": "function"
    },
    {
      "inputs": [],
      "name": "without_parameters",
      "outputs": [
        {
          "internalType": "string",
          "name": "str1",
          "type": "string"
        },
        {
          "internalType": "uint256",
          "name": "num1",
          "type": "uint256"
        }
      ],
      "stateMutability": "view",
      "type": "function"
    },
    {
      "inputs": [
        {
          "internalType": "uint256",
          "name": "_n",
          "type": "uint256"
        }
      ],
      "name": "update",
      "outputs": [],
      "stateMutability": "nonpayable",
      "type": "function"
    },
    {
      "inputs": [
        {
          "internalType": "string",
          "name": "_str",
          "type": "string"
        },
        {
          "internalType": "bytes",
          "name": "signature",
          "type": "bytes"
        }
      ],
      "name": "update_string",
      "outputs": [],
      "stateMutability": "nonpayable",
      "type": "function"
    },
    {
      "inputs": [],
      "name": "getNonce",
      "outputs": [
        {
          "internalType": "uint256",
          "name": "nonce",
          "type": "uint256"
        }
      ],
      "stateMutability": "view",
      "type": "function"
    },
    {
      "inputs": [
        {
          "internalType": "bytes",
          "name": "signature",
          "type": "bytes"
        }
      ],
      "name": "register_gateway",
      "outputs": [],
      "stateMutability": "nonpayable",
      "type": "function"
    },
    {
      "inputs": [
        {
          "internalType": "string",
          "name": "_devId",
          "type": "string"
        },
        {
          "internalType": "string",
          "name": "_pub",
          "type": "string"
        },
        {
          "internalType": "string",
          "name": "_TS",
          "type": "string"
        }
      ],
      "name": "register_device",
      "outputs": [],
      "stateMutability": "nonpayable",
      "type": "function"
    },
    {
      "inputs": [
        {
          "internalType": "string",
          "name": "_devId",
          "type": "string"
        }
      ],
      "name": "check_device",
      "outputs": [
        {
          "internalType": "string",
          "name": "",
          "type": "string"
        }
      ],
      "stateMutability": "view",
      "type": "function"
    },
    {
      "inputs": [
        {
          "internalType": "string",
          "name": "_devId",
          "type": "string"
        },
        {
          "internalType": "string",
          "name": "_TS",
          "type": "string"
        }
      ],
      "name": "update_timestamp",
      "outputs": [],
      "stateMutability": "nonpayable",
      "type": "function"
    },
    {
      "inputs": [
        {
          "internalType": "string",
          "name": "_devId",
          "type": "string"
        }
      ],
      "name": "get_device_key",
      "outputs": [
        {
          "internalType": "string",
          "name": "",
          "type": "string"
        }
      ],
      "stateMutability": "view",
      "type": "function"
    },
    {
      "inputs": [
        {
          "internalType": "string",
          "name": "_devId",
          "type": "string"
        }
      ],
      "name": "get_device_gateway",
      "outputs": [
        {
          "internalType": "uint256",
          "name": "",
          "type": "uint256"
        }
      ],
      "stateMutability": "view",
      "type": "function"
    },
    {
      "inputs": [
        {
          "internalType": "string",
          "name": "_devId",
          "type": "string"
        },
        {
          "internalType": "string",
          "name": "_recvId",
          "type": "string"
        }
      ],
      "name": "update_recipient",
      "outputs": [],
      "stateMutability": "nonpayable",
      "type": "function"
    },
    {
      "inputs": [
        {
          "internalType": "string",
          "name": "_devId",
          "type": "string"
        },
        {
          "internalType": "string",
          "name": "_msg",
          "type": "string"
        }
      ],
      "name": "communicate",
      "outputs": [],
      "stateMutability": "nonpayable",
      "type": "function"
    },
    {
      "inputs": [],
      "name": "getMessage",
      "outputs": [
        {
          "internalType": "string",
          "name": "from",
          "type": "string"
        },
        {
          "internalType": "string",
          "name": "_str",
          "type": "string"
        }
      ],
      "stateMutability": "view",
      "type": "function"
    },
    {
      "inputs": [
        {
          "internalType": "string",
          "name": "_devId",
          "type": "string"
        }
      ],
      "name": "update_device_nonce",
      "outputs": [],
      "stateMutability": "nonpayable",
      "type": "function"
    },
    {
      "inputs": [
        {
          "internalType": "string",
          "name": "_devId",
          "type": "string"
        }
      ],
      "name": "get_device_nonce",
      "outputs": [
        {
          "internalType": "uint256",
          "name": "nonce",
          "type": "uint256"
        }
      ],
      "stateMutability": "view",
      "type": "function"
    },
    {
      "inputs": [
        {
          "internalType": "bytes",
          "name": "signature",
          "type": "bytes"
        },
        {
          "internalType": "bytes32",
          "name": "messageHash",
          "type": "bytes32"
        }
      ],
      "name": "verify",
      "outputs": [
        {
          "internalType": "bool",
          "name": "",
          "type": "bool"
        }
      ],
      "stateMutability": "view",
      "type": "function"
    },
    {
      "inputs": [
        {
          "internalType": "string",
          "name": "_message",
          "type": "string"
        },
        {
          "internalType": "uint256",
          "name": "_nonce",
          "type": "uint256"
        }
      ],
      "name": "getMessageHash",
      "outputs": [
        {
          "internalType": "bytes32",
          "name": "",
          "type": "bytes32"
        }
      ],
      "stateMutability": "pure",
      "type": "function"
    },
    {
      "inputs": [
        {
          "internalType": "bytes32",
          "name": "_messageHash",
          "type": "bytes32"
        }
      ],
      "name": "getEthSignedMessageHash",
      "outputs": [
        {
          "internalType": "bytes32",
          "name": "",
          "type": "bytes32"
        }
      ],
      "stateMutability": "pure",
      "type": "function"
    },
    {
      "inputs": [
        {
          "internalType": "bytes32",
          "name": "_ethSignedMessageHash",
          "type": "bytes32"
        },
        {
          "internalType": "bytes",
          "name": "_signature",
          "type": "bytes"
        }
      ],
      "name": "recoverSigner",
      "outputs": [
        {
          "internalType": "address",
          "name": "",
          "type": "address"
        }
      ],
      "stateMutability": "pure",
      "type": "function"
    },
    {
      "inputs": [
        {
          "internalType": "bytes",
          "name": "sig",
          "type": "bytes"
        }
      ],
      "name": "splitSignature",
      "outputs": [
        {
          "internalType": "bytes32",
          "name": "r",
          "type": "bytes32"
        },
        {
          "internalType": "bytes32",
          "name": "s",
          "type": "bytes32"
        },
        {
          "internalType": "uint8",
          "name": "v",
          "type": "uint8"
        }
      ],
      "stateMutability": "pure",
      "type": "function"
    }
  ],
  "bytecode": "0x6080604052600a6000556040518060400160405280600581526020017f48656c6c6f000000000000000000000000000000000000000000000000000000815250600190805190602001906200005692919062000070565b5060006002553480156200006957600080fd5b5062000185565b8280546200007e906200014f565b90600052602060002090601f016020900481019282620000a25760008555620000ee565b82601f10620000bd57805160ff1916838001178555620000ee565b82800160010185558215620000ee579182015b82811115620000ed578251825591602001919060010190620000d0565b5b509050620000fd919062000101565b5090565b5b808211156200011c57600081600090555060010162000102565b5090565b7f4e487b7100000000000000000000000000000000000000000000000000000000600052602260045260246000fd5b600060028204905060018216806200016857607f821691505b602082108114156200017f576200017e62000120565b5b50919050565b61368580620001956000396000f3fe608060405234801561001057600080fd5b50600436106101585760003560e01c8063a6bf9028116100c3578063d087d2881161007c578063d087d288146103db578063d38fe636146103f9578063d4aa691614610415578063e4a6d91414610445578063e594d0f114610475578063fa540801146104a557610158565b8063a6bf902814610318578063a7bb580314610334578063a9eb410114610366578063c15bae8414610382578063ce6d41de146103a0578063d075b7bf146103bf57610158565b806382ab890a1161011557806382ab890a146102445780638381f58a1461026057806392d0d1531461027e57806393c7a68b1461029c57806397aba7f9146102cc578063a0c265f8146102fc57610158565b8063119559dc1461015d57806338ead8e8146101795780634ea36e32146101a95780635b72ae05146101c85780636b406341146101f85780637737879f14610228575b600080fd5b61017760048036038101906101729190612385565b6104d5565b005b610193600480360381019061018e9190612385565b610807565b6040516101a091906123e7565b60405180910390f35b6101b16108e8565b6040516101bf92919061248a565b60405180910390f35b6101e260048036038101906101dd9190612385565b610985565b6040516101ef91906123e7565b60405180910390f35b610212600480360381019061020d9190612591565b610b7e565b60405161021f9190612608565b60405180910390f35b610242600480360381019061023d9190612623565b610bcd565b005b61025e600480360381019061025991906126c7565b610e25565b005b610268610e2f565b60405161027591906123e7565b60405180910390f35b610286610e35565b60405161029391906123e7565b60405180910390f35b6102b660048036038101906102b19190612385565b610e3b565b6040516102c391906126f4565b60405180910390f35b6102e660048036038101906102e19190612716565b610f37565b6040516102f391906127b3565b60405180910390f35b610316600480360381019061031191906127ce565b610fa6565b005b610332600480360381019061032d9190612817565b611207565b005b61034e600480360381019061034991906127ce565b611276565b60405161035d939291906128ba565b60405180910390f35b610380600480360381019061037b9190612817565b6112de565b005b61038a61134d565b60405161039791906126f4565b60405180910390f35b6103a86113db565b6040516103b69291906128f1565b60405180910390f35b6103d960048036038101906103d49190612817565b611622565b005b6103e3611b6a565b6040516103f091906123e7565b60405180910390f35b610413600480360381019061040e9190612928565b611c14565b005b61042f600480360381019061042a91906129cf565b611f7d565b60405161043c9190612a2b565b60405180910390f35b61045f600480360381019061045a91906126c7565b611fb0565b60405161046c91906127b3565b60405180910390f35b61048f600480360381019061048a9190612385565b611fe6565b60405161049c91906126f4565b60405180910390f35b6104bf60048036038101906104ba9190612a46565b612099565b6040516104cc9190612a2b565b60405180910390f35b60011515600360003373ffffffffffffffffffffffffffffffffffffffff1673ffffffffffffffffffffffffffffffffffffffff16815260200190815260200160002060009054906101000a900460ff1615151461059d577ff9fbd55454309325ccadd998a641a1dfe7cd888eea26c0ae93b95992a13ac14460405161055a90612abf565b60405180910390a16040517f08c379a000000000000000000000000000000000000000000000000000000000815260040161059490612abf565b60405180910390fd5b6000805b600c60003373ffffffffffffffffffffffffffffffffffffffff1673ffffffffffffffffffffffffffffffffffffffff168152602001908152602001600020805490508110156106f8576106d883600c60003373ffffffffffffffffffffffffffffffffffffffff1673ffffffffffffffffffffffffffffffffffffffff16815260200190815260200160002083815481106106405761063f612adf565b5b90600052602060002001805461065590612b3d565b80601f016020809104026020016040519081016040528092919081815260200182805461068190612b3d565b80156106ce5780601f106106a3576101008083540402835291602001916106ce565b820191906000526020600020905b8154815290600101906020018083116106b157829003601f168201915b50505050506120c9565b915081156106e5576106f8565b80806106f090612b9e565b9150506105a1565b508061076e577ff9fbd55454309325ccadd998a641a1dfe7cd888eea26c0ae93b95992a13ac14460405161072b90612c59565b60405180910390a16040517f08c379a000000000000000000000000000000000000000000000000000000000815260040161076590612ceb565b60405180910390fd5b61271044424360405160200161078693929190612d2c565b6040516020818303038152906040528051906020012060001c6107a99190612d98565b600b836040516107b99190612e05565b9081526020016040518091039020600201819055507ff9fbd55454309325ccadd998a641a1dfe7cd888eea26c0ae93b95992a13ac1446040516107fb90612e68565b60405180910390a15050565b600080600b8360405161081a9190612e05565b908152602001604051809103902060010160009054906101000a900473ffffffffffffffffffffffffffffffffffffffff16905060005b60058110156108e0578173ffffffffffffffffffffffffffffffffffffffff166006826005811061088557610884612adf565b5b0160009054906101000a900473ffffffffffffffffffffffffffffffffffffffff1673ffffffffffffffffffffffffffffffffffffffff1614156108cd5780925050506108e3565b80806108d890612b9e565b915050610851565b50505b919050565b6060600060016000548180546108fd90612b3d565b80601f016020809104026020016040519081016040528092919081815260200182805461092990612b3d565b80156109765780601f1061094b57610100808354040283529160200191610976565b820191906000526020600020905b81548152906001019060200180831161095957829003601f168201915b50505050509150915091509091565b600060011515600360003373ffffffffffffffffffffffffffffffffffffffff1673ffffffffffffffffffffffffffffffffffffffff16815260200190815260200160002060009054906101000a900460ff161515146109e85760009050610b79565b6000805b600c60003373ffffffffffffffffffffffffffffffffffffffff1673ffffffffffffffffffffffffffffffffffffffff16815260200190815260200160002080549050811015610b4357610b2384600c60003373ffffffffffffffffffffffffffffffffffffffff1673ffffffffffffffffffffffffffffffffffffffff1681526020019081526020016000208381548110610a8b57610a8a612adf565b5b906000526020600020018054610aa090612b3d565b80601f0160208091040260200160405190810160405280929190818152602001828054610acc90612b3d565b8015610b195780601f10610aee57610100808354040283529160200191610b19565b820191906000526020600020905b815481529060010190602001808311610afc57829003601f168201915b50505050506120c9565b91508115610b3057610b43565b8080610b3b90612b9e565b9150506109ec565b5080610b53576000915050610b79565b600b83604051610b639190612e05565b9081526020016040518091039020600201549150505b919050565b600080610b8a83612099565b90503373ffffffffffffffffffffffffffffffffffffffff16610bad8286610f37565b73ffffffffffffffffffffffffffffffffffffffff161491505092915050565b600082600460003373ffffffffffffffffffffffffffffffffffffffff1673ffffffffffffffffffffffffffffffffffffffff16815260200190815260200160002054604051602001610c21929190612e88565b6040516020818303038152906040528051906020012090506000610c458383610b7e565b9050600115158115151415610db157604051602001610c6390612efc565b604051602081830303815290604052805190602001206001604051602001610c8b9190612fa5565b604051602081830303815290604052805190602001201415610ce2576040517f08c379a0000000000000000000000000000000000000000000000000000000008152600401610cd990613008565b60405180910390fd5b8360019080519060200190610cf8929190612122565b50612710444243604051602001610d1193929190612d2c565b6040516020818303038152906040528051906020012060001c610d349190612d98565b600460003373ffffffffffffffffffffffffffffffffffffffff1673ffffffffffffffffffffffffffffffffffffffff168152602001908152602001600020819055507ff9fbd55454309325ccadd998a641a1dfe7cd888eea26c0ae93b95992a13ac144604051610da49061309a565b60405180910390a1610de7565b7ff9fbd55454309325ccadd998a641a1dfe7cd888eea26c0ae93b95992a13ac144604051610dde9061312c565b60405180910390a15b7ff9fbd55454309325ccadd998a641a1dfe7cd888eea26c0ae93b95992a13ac1446001604051610e1791906131cc565b60405180910390a150505050565b8060008190555050565b60005481565b60025481565b6060600582604051610e4d9190612e05565b908152602001604051809103902060009054906101000a900460ff1615610f1f57600b82604051610e7e9190612e05565b90815260200160405180910390206003018054610e9a90612b3d565b80601f0160208091040260200160405190810160405280929190818152602001828054610ec690612b3d565b8015610f135780601f10610ee857610100808354040283529160200191610f13565b820191906000526020600020905b815481529060010190602001808311610ef657829003601f168201915b50505050509050610f32565b6040518060200160405280600081525090505b919050565b600080600080610f4685611276565b92509250925060018682858560405160008152602001604052604051610f6f94939291906131ee565b6020604051602081039080840390855afa158015610f91573d6000803e3d6000fd5b50505060206040510351935050505092915050565b60011515600360003373ffffffffffffffffffffffffffffffffffffffff1673ffffffffffffffffffffffffffffffffffffffff16815260200190815260200160002060009054906101000a900460ff1615151415611039577ff9fbd55454309325ccadd998a641a1dfe7cd888eea26c0ae93b95992a13ac14460405161102c9061327f565b60405180910390a1611204565b600060405160200161104a906132eb565b604051602081830303815290604052805190602001209050600061106e8383610b7e565b90506001151581151514156111c6576001600360003373ffffffffffffffffffffffffffffffffffffffff1673ffffffffffffffffffffffffffffffffffffffff16815260200190815260200160002060006101000a81548160ff021916908315150217905550336006600254600581106110ec576110eb612adf565b5b0160006101000a81548173ffffffffffffffffffffffffffffffffffffffff021916908373ffffffffffffffffffffffffffffffffffffffff1602179055506002600081548092919061113e90612b9e565b919050555061271044424360405160200161115b93929190612d2c565b6040516020818303038152906040528051906020012060001c61117e9190612d98565b600460003373ffffffffffffffffffffffffffffffffffffffff1673ffffffffffffffffffffffffffffffffffffffff16815260200190815260200160002081905550611201565b6040517f08c379a00000000000000000000000000000000000000000000000000000000081526004016111f89061334c565b60405180910390fd5b50505b50565b80600b836040516112189190612e05565b9081526020016040518091039020600301908051906020019061123c929190612122565b507ff9fbd55454309325ccadd998a641a1dfe7cd888eea26c0ae93b95992a13ac14460405161126a906133b8565b60405180910390a15050565b600080600060418451146112bf576040517f08c379a00000000000000000000000000000000000000000000000000000000081526004016112b690613424565b60405180910390fd5b6020840151925060408401519150606084015160001a90509193909250565b80600b836040516112ef9190612e05565b90815260200160405180910390206004019080519060200190611313929190612122565b507ff9fbd55454309325ccadd998a641a1dfe7cd888eea26c0ae93b95992a13ac14460405161134190613490565b60405180910390a15050565b6001805461135a90612b3d565b80601f016020809104026020016040519081016040528092919081815260200182805461138690612b3d565b80156113d35780601f106113a8576101008083540402835291602001916113d3565b820191906000526020600020905b8154815290600101906020018083116113b657829003601f168201915b505050505081565b6060806000600e60003373ffffffffffffffffffffffffffffffffffffffff1673ffffffffffffffffffffffffffffffffffffffff168152602001908152602001600020805490509050600e60003373ffffffffffffffffffffffffffffffffffffffff1673ffffffffffffffffffffffffffffffffffffffff16815260200190815260200160002060018261147191906134b0565b8154811061148257611481612adf565b5b9060005260206000209060030201600001600e60003373ffffffffffffffffffffffffffffffffffffffff1673ffffffffffffffffffffffffffffffffffffffff1681526020019081526020016000206001836114df91906134b0565b815481106114f0576114ef612adf565b5b906000526020600020906003020160020181805461150d90612b3d565b80601f016020809104026020016040519081016040528092919081815260200182805461153990612b3d565b80156115865780601f1061155b57610100808354040283529160200191611586565b820191906000526020600020905b81548152906001019060200180831161156957829003601f168201915b5050505050915080805461159990612b3d565b80601f01602080910402602001604051908101604052809291908181526020018280546115c590612b3d565b80156116125780601f106115e757610100808354040283529160200191611612565b820191906000526020600020905b8154815290600101906020018083116115f557829003601f168201915b5050505050905092509250509091565b60011515600360003373ffffffffffffffffffffffffffffffffffffffff1673ffffffffffffffffffffffffffffffffffffffff16815260200190815260200160002060009054906101000a900460ff161515146116ea577ff9fbd55454309325ccadd998a641a1dfe7cd888eea26c0ae93b95992a13ac1446040516116a790612abf565b60405180910390a16040517f08c379a00000000000000000000000000000000000000000000000000000000081526004016116e190612abf565b60405180910390fd5b6000805b600c60003373ffffffffffffffffffffffffffffffffffffffff1673ffffffffffffffffffffffffffffffffffffffff168152602001908152602001600020805490508110156118455761182584600c60003373ffffffffffffffffffffffffffffffffffffffff1673ffffffffffffffffffffffffffffffffffffffff168152602001908152602001600020838154811061178d5761178c612adf565b5b9060005260206000200180546117a290612b3d565b80601f01602080910402602001604051908101604052809291908181526020018280546117ce90612b3d565b801561181b5780601f106117f05761010080835404028352916020019161181b565b820191906000526020600020905b8154815290600101906020018083116117fe57829003601f168201915b50505050506120c9565b9150811561183257611845565b808061183d90612b9e565b9150506116ee565b50806118bb577ff9fbd55454309325ccadd998a641a1dfe7cd888eea26c0ae93b95992a13ac14460405161187890612c59565b60405180910390a16040517f08c379a00000000000000000000000000000000000000000000000000000000081526004016118b290612ceb565b60405180910390fd5b6000600b846040516118cd9190612e05565b908152602001604051809103902060040180546118e990612b3d565b80601f016020809104026020016040519081016040528092919081815260200182805461191590612b3d565b80156119625780601f1061193757610100808354040283529160200191611962565b820191906000526020600020905b81548152906001019060200180831161194557829003601f168201915b505050505090506119716121a8565b848160000181905250818160200181905250838160400181905250600e6000600b846040516119a09190612e05565b908152602001604051809103902060010160009054906101000a900473ffffffffffffffffffffffffffffffffffffffff1673ffffffffffffffffffffffffffffffffffffffff1673ffffffffffffffffffffffffffffffffffffffff1681526020019081526020016000208190806001815401808255809150506001900390600052602060002090600302016000909190919091506000820151816000019080519060200190611a52929190612122565b506020820151816001019080519060200190611a6f929190612122565b506040820151816002019080519060200190611a8c929190612122565b50505060405180602001604052806000815250600b86604051611aaf9190612e05565b90815260200160405180910390206004019080519060200190611ad3929190612122565b50600b82604051611ae49190612e05565b908152602001604051809103902060010160009054906101000a900473ffffffffffffffffffffffffffffffffffffffff1673ffffffffffffffffffffffffffffffffffffffff167f0d4847e7a0fec04b76bf0bba9d0c9f2673273b35ba00aa7229d254aa01be4b7d83604051611b5b91906126f4565b60405180910390a25050505050565b600060011515600360003373ffffffffffffffffffffffffffffffffffffffff1673ffffffffffffffffffffffffffffffffffffffff16815260200190815260200160002060009054906101000a900460ff1615151415611c0c57600460003373ffffffffffffffffffffffffffffffffffffffff1673ffffffffffffffffffffffffffffffffffffffff168152602001908152602001600020549050611c11565b600090505b90565b60011515600584604051611c289190612e05565b908152602001604051809103902060009054906101000a900460ff1615151415611c86577ff9fbd55454309325ccadd998a641a1dfe7cd888eea26c0ae93b95992a13ac144604051611c7990613530565b60405180910390a1611f78565b60011515600360003373ffffffffffffffffffffffffffffffffffffffff1673ffffffffffffffffffffffffffffffffffffffff16815260200190815260200160002060009054906101000a900460ff16151514611d4e577ff9fbd55454309325ccadd998a641a1dfe7cd888eea26c0ae93b95992a13ac144604051611d0b9061359c565b60405180910390a16040517f08c379a0000000000000000000000000000000000000000000000000000000008152600401611d459061359c565b60405180910390fd5b6001600584604051611d609190612e05565b908152602001604051809103902060006101000a81548160ff021916908315150217905550611d8d6121c9565b82816000018190525033816020019073ffffffffffffffffffffffffffffffffffffffff16908173ffffffffffffffffffffffffffffffffffffffff1681525050612710444243604051602001611de693929190612d2c565b6040516020818303038152906040528051906020012060001c611e099190612d98565b81604001818152505081816060018190525060405180602001604052806000815250816080018190525080600b85604051611e449190612e05565b90815260200160405180910390206000820151816000019080519060200190611e6e929190612122565b5060208201518160010160006101000a81548173ffffffffffffffffffffffffffffffffffffffff021916908373ffffffffffffffffffffffffffffffffffffffff160217905550604082015181600201556060820151816003019080519060200190611edc929190612122565b506080820151816004019080519060200190611ef9929190612122565b50905050600c60003373ffffffffffffffffffffffffffffffffffffffff1673ffffffffffffffffffffffffffffffffffffffff16815260200190815260200160002084908060018154018082558091505060019003906000526020600020016000909190919091509080519060200190611f75929190612122565b50505b505050565b60008282604051602001611f92929190612e88565b60405160208183030381529060405280519060200120905092915050565b60068160058110611fc057600080fd5b016000915054906101000a900473ffffffffffffffffffffffffffffffffffffffff1681565b6060600b82604051611ff89190612e05565b9081526020016040518091039020600001805461201490612b3d565b80601f016020809104026020016040519081016040528092919081815260200182805461204090612b3d565b801561208d5780601f106120625761010080835404028352916020019161208d565b820191906000526020600020905b81548152906001019060200180831161207057829003601f168201915b50505050509050919050565b6000816040516020016120ac9190613629565b604051602081830303815290604052805190602001209050919050565b6000816040516020016120dc9190612e05565b60405160208183030381529060405280519060200120836040516020016121039190612e05565b6040516020818303038152906040528051906020012014905092915050565b82805461212e90612b3d565b90600052602060002090601f0160209004810192826121505760008555612197565b82601f1061216957805160ff1916838001178555612197565b82800160010185558215612197579182015b8281111561219657825182559160200191906001019061217b565b5b5090506121a4919061220e565b5090565b60405180606001604052806060815260200160608152602001606081525090565b6040518060a0016040528060608152602001600073ffffffffffffffffffffffffffffffffffffffff1681526020016000815260200160608152602001606081525090565b5b8082111561222757600081600090555060010161220f565b5090565b6000604051905090565b600080fd5b600080fd5b600080fd5b600080fd5b6000601f19601f8301169050919050565b7f4e487b7100000000000000000000000000000000000000000000000000000000600052604160045260246000fd5b61229282612249565b810181811067ffffffffffffffff821117156122b1576122b061225a565b5b80604052505050565b60006122c461222b565b90506122d08282612289565b919050565b600067ffffffffffffffff8211156122f0576122ef61225a565b5b6122f982612249565b9050602081019050919050565b82818337600083830152505050565b6000612328612323846122d5565b6122ba565b90508281526020810184848401111561234457612343612244565b5b61234f848285612306565b509392505050565b600082601f83011261236c5761236b61223f565b5b813561237c848260208601612315565b91505092915050565b60006020828403121561239b5761239a612235565b5b600082013567ffffffffffffffff8111156123b9576123b861223a565b5b6123c584828501612357565b91505092915050565b6000819050919050565b6123e1816123ce565b82525050565b60006020820190506123fc60008301846123d8565b92915050565b600081519050919050565b600082825260208201905092915050565b60005b8381101561243c578082015181840152602081019050612421565b8381111561244b576000848401525b50505050565b600061245c82612402565b612466818561240d565b935061247681856020860161241e565b61247f81612249565b840191505092915050565b600060408201905081810360008301526124a48185612451565b90506124b360208301846123d8565b9392505050565b600067ffffffffffffffff8211156124d5576124d461225a565b5b6124de82612249565b9050602081019050919050565b60006124fe6124f9846124ba565b6122ba565b90508281526020810184848401111561251a57612519612244565b5b612525848285612306565b509392505050565b600082601f8301126125425761254161223f565b5b81356125528482602086016124eb565b91505092915050565b6000819050919050565b61256e8161255b565b811461257957600080fd5b50565b60008135905061258b81612565565b92915050565b600080604083850312156125a8576125a7612235565b5b600083013567ffffffffffffffff8111156125c6576125c561223a565b5b6125d28582860161252d565b92505060206125e38582860161257c565b9150509250929050565b60008115159050919050565b612602816125ed565b82525050565b600060208201905061261d60008301846125f9565b92915050565b6000806040838503121561263a57612639612235565b5b600083013567ffffffffffffffff8111156126585761265761223a565b5b61266485828601612357565b925050602083013567ffffffffffffffff8111156126855761268461223a565b5b6126918582860161252d565b9150509250929050565b6126a4816123ce565b81146126af57600080fd5b50565b6000813590506126c18161269b565b92915050565b6000602082840312156126dd576126dc612235565b5b60006126eb848285016126b2565b91505092915050565b6000602082019050818103600083015261270e8184612451565b905092915050565b6000806040838503121561272d5761272c612235565b5b600061273b8582860161257c565b925050602083013567ffffffffffffffff81111561275c5761275b61223a565b5b6127688582860161252d565b9150509250929050565b600073ffffffffffffffffffffffffffffffffffffffff82169050919050565b600061279d82612772565b9050919050565b6127ad81612792565b82525050565b60006020820190506127c860008301846127a4565b92915050565b6000602082840312156127e4576127e3612235565b5b600082013567ffffffffffffffff8111156128025761280161223a565b5b61280e8482850161252d565b91505092915050565b6000806040838503121561282e5761282d612235565b5b600083013567ffffffffffffffff81111561284c5761284b61223a565b5b61285885828601612357565b925050602083013567ffffffffffffffff8111156128795761287861223a565b5b61288585828601612357565b9150509250929050565b6128988161255b565b82525050565b600060ff82169050919050565b6128b48161289e565b82525050565b60006060820190506128cf600083018661288f565b6128dc602083018561288f565b6128e960408301846128ab565b949350505050565b6000604082019050818103600083015261290b8185612451565b9050818103602083015261291f8184612451565b90509392505050565b60008060006060848603121561294157612940612235565b5b600084013567ffffffffffffffff81111561295f5761295e61223a565b5b61296b86828701612357565b935050602084013567ffffffffffffffff81111561298c5761298b61223a565b5b61299886828701612357565b925050604084013567ffffffffffffffff8111156129b9576129b861223a565b5b6129c586828701612357565b9150509250925092565b600080604083850312156129e6576129e5612235565b5b600083013567ffffffffffffffff811115612a0457612a0361223a565b5b612a1085828601612357565b9250506020612a21858286016126b2565b9150509250929050565b6000602082019050612a40600083018461288f565b92915050565b600060208284031215612a5c57612a5b612235565b5b6000612a6a8482850161257c565b91505092915050565b7f47617465776179206e6f7420726567697374657265642e2e2e00000000000000600082015250565b6000612aa960198361240d565b9150612ab482612a73565b602082019050919050565b60006020820190508181036000830152612ad881612a9c565b9050919050565b7f4e487b7100000000000000000000000000000000000000000000000000000000600052603260045260246000fd5b7f4e487b7100000000000000000000000000000000000000000000000000000000600052602260045260246000fd5b60006002820490506001821680612b5557607f821691505b60208210811415612b6957612b68612b0e565b5b50919050565b7f4e487b7100000000000000000000000000000000000000000000000000000000600052601160045260246000fd5b6000612ba9826123ce565b91507fffffffffffffffffffffffffffffffffffffffffffffffffffffffffffffffff821415612bdc57612bdb612b6f565b5b600182019050919050565b7f446576696365206e6f74206173736f636961746564207769746820746869732060008201527f676174657761792e2e2e2e000000000000000000000000000000000000000000602082015250565b6000612c43602b8361240d565b9150612c4e82612be7565b604082019050919050565b60006020820190508181036000830152612c7281612c36565b9050919050565b7f446576696365206e6f74206173736f636961746564207769746820746869732060008201527f676174657761792e2e2e00000000000000000000000000000000000000000000602082015250565b6000612cd5602a8361240d565b9150612ce082612c79565b604082019050919050565b60006020820190508181036000830152612d0481612cc8565b9050919050565b6000819050919050565b612d26612d21826123ce565b612d0b565b82525050565b6000612d388286612d15565b602082019150612d488285612d15565b602082019150612d588284612d15565b602082019150819050949350505050565b7f4e487b7100000000000000000000000000000000000000000000000000000000600052601260045260246000fd5b6000612da3826123ce565b9150612dae836123ce565b925082612dbe57612dbd612d69565b5b828206905092915050565b600081905092915050565b6000612ddf82612402565b612de98185612dc9565b9350612df981856020860161241e565b80840191505092915050565b6000612e118284612dd4565b915081905092915050565b7f4e6f6e6365207375636365737366756c6c7920757064617465642e2e2e000000600082015250565b6000612e52601d8361240d565b9150612e5d82612e1c565b602082019050919050565b60006020820190508181036000830152612e8181612e45565b9050919050565b6000612e948285612dd4565b9150612ea08284612d15565b6020820191508190509392505050565b7f796f000000000000000000000000000000000000000000000000000000000000600082015250565b6000612ee6600283612dc9565b9150612ef182612eb0565b600282019050919050565b6000612f0782612ed9565b9150819050919050565b60008190508160005260206000209050919050565b60008154612f3381612b3d565b612f3d8186612dc9565b94506001821660008114612f585760018114612f6957612f9c565b60ff19831686528186019350612f9c565b612f7285612f11565b60005b83811015612f9457815481890152600182019150602081019050612f75565b838801955050505b50505092915050565b6000612fb18284612f26565b915081905092915050565b7f596179792c206572726f72206f63757272656400000000000000000000000000600082015250565b6000612ff260138361240d565b9150612ffd82612fbc565b602082019050919050565b6000602082019050818103600083015261302181612fe5565b9050919050565b7f566572696669636174696f6e2073756363657373202d20537472696e6720757060008201527f6461746564000000000000000000000000000000000000000000000000000000602082015250565b600061308460258361240d565b915061308f82613028565b604082019050919050565b600060208201905081810360008301526130b381613077565b9050919050565b7f566572696669636174696f6e206661696c6564202d20537472696e67206e6f7460008201527f2075706461746564000000000000000000000000000000000000000000000000602082015250565b600061311660288361240d565b9150613121826130ba565b604082019050919050565b6000602082019050818103600083015261314581613109565b9050919050565b6000815461315981612b3d565b613163818661240d565b9450600182166000811461317e5760018114613190576131c3565b60ff19831686526020860193506131c3565b61319985612f11565b60005b838110156131bb5781548189015260018201915060208101905061319c565b808801955050505b50505092915050565b600060208201905081810360008301526131e6818461314c565b905092915050565b6000608082019050613203600083018761288f565b61321060208301866128ab565b61321d604083018561288f565b61322a606083018461288f565b95945050505050565b7f416c726561647920726567697374657265642e2e2e0000000000000000000000600082015250565b600061326960158361240d565b915061327482613233565b602082019050919050565b600060208201905081810360008301526132988161325c565b9050919050565b7f5265676973746572000000000000000000000000000000000000000000000000600082015250565b60006132d5600883612dc9565b91506132e08261329f565b600882019050919050565b60006132f6826132c8565b9150819050919050565b7f526567697374726174696f6e206661696c65642e2e2e00000000000000000000600082015250565b600061333660168361240d565b915061334182613300565b602082019050919050565b6000602082019050818103600083015261336581613329565b9050919050565b7f54696d657374616d7020757064617465642e2e2e000000000000000000000000600082015250565b60006133a260148361240d565b91506133ad8261336c565b602082019050919050565b600060208201905081810360008301526133d181613395565b9050919050565b7f696e76616c6964207369676e6174757265206c656e6774680000000000000000600082015250565b600061340e60188361240d565b9150613419826133d8565b602082019050919050565b6000602082019050818103600083015261343d81613401565b9050919050565b7f526563697069656e7420757064617465642e2e2e000000000000000000000000600082015250565b600061347a60148361240d565b915061348582613444565b602082019050919050565b600060208201905081810360008301526134a98161346d565b9050919050565b60006134bb826123ce565b91506134c6836123ce565b9250828210156134d9576134d8612b6f565b5b828203905092915050565b7f44657669636520616c726561647920726567697374657265642e2e2e00000000600082015250565b600061351a601c8361240d565b9150613525826134e4565b602082019050919050565b600060208201905081810360008301526135498161350d565b9050919050565b7f47617465776179206e6f74207265676973746572656400000000000000000000600082015250565b600061358660168361240d565b915061359182613550565b602082019050919050565b600060208201905081810360008301526135b581613579565b9050919050565b7f19457468657265756d205369676e6564204d6573736167653a0a333200000000600082015250565b60006135f2601c83612dc9565b91506135fd826135bc565b601c82019050919050565b6000819050919050565b61362361361e8261255b565b613608565b82525050565b6000613634826135e5565b91506136408284613612565b6020820191508190509291505056fea2646970667358221220559daf0fadc2a6901c9c0c21ece3f14eae14bebba1cd4da541e441978396fdad64736f6c634300080a0033",
  "immutableReferences": {},
  "source": "// SPDX-License-Identifier: .\r\npragma solidity ^0.8.10;\r\n\r\ncontract Sample {\r\n    ///Blockchain state variables.\r\n\r\n    /* 'number' and 'str' are test variables */\r\n    uint public number = 10;\r\n    string public str = \"Hello\";\r\n    uint public t=0;\r\n    // 'reg' is mapping which stores whether a gateway has registered or not.\r\n    mapping(address => bool) reg;\r\n    // 'nonces' is a mapping which stores nonces for each registered gateway and changes with transaction.\r\n    mapping(address => uint) nonces;\r\n    //This mapping stores whether the dev has been registered or not.\r\n    mapping(string => bool) dev_reg;\r\n\r\n    //This structure contains the device information.\r\n    struct Device {\r\n        string pubKey;\r\n        address gate;\r\n        uint nonce;\r\n        string TS;\r\n        string recvId;\r\n    }\r\n    address[5] public lbrids;\r\n    //Maps from the device id to device information which is contained in 'Device' struct.\r\n    mapping(string => Device) dev_info;\r\n    \r\n    mapping(address => string[]) gate_dev;\r\n    mapping(address => string[]) gate_agg;\r\n\r\n    //The messsages associated with the lbr are stored in this data structure.\r\n    struct Message {\r\n        string from;\r\n        string to;\r\n        string msg_str;\r\n    }    \r\n    mapping(address => Message[]) msgs;\r\n\r\n    //Test event to listen to in the script.\r\n    event test(string _str);  \r\n    \r\n    //This is the event which the gateway listens for any notification of messages.\r\n    event receive_message(address indexed gateway, string devId);\r\n\r\n    //Utility function\r\n    function str_cmp(string memory _a, string memory _b) internal pure returns(bool fl){\r\n        return keccak256(abi.encodePacked(_a)) == keccak256(abi.encodePacked(_b));\r\n    }      \r\n\r\n    /*The below 3 functions are test functions.*/\r\n\r\n\r\n    //Multiple value return.\r\n    function without_parameters() public view returns (string memory str1, uint num1) {\r\n            return (str, number);\r\n    }\r\n\r\n    //Directly update the number by 'n'.\r\n    function update(uint _n) public {\r\n            number = _n;            \r\n    } \r\n\r\n    //Test transaction to check working with signature.\r\n    function update_string(string memory _str, bytes memory signature) public {\r\n        \r\n        bytes32 messageHash = keccak256(abi.encodePacked(_str, nonces[msg.sender]));\r\n        bool status = verify(signature, messageHash);\r\n        if(status == true)\r\n        {\r\n            if(keccak256(abi.encodePacked(str)) == keccak256(abi.encodePacked(\"yo\")))\r\n            revert(\"Yayy, error ocurred\");\r\n            str = _str;\r\n            nonces[msg.sender] = uint(keccak256(abi.encodePacked(block.difficulty, block.timestamp, block.number)))%10000;\r\n            emit test(\"Verification success - String updated\");\r\n        }\r\n        else\r\n            emit test(\"Verification failed - String not updated\");\r\n\r\n        emit test(str);\r\n    }       \r\n   \r\n\r\n    //Function to retrieve nonce.\r\n    function getNonce() public view returns(uint nonce) {\r\n        if(reg[msg.sender] == true)\r\n            return nonces[msg.sender];\r\n        else\r\n            return 0;\r\n    }\r\n    //device authentication\r\n    \r\n\r\n    \r\n    function register_gateway(bytes memory signature) public {\r\n        \r\n        if(reg[msg.sender] == true)\r\n            emit test(\"Already registered...\");\r\n        else{\r\n            bytes32 messageHash = keccak256(abi.encodePacked('Register'));\r\n            bool status = verify(signature, messageHash);\r\n            if(status == true)\r\n            {\r\n                //That means the signature has been verified.\r\n                reg[msg.sender] = true;\r\n                lbrids[t]=msg.sender;\r\n                t++;\r\n                nonces[msg.sender] = uint(keccak256(abi.encodePacked(block.difficulty, block.timestamp, block.number)))%10000;\r\n            }        \r\n            else\r\n            {\r\n                revert(\"Registration failed...\");\r\n            }\r\n        }\r\n    }\r\n\r\n    function register_device(string memory _devId, string memory _pub, string memory _TS) public {\r\n        \r\n        if(dev_reg[_devId] == true)\r\n            emit test(\"Device already registered...\");\r\n\r\n        else if(reg[msg.sender] != true){\r\n            emit test(\"Gateway not registered\");\r\n            revert(\"Gateway not registered\");\r\n        }\r\n        else{                        \r\n            //Since the status has been verified, things to do are:\r\n            //1. Mark the device as registered.\r\n            dev_reg[_devId] = true;\r\n            \r\n            //2. Create a new struct with the information.\r\n            Device memory dev;\r\n            dev.pubKey = _pub;\r\n            dev.gate = msg.sender;\r\n            dev.nonce = uint(keccak256(abi.encodePacked(block.difficulty, block.timestamp, block.number)))%10000;\r\n            dev.TS = _TS;\r\n            dev.recvId = \"\";\r\n            //3. Map the device id to the created struct.\r\n            dev_info[_devId] = dev;\r\n\r\n            //4. Also add the device id to the list of devices under the associated gateway.  \r\n            gate_dev[msg.sender].push(_devId);                                  \r\n        }\r\n    }\r\n\r\n    //Function to check whether device has been registered or not. If yes, returns the timestamp of the last request.\r\n    function check_device(string memory _devId) public view returns(string memory){                \r\n        if (dev_reg[_devId])\r\n            return dev_info[_devId].TS;\r\n        else\r\n            return \"\";\r\n    }\r\n\r\n    function update_timestamp(string memory _devId, string memory _TS) public {\r\n        dev_info[_devId].TS = _TS;\r\n        emit test(\"Timestamp updated...\");\r\n    }\r\n     \r\n    function get_device_key(string memory _devId) public view returns(string memory){                \r\n        return dev_info[_devId].pubKey;\r\n    }\r\n    function get_device_gateway(string memory _devId) public view returns(uint){                \r\n        address temp = dev_info[_devId].gate;\r\n        for(uint i=0;i<5;i++){\r\n            if(lbrids[i]==temp){\r\n                return i;\r\n            }\r\n        }\r\n        \r\n    }\r\n\r\n    function update_recipient(string memory _devId, string memory _recvId) public {\r\n        dev_info[_devId].recvId = _recvId;\r\n        emit test(\"Recipient updated...\");\r\n    }\r\n    //function to return lbrid for the device specified\r\n   \r\n        \r\n\r\n    \r\n    function communicate(string memory _devId, string memory _msg) public {\r\n        \r\n        if(reg[msg.sender] != true)\r\n        {\r\n            emit test(\"Gateway not registered...\");\r\n            revert(\"Gateway not registered...\");\r\n        }\r\n        \r\n        bool fl = false;\r\n        for(uint i=0;i<gate_dev[msg.sender].length;i++)\r\n        {\r\n            fl = str_cmp(_devId, gate_dev[msg.sender][i]);\r\n            if(fl)\r\n                break;\r\n        }\r\n\r\n        if(!fl)\r\n        {\r\n            emit test(\"Device not associated with this gateway....\");\r\n            revert(\"Device not associated with this gateway...\");\r\n        }\r\n\r\n        string memory _recvId = dev_info[_devId].recvId;\r\n        //Now add the message under this gateway and emit the event.\r\n        Message memory message;\r\n        message.from = _devId;\r\n        message.to = _recvId;\r\n        message.msg_str = _msg;\r\n\r\n        //Add to the list of messages for the gateway.\r\n        msgs[dev_info[_recvId].gate].push(message);\r\n\r\n        //Clear the recipient id under the dev_info.\r\n        dev_info[_devId].recvId = \"\";\r\n\r\n        emit receive_message(dev_info[_recvId].gate, _recvId);\r\n    }\r\n\r\n    function getMessage() public view returns (string memory from, string memory _str){\r\n        \r\n        uint n = msgs[msg.sender].length;\r\n        return (msgs[msg.sender][n-1].from, msgs[msg.sender][n-1].msg_str);\r\n    }\r\n\r\n\r\n    //The gateway updates the nonce of the device after every authentication attempt.\r\n    function update_device_nonce(string memory _devId) public {\r\n        //Check whether the gateway is registered.\r\n        //Also check whether the device is under this gateway.\r\n        if(reg[msg.sender] != true)\r\n        {\r\n            emit test(\"Gateway not registered...\");\r\n            revert(\"Gateway not registered...\");\r\n        }\r\n        \r\n        bool fl = false;\r\n        for(uint i=0;i<gate_dev[msg.sender].length;i++)\r\n        {\r\n            fl = str_cmp(_devId, gate_dev[msg.sender][i]);\r\n            if(fl)\r\n                break;\r\n        }\r\n\r\n        if(!fl)\r\n        {\r\n            emit test(\"Device not associated with this gateway....\");\r\n            revert(\"Device not associated with this gateway...\");\r\n        }    \r\n        \r\n        //Add a nonce for the device here.\r\n        dev_info[_devId].nonce = uint(keccak256(abi.encodePacked(block.difficulty, block.timestamp, block.number)))%10000;   \r\n        emit test(\"Nonce successfully updated...\");\r\n    }\r\n    \r\n\r\n    function get_device_nonce(string memory _devId) public view returns(uint nonce){\r\n        //Check whether the gateway is registered.\r\n        //Also check whether the device is under this gateway.\r\n        if(reg[msg.sender] != true)                   \r\n            return 0;                    \r\n        \r\n        bool fl = false;\r\n        for(uint i=0;i<gate_dev[msg.sender].length;i++)\r\n        {\r\n            fl = str_cmp(_devId, gate_dev[msg.sender][i]);\r\n            if(fl)\r\n                break;\r\n        }\r\n\r\n        if(!fl)                    \r\n            return 0;           \r\n        \r\n        //Return nonce for the device here.\r\n        return dev_info[_devId].nonce;               \r\n    }\r\n    \r\n\r\n\r\n\r\n\r\n    function verify(\r\n        bytes memory signature,\r\n        bytes32 messageHash        \r\n    ) public view returns (bool) {        \r\n        bytes32 ethSignedMessageHash = getEthSignedMessageHash(messageHash);\r\n\r\n        return recoverSigner(ethSignedMessageHash, signature) == msg.sender;\r\n    }\r\n\r\n    function getMessageHash(        \r\n        string memory _message ,\r\n        uint _nonce       \r\n    ) public pure returns (bytes32) {\r\n        return keccak256(abi.encodePacked(_message, _nonce));\r\n    }\r\n\r\n    function getEthSignedMessageHash(bytes32 _messageHash)\r\n        public\r\n        pure\r\n        returns (bytes32)\r\n    {\r\n        /*\r\n        Signature is produced by signing a keccak256 hash with the following format:\r\n        \"\\x19Ethereum Signed Message\\n\" + len(msg) + msg\r\n        */\r\n        return\r\n            keccak256(\r\n                abi.encodePacked(\"\\x19Ethereum Signed Message:\\n32\", _messageHash)\r\n            );\r\n    }\r\n\r\n    function recoverSigner(bytes32 _ethSignedMessageHash, bytes memory _signature)\r\n        public\r\n        pure\r\n        returns (address)\r\n    {\r\n        (bytes32 r, bytes32 s, uint8 v) = splitSignature(_signature);\r\n\r\n        return ecrecover(_ethSignedMessageHash, v, r, s);\r\n    }\r\n\r\n    function splitSignature(bytes memory sig)\r\n        public\r\n        pure\r\n        returns (\r\n            bytes32 r,\r\n            bytes32 s,\r\n            uint8 v\r\n        )\r\n    {\r\n        require(sig.length == 65, \"invalid signature length\");\r\n\r\n        assembly {\r\n            /*\r\n            First 32 bytes stores the length of the signature\r\n\r\n            add(sig, 32) = pointer of sig + 32\r\n            effectively, skips first 32 bytes of signature\r\n\r\n            mload(p) loads next 32 bytes starting at the memory address p into memory\r\n            */\r\n\r\n            // first 32 bytes, after the length prefix\r\n            r := mload(add(sig, 32))\r\n            // second 32 bytes\r\n            s := mload(add(sig, 64))\r\n            // final byte (first byte of the next 32 bytes)\r\n            v := byte(0, mload(add(sig, 96)))\r\n        }\r\n\r\n        // implicitly return (r, s, v)\r\n    }\r\n}",
  "sourcePath": "C:\\Users\\abhi\\Desktop\\etherium\\endproject\\BorderRouters\\contracts\\Sample.sol",
  "compiler": {
    "name": "solc",
    "version": "0.8.10+commit.fc410830.Emscripten.clang"
  },
  "schemaVersion": "3.4.11",
  "updatedAt": "2023-04-17T13:26:24.913Z",
  "devdoc": {
    "kind": "dev",
    "methods": {},
    "version": 1
  },
  "userdoc": {
    "kind": "user",
    "methods": {
      "number()": {
        "notice": "Blockchain state variables."
      }
    },
    "version": 1
  }
}