{
  "contractName": "Sample",
  "abi": [
    {
      "anonymous": false,
      "inputs": [
        {
          "indexed": true,
          "internalType": "address",
          "name": "gateway",
          "type": "address"
        },
        {
          "indexed": false,
          "internalType": "string",
          "name": "devId",
          "type": "string"
        }
      ],
      "name": "receive_message",
      "type": "event"
    },
    {
      "anonymous": false,
      "inputs": [
        {
          "indexed": false,
          "internalType": "string",
          "name": "_str",
          "type": "string"
        }
      ],
      "name": "test",
      "type": "event"
    },
    {
      "inputs": [],
      "name": "count",
      "outputs": [
        {
          "internalType": "uint256",
          "name": "",
          "type": "uint256"
        }
      ],
      "stateMutability": "view",
      "type": "function"
    },
    {
      "inputs": [
        {
          "internalType": "uint256",
          "name": "",
          "type": "uint256"
        }
      ],
      "name": "lbrids",
      "outputs": [
        {
          "internalType": "address",
          "name": "",
          "type": "address"
        }
      ],
      "stateMutability": "view",
      "type": "function"
    },
    {
      "inputs": [],
      "name": "number",
      "outputs": [
        {
          "internalType": "uint256",
          "name": "",
          "type": "uint256"
        }
      ],
      "stateMutability": "view",
      "type": "function"
    },
    {
      "inputs": [],
      "name": "str",
      "outputs": [
        {
          "internalType": "string",
          "name": "",
          "type": "string"
        }
      ],
      "stateMutability": "view",
      "type": "function"
    },
    {
      "inputs": [],
      "name": "t",
      "outputs": [
        {
          "internalType": "uint256",
          "name": "",
          "type": "uint256"
        }
      ],
      "stateMutability": "view",
      "type": "function"
    },
    {
      "inputs": [],
      "name": "without_parameters",
      "outputs": [
        {
          "internalType": "string",
          "name": "str1",
          "type": "string"
        },
        {
          "internalType": "uint256",
          "name": "num1",
          "type": "uint256"
        }
      ],
      "stateMutability": "view",
      "type": "function"
    },
    {
      "inputs": [
        {
          "internalType": "uint256",
          "name": "_n",
          "type": "uint256"
        }
      ],
      "name": "update",
      "outputs": [],
      "stateMutability": "nonpayable",
      "type": "function"
    },
    {
      "inputs": [
        {
          "internalType": "string",
          "name": "_str",
          "type": "string"
        },
        {
          "internalType": "bytes",
          "name": "signature",
          "type": "bytes"
        }
      ],
      "name": "update_string",
      "outputs": [],
      "stateMutability": "nonpayable",
      "type": "function"
    },
    {
      "inputs": [],
      "name": "getNonce",
      "outputs": [
        {
          "internalType": "uint256",
          "name": "nonce",
          "type": "uint256"
        }
      ],
      "stateMutability": "view",
      "type": "function"
    },
    {
      "inputs": [
        {
          "internalType": "bytes",
          "name": "signature",
          "type": "bytes"
        }
      ],
      "name": "register_gateway",
      "outputs": [],
      "stateMutability": "nonpayable",
      "type": "function"
    },
    {
      "inputs": [
        {
          "internalType": "string",
          "name": "_devId",
          "type": "string"
        },
        {
          "internalType": "string",
          "name": "_pub",
          "type": "string"
        },
        {
          "internalType": "string",
          "name": "_TS",
          "type": "string"
        }
      ],
      "name": "register_device",
      "outputs": [],
      "stateMutability": "nonpayable",
      "type": "function"
    },
    {
      "inputs": [
        {
          "internalType": "string",
          "name": "_devId",
          "type": "string"
        }
      ],
      "name": "check_device",
      "outputs": [
        {
          "internalType": "string",
          "name": "",
          "type": "string"
        }
      ],
      "stateMutability": "view",
      "type": "function"
    },
    {
      "inputs": [
        {
          "internalType": "string",
          "name": "_devId",
          "type": "string"
        },
        {
          "internalType": "string",
          "name": "_TS",
          "type": "string"
        }
      ],
      "name": "update_timestamp",
      "outputs": [],
      "stateMutability": "nonpayable",
      "type": "function"
    },
    {
      "inputs": [
        {
          "internalType": "address",
          "name": "lbrid",
          "type": "address"
        }
      ],
      "name": "verifyroute",
      "outputs": [
        {
          "internalType": "bool",
          "name": "",
          "type": "bool"
        }
      ],
      "stateMutability": "view",
      "type": "function"
    },
    {
      "inputs": [
        {
          "internalType": "string",
          "name": "_devId",
          "type": "string"
        }
      ],
      "name": "get_device_key",
      "outputs": [
        {
          "internalType": "string",
          "name": "",
          "type": "string"
        }
      ],
      "stateMutability": "view",
      "type": "function"
    },
    {
      "inputs": [
        {
          "internalType": "string",
          "name": "_devId",
          "type": "string"
        }
      ],
      "name": "get_device_gateway",
      "outputs": [
        {
          "internalType": "address",
          "name": "",
          "type": "address"
        }
      ],
      "stateMutability": "view",
      "type": "function"
    },
    {
      "inputs": [
        {
          "internalType": "address",
          "name": "gate",
          "type": "address"
        }
      ],
      "name": "get_lbr_id",
      "outputs": [
        {
          "internalType": "uint256",
          "name": "",
          "type": "uint256"
        }
      ],
      "stateMutability": "view",
      "type": "function"
    },
    {
      "inputs": [
        {
          "internalType": "string",
          "name": "_devId",
          "type": "string"
        },
        {
          "internalType": "string",
          "name": "_recvId",
          "type": "string"
        }
      ],
      "name": "update_recipient",
      "outputs": [],
      "stateMutability": "nonpayable",
      "type": "function"
    },
    {
      "inputs": [
        {
          "internalType": "string",
          "name": "_devId",
          "type": "string"
        },
        {
          "internalType": "string",
          "name": "_msg",
          "type": "string"
        }
      ],
      "name": "communicate",
      "outputs": [],
      "stateMutability": "nonpayable",
      "type": "function"
    },
    {
      "inputs": [],
      "name": "getMessage",
      "outputs": [
        {
          "internalType": "string",
          "name": "from",
          "type": "string"
        },
        {
          "internalType": "string",
          "name": "_str",
          "type": "string"
        }
      ],
      "stateMutability": "view",
      "type": "function"
    },
    {
      "inputs": [
        {
          "internalType": "string",
          "name": "_devId",
          "type": "string"
        }
      ],
      "name": "update_device_nonce",
      "outputs": [],
      "stateMutability": "nonpayable",
      "type": "function"
    },
    {
      "inputs": [
        {
          "internalType": "string",
          "name": "_devId",
          "type": "string"
        }
      ],
      "name": "get_device_nonce",
      "outputs": [
        {
          "internalType": "uint256",
          "name": "nonce",
          "type": "uint256"
        }
      ],
      "stateMutability": "view",
      "type": "function"
    },
    {
      "inputs": [
        {
          "internalType": "bytes",
          "name": "signature",
          "type": "bytes"
        },
        {
          "internalType": "bytes32",
          "name": "messageHash",
          "type": "bytes32"
        }
      ],
      "name": "verify",
      "outputs": [
        {
          "internalType": "bool",
          "name": "",
          "type": "bool"
        }
      ],
      "stateMutability": "view",
      "type": "function"
    },
    {
      "inputs": [
        {
          "internalType": "string",
          "name": "_message",
          "type": "string"
        },
        {
          "internalType": "uint256",
          "name": "_nonce",
          "type": "uint256"
        }
      ],
      "name": "getMessageHash",
      "outputs": [
        {
          "internalType": "bytes32",
          "name": "",
          "type": "bytes32"
        }
      ],
      "stateMutability": "pure",
      "type": "function"
    },
    {
      "inputs": [
        {
          "internalType": "bytes32",
          "name": "_messageHash",
          "type": "bytes32"
        }
      ],
      "name": "getEthSignedMessageHash",
      "outputs": [
        {
          "internalType": "bytes32",
          "name": "",
          "type": "bytes32"
        }
      ],
      "stateMutability": "pure",
      "type": "function"
    },
    {
      "inputs": [
        {
          "internalType": "bytes32",
          "name": "_ethSignedMessageHash",
          "type": "bytes32"
        },
        {
          "internalType": "bytes",
          "name": "_signature",
          "type": "bytes"
        }
      ],
      "name": "recoverSigner",
      "outputs": [
        {
          "internalType": "address",
          "name": "",
          "type": "address"
        }
      ],
      "stateMutability": "pure",
      "type": "function"
    },
    {
      "inputs": [
        {
          "internalType": "bytes",
          "name": "sig",
          "type": "bytes"
        }
      ],
      "name": "splitSignature",
      "outputs": [
        {
          "internalType": "bytes32",
          "name": "r",
          "type": "bytes32"
        },
        {
          "internalType": "bytes32",
          "name": "s",
          "type": "bytes32"
        },
        {
          "internalType": "uint8",
          "name": "v",
          "type": "uint8"
        }
      ],
      "stateMutability": "pure",
      "type": "function"
    }
  ],
  "bytecode": "0x6080604052600a6000556040518060400160405280600581526020017f48656c6c6f000000000000000000000000000000000000000000000000000000815250600190805190602001906200005692919062000076565b506000600255611f90600f553480156200006f57600080fd5b506200018b565b828054620000849062000155565b90600052602060002090601f016020900481019282620000a85760008555620000f4565b82601f10620000c357805160ff1916838001178555620000f4565b82800160010185558215620000f4579182015b82811115620000f3578251825591602001919060010190620000d6565b5b50905062000103919062000107565b5090565b5b808211156200012257600081600090555060010162000108565b5090565b7f4e487b7100000000000000000000000000000000000000000000000000000000600052602260045260246000fd5b600060028204905060018216806200016e57607f821691505b6020821081141562000185576200018462000126565b5b50919050565b6138af806200019b6000396000f3fe608060405234801561001057600080fd5b50600436106101a95760003560e01c806397aba7f9116100f9578063d075b7bf11610097578063d4aa691611610071578063d4aa6916146104e4578063e4a6d91414610514578063e594d0f114610544578063fa54080114610574576101a9565b8063d075b7bf1461048e578063d087d288146104aa578063d38fe636146104c8576101a9565b8063a7bb5803116100d3578063a7bb580314610403578063a9eb410114610435578063c15bae8414610451578063ce6d41de1461046f576101a9565b806397aba7f91461039b578063a0c265f8146103cb578063a6bf9028146103e7576101a9565b80635b72ae051161016657806382ab890a1161014057806382ab890a146103135780638381f58a1461032f57806392d0d1531461034d57806393c7a68b1461036b576101a9565b80635b72ae05146102975780636b406341146102c75780637737879f146102f7576101a9565b806306661abd146101ae578063119559dc146101cc578063187160b4146101e8578063225ef7601461021857806338ead8e8146102485780634ea36e3214610278575b600080fd5b6101b66105a4565b6040516101c391906123bf565b60405180910390f35b6101e660048036038101906101e19190612534565b6105aa565b005b61020260048036038101906101fd91906125db565b6108dc565b60405161020f9190612623565b60405180910390f35b610232600480360381019061022d91906125db565b610932565b60405161023f91906123bf565b60405180910390f35b610262600480360381019061025d9190612534565b6109e3565b60405161026f919061264d565b60405180910390f35b610280610a2e565b60405161028e9291906126f0565b60405180910390f35b6102b160048036038101906102ac9190612534565b610acb565b6040516102be91906123bf565b60405180910390f35b6102e160048036038101906102dc91906127f7565b610cc4565b6040516102ee9190612623565b60405180910390f35b610311600480360381019061030c9190612853565b610d13565b005b61032d600480360381019061032891906128f7565b610f6b565b005b610337610f75565b60405161034491906123bf565b60405180910390f35b610355610f7b565b60405161036291906123bf565b60405180910390f35b61038560048036038101906103809190612534565b610f81565b6040516103929190612924565b60405180910390f35b6103b560048036038101906103b09190612946565b61107d565b6040516103c2919061264d565b60405180910390f35b6103e560048036038101906103e091906129a2565b6110ec565b005b61040160048036038101906103fc91906129eb565b61134d565b005b61041d600480360381019061041891906129a2565b6113bc565b60405161042c93929190612a8e565b60405180910390f35b61044f600480360381019061044a91906129eb565b611424565b005b610459611493565b6040516104669190612924565b60405180910390f35b610477611521565b604051610485929190612ac5565b60405180910390f35b6104a860048036038101906104a391906129eb565b611768565b005b6104b2611cb0565b6040516104bf91906123bf565b60405180910390f35b6104e260048036038101906104dd9190612afc565b611d5a565b005b6104fe60048036038101906104f99190612ba3565b6120f1565b60405161050b9190612bff565b60405180910390f35b61052e600480360381019061052991906128f7565b612124565b60405161053b919061264d565b60405180910390f35b61055e60048036038101906105599190612534565b61215a565b60405161056b9190612924565b60405180910390f35b61058e60048036038101906105899190612c1a565b61220d565b60405161059b9190612bff565b60405180910390f35b600f5481565b60011515600360003373ffffffffffffffffffffffffffffffffffffffff1673ffffffffffffffffffffffffffffffffffffffff16815260200190815260200160002060009054906101000a900460ff16151514610672577ff9fbd55454309325ccadd998a641a1dfe7cd888eea26c0ae93b95992a13ac14460405161062f90612c93565b60405180910390a16040517f08c379a000000000000000000000000000000000000000000000000000000000815260040161066990612c93565b60405180910390fd5b6000805b600c60003373ffffffffffffffffffffffffffffffffffffffff1673ffffffffffffffffffffffffffffffffffffffff168152602001908152602001600020805490508110156107cd576107ad83600c60003373ffffffffffffffffffffffffffffffffffffffff1673ffffffffffffffffffffffffffffffffffffffff168152602001908152602001600020838154811061071557610714612cb3565b5b90600052602060002001805461072a90612d11565b80601f016020809104026020016040519081016040528092919081815260200182805461075690612d11565b80156107a35780601f10610778576101008083540402835291602001916107a3565b820191906000526020600020905b81548152906001019060200180831161078657829003601f168201915b505050505061223d565b915081156107ba576107cd565b80806107c590612d72565b915050610676565b5080610843577ff9fbd55454309325ccadd998a641a1dfe7cd888eea26c0ae93b95992a13ac14460405161080090612e2d565b60405180910390a16040517f08c379a000000000000000000000000000000000000000000000000000000000815260040161083a90612ebf565b60405180910390fd5b61271044424360405160200161085b93929190612f00565b6040516020818303038152906040528051906020012060001c61087e9190612f6c565b600b8360405161088e9190612fd9565b9081526020016040518091039020600201819055507ff9fbd55454309325ccadd998a641a1dfe7cd888eea26c0ae93b95992a13ac1446040516108d09061303c565b60405180910390a15050565b6000600360008373ffffffffffffffffffffffffffffffffffffffff1673ffffffffffffffffffffffffffffffffffffffff16815260200190815260200160002060009054906101000a900460ff169050919050565b60008060009050600090505b600481116109d8578273ffffffffffffffffffffffffffffffffffffffff166006826005811061097157610970612cb3565b5b0160009054906101000a900473ffffffffffffffffffffffffffffffffffffffff1673ffffffffffffffffffffffffffffffffffffffff1614156109c557611f90816109bd919061305c565b9150506109de565b80806109d090612d72565b91505061093e565b60009150505b919050565b6000600b826040516109f59190612fd9565b908152602001604051809103902060010160009054906101000a900473ffffffffffffffffffffffffffffffffffffffff169050919050565b606060006001600054818054610a4390612d11565b80601f0160208091040260200160405190810160405280929190818152602001828054610a6f90612d11565b8015610abc5780601f10610a9157610100808354040283529160200191610abc565b820191906000526020600020905b815481529060010190602001808311610a9f57829003601f168201915b50505050509150915091509091565b600060011515600360003373ffffffffffffffffffffffffffffffffffffffff1673ffffffffffffffffffffffffffffffffffffffff16815260200190815260200160002060009054906101000a900460ff16151514610b2e5760009050610cbf565b6000805b600c60003373ffffffffffffffffffffffffffffffffffffffff1673ffffffffffffffffffffffffffffffffffffffff16815260200190815260200160002080549050811015610c8957610c6984600c60003373ffffffffffffffffffffffffffffffffffffffff1673ffffffffffffffffffffffffffffffffffffffff1681526020019081526020016000208381548110610bd157610bd0612cb3565b5b906000526020600020018054610be690612d11565b80601f0160208091040260200160405190810160405280929190818152602001828054610c1290612d11565b8015610c5f5780601f10610c3457610100808354040283529160200191610c5f565b820191906000526020600020905b815481529060010190602001808311610c4257829003601f168201915b505050505061223d565b91508115610c7657610c89565b8080610c8190612d72565b915050610b32565b5080610c99576000915050610cbf565b600b83604051610ca99190612fd9565b9081526020016040518091039020600201549150505b919050565b600080610cd08361220d565b90503373ffffffffffffffffffffffffffffffffffffffff16610cf3828661107d565b73ffffffffffffffffffffffffffffffffffffffff161491505092915050565b600082600460003373ffffffffffffffffffffffffffffffffffffffff1673ffffffffffffffffffffffffffffffffffffffff16815260200190815260200160002054604051602001610d679291906130b2565b6040516020818303038152906040528051906020012090506000610d8b8383610cc4565b9050600115158115151415610ef757604051602001610da990613126565b604051602081830303815290604052805190602001206001604051602001610dd191906131cf565b604051602081830303815290604052805190602001201415610e28576040517f08c379a0000000000000000000000000000000000000000000000000000000008152600401610e1f90613232565b60405180910390fd5b8360019080519060200190610e3e929190612296565b50612710444243604051602001610e5793929190612f00565b6040516020818303038152906040528051906020012060001c610e7a9190612f6c565b600460003373ffffffffffffffffffffffffffffffffffffffff1673ffffffffffffffffffffffffffffffffffffffff168152602001908152602001600020819055507ff9fbd55454309325ccadd998a641a1dfe7cd888eea26c0ae93b95992a13ac144604051610eea906132c4565b60405180910390a1610f2d565b7ff9fbd55454309325ccadd998a641a1dfe7cd888eea26c0ae93b95992a13ac144604051610f2490613356565b60405180910390a15b7ff9fbd55454309325ccadd998a641a1dfe7cd888eea26c0ae93b95992a13ac1446001604051610f5d91906133f6565b60405180910390a150505050565b8060008190555050565b60005481565b60025481565b6060600582604051610f939190612fd9565b908152602001604051809103902060009054906101000a900460ff161561106557600b82604051610fc49190612fd9565b90815260200160405180910390206003018054610fe090612d11565b80601f016020809104026020016040519081016040528092919081815260200182805461100c90612d11565b80156110595780601f1061102e57610100808354040283529160200191611059565b820191906000526020600020905b81548152906001019060200180831161103c57829003601f168201915b50505050509050611078565b6040518060200160405280600081525090505b919050565b60008060008061108c856113bc565b925092509250600186828585604051600081526020016040526040516110b59493929190613418565b6020604051602081039080840390855afa1580156110d7573d6000803e3d6000fd5b50505060206040510351935050505092915050565b60011515600360003373ffffffffffffffffffffffffffffffffffffffff1673ffffffffffffffffffffffffffffffffffffffff16815260200190815260200160002060009054906101000a900460ff161515141561117f577ff9fbd55454309325ccadd998a641a1dfe7cd888eea26c0ae93b95992a13ac144604051611172906134a9565b60405180910390a161134a565b600060405160200161119090613515565b60405160208183030381529060405280519060200120905060006111b48383610cc4565b905060011515811515141561130c576001600360003373ffffffffffffffffffffffffffffffffffffffff1673ffffffffffffffffffffffffffffffffffffffff16815260200190815260200160002060006101000a81548160ff0219169083151502179055503360066002546005811061123257611231612cb3565b5b0160006101000a81548173ffffffffffffffffffffffffffffffffffffffff021916908373ffffffffffffffffffffffffffffffffffffffff1602179055506002600081548092919061128490612d72565b91905055506127104442436040516020016112a193929190612f00565b6040516020818303038152906040528051906020012060001c6112c49190612f6c565b600460003373ffffffffffffffffffffffffffffffffffffffff1673ffffffffffffffffffffffffffffffffffffffff16815260200190815260200160002081905550611347565b6040517f08c379a000000000000000000000000000000000000000000000000000000000815260040161133e90613576565b60405180910390fd5b50505b50565b80600b8360405161135e9190612fd9565b90815260200160405180910390206003019080519060200190611382929190612296565b507ff9fbd55454309325ccadd998a641a1dfe7cd888eea26c0ae93b95992a13ac1446040516113b0906135e2565b60405180910390a15050565b60008060006041845114611405576040517f08c379a00000000000000000000000000000000000000000000000000000000081526004016113fc9061364e565b60405180910390fd5b6020840151925060408401519150606084015160001a90509193909250565b80600b836040516114359190612fd9565b90815260200160405180910390206004019080519060200190611459929190612296565b507ff9fbd55454309325ccadd998a641a1dfe7cd888eea26c0ae93b95992a13ac144604051611487906136ba565b60405180910390a15050565b600180546114a090612d11565b80601f01602080910402602001604051908101604052809291908181526020018280546114cc90612d11565b80156115195780601f106114ee57610100808354040283529160200191611519565b820191906000526020600020905b8154815290600101906020018083116114fc57829003601f168201915b505050505081565b6060806000600e60003373ffffffffffffffffffffffffffffffffffffffff1673ffffffffffffffffffffffffffffffffffffffff168152602001908152602001600020805490509050600e60003373ffffffffffffffffffffffffffffffffffffffff1673ffffffffffffffffffffffffffffffffffffffff1681526020019081526020016000206001826115b791906136da565b815481106115c8576115c7612cb3565b5b9060005260206000209060030201600001600e60003373ffffffffffffffffffffffffffffffffffffffff1673ffffffffffffffffffffffffffffffffffffffff16815260200190815260200160002060018361162591906136da565b8154811061163657611635612cb3565b5b906000526020600020906003020160020181805461165390612d11565b80601f016020809104026020016040519081016040528092919081815260200182805461167f90612d11565b80156116cc5780601f106116a1576101008083540402835291602001916116cc565b820191906000526020600020905b8154815290600101906020018083116116af57829003601f168201915b505050505091508080546116df90612d11565b80601f016020809104026020016040519081016040528092919081815260200182805461170b90612d11565b80156117585780601f1061172d57610100808354040283529160200191611758565b820191906000526020600020905b81548152906001019060200180831161173b57829003601f168201915b5050505050905092509250509091565b60011515600360003373ffffffffffffffffffffffffffffffffffffffff1673ffffffffffffffffffffffffffffffffffffffff16815260200190815260200160002060009054906101000a900460ff16151514611830577ff9fbd55454309325ccadd998a641a1dfe7cd888eea26c0ae93b95992a13ac1446040516117ed90612c93565b60405180910390a16040517f08c379a000000000000000000000000000000000000000000000000000000000815260040161182790612c93565b60405180910390fd5b6000805b600c60003373ffffffffffffffffffffffffffffffffffffffff1673ffffffffffffffffffffffffffffffffffffffff1681526020019081526020016000208054905081101561198b5761196b84600c60003373ffffffffffffffffffffffffffffffffffffffff1673ffffffffffffffffffffffffffffffffffffffff16815260200190815260200160002083815481106118d3576118d2612cb3565b5b9060005260206000200180546118e890612d11565b80601f016020809104026020016040519081016040528092919081815260200182805461191490612d11565b80156119615780601f1061193657610100808354040283529160200191611961565b820191906000526020600020905b81548152906001019060200180831161194457829003601f168201915b505050505061223d565b915081156119785761198b565b808061198390612d72565b915050611834565b5080611a01577ff9fbd55454309325ccadd998a641a1dfe7cd888eea26c0ae93b95992a13ac1446040516119be90612e2d565b60405180910390a16040517f08c379a00000000000000000000000000000000000000000000000000000000081526004016119f890612ebf565b60405180910390fd5b6000600b84604051611a139190612fd9565b90815260200160405180910390206004018054611a2f90612d11565b80601f0160208091040260200160405190810160405280929190818152602001828054611a5b90612d11565b8015611aa85780601f10611a7d57610100808354040283529160200191611aa8565b820191906000526020600020905b815481529060010190602001808311611a8b57829003601f168201915b50505050509050611ab761231c565b848160000181905250818160200181905250838160400181905250600e6000600b84604051611ae69190612fd9565b908152602001604051809103902060010160009054906101000a900473ffffffffffffffffffffffffffffffffffffffff1673ffffffffffffffffffffffffffffffffffffffff1673ffffffffffffffffffffffffffffffffffffffff1681526020019081526020016000208190806001815401808255809150506001900390600052602060002090600302016000909190919091506000820151816000019080519060200190611b98929190612296565b506020820151816001019080519060200190611bb5929190612296565b506040820151816002019080519060200190611bd2929190612296565b50505060405180602001604052806000815250600b86604051611bf59190612fd9565b90815260200160405180910390206004019080519060200190611c19929190612296565b50600b82604051611c2a9190612fd9565b908152602001604051809103902060010160009054906101000a900473ffffffffffffffffffffffffffffffffffffffff1673ffffffffffffffffffffffffffffffffffffffff167f0d4847e7a0fec04b76bf0bba9d0c9f2673273b35ba00aa7229d254aa01be4b7d83604051611ca19190612924565b60405180910390a25050505050565b600060011515600360003373ffffffffffffffffffffffffffffffffffffffff1673ffffffffffffffffffffffffffffffffffffffff16815260200190815260200160002060009054906101000a900460ff1615151415611d5257600460003373ffffffffffffffffffffffffffffffffffffffff1673ffffffffffffffffffffffffffffffffffffffff168152602001908152602001600020549050611d57565b600090505b90565b60011515600584604051611d6e9190612fd9565b908152602001604051809103902060009054906101000a900460ff1615151415611dcc577ff9fbd55454309325ccadd998a641a1dfe7cd888eea26c0ae93b95992a13ac144604051611dbf9061375a565b60405180910390a16120ec565b60011515600360003373ffffffffffffffffffffffffffffffffffffffff1673ffffffffffffffffffffffffffffffffffffffff16815260200190815260200160002060009054906101000a900460ff16151514611e94577ff9fbd55454309325ccadd998a641a1dfe7cd888eea26c0ae93b95992a13ac144604051611e51906137c6565b60405180910390a16040517f08c379a0000000000000000000000000000000000000000000000000000000008152600401611e8b906137c6565b60405180910390fd5b6001600584604051611ea69190612fd9565b908152602001604051809103902060006101000a81548160ff021916908315150217905550611ed361233d565b82816000018190525033816020019073ffffffffffffffffffffffffffffffffffffffff16908173ffffffffffffffffffffffffffffffffffffffff1681525050612710444243604051602001611f2c93929190612f00565b6040516020818303038152906040528051906020012060001c611f4f9190612f6c565b816040018181525050818160600181905250604051806020016040528060008152508160800181905250600f548160a0018181525050600f6000815480929190611f9890612d72565b919050555080600b85604051611fae9190612fd9565b90815260200160405180910390206000820151816000019080519060200190611fd8929190612296565b5060208201518160010160006101000a81548173ffffffffffffffffffffffffffffffffffffffff021916908373ffffffffffffffffffffffffffffffffffffffff160217905550604082015181600201556060820151816003019080519060200190612046929190612296565b506080820151816004019080519060200190612063929190612296565b5060a08201518160050155905050600c60003373ffffffffffffffffffffffffffffffffffffffff1673ffffffffffffffffffffffffffffffffffffffff168152602001908152602001600020849080600181540180825580915050600190039060005260206000200160009091909190915090805190602001906120e9929190612296565b50505b505050565b600082826040516020016121069291906130b2565b60405160208183030381529060405280519060200120905092915050565b6006816005811061213457600080fd5b016000915054906101000a900473ffffffffffffffffffffffffffffffffffffffff1681565b6060600b8260405161216c9190612fd9565b9081526020016040518091039020600001805461218890612d11565b80601f01602080910402602001604051908101604052809291908181526020018280546121b490612d11565b80156122015780601f106121d657610100808354040283529160200191612201565b820191906000526020600020905b8154815290600101906020018083116121e457829003601f168201915b50505050509050919050565b6000816040516020016122209190613853565b604051602081830303815290604052805190602001209050919050565b6000816040516020016122509190612fd9565b60405160208183030381529060405280519060200120836040516020016122779190612fd9565b6040516020818303038152906040528051906020012014905092915050565b8280546122a290612d11565b90600052602060002090601f0160209004810192826122c4576000855561230b565b82601f106122dd57805160ff191683800117855561230b565b8280016001018555821561230b579182015b8281111561230a5782518255916020019190600101906122ef565b5b5090506123189190612389565b5090565b60405180606001604052806060815260200160608152602001606081525090565b6040518060c0016040528060608152602001600073ffffffffffffffffffffffffffffffffffffffff168152602001600081526020016060815260200160608152602001600081525090565b5b808211156123a257600081600090555060010161238a565b5090565b6000819050919050565b6123b9816123a6565b82525050565b60006020820190506123d460008301846123b0565b92915050565b6000604051905090565b600080fd5b600080fd5b600080fd5b600080fd5b6000601f19601f8301169050919050565b7f4e487b7100000000000000000000000000000000000000000000000000000000600052604160045260246000fd5b612441826123f8565b810181811067ffffffffffffffff821117156124605761245f612409565b5b80604052505050565b60006124736123da565b905061247f8282612438565b919050565b600067ffffffffffffffff82111561249f5761249e612409565b5b6124a8826123f8565b9050602081019050919050565b82818337600083830152505050565b60006124d76124d284612484565b612469565b9050828152602081018484840111156124f3576124f26123f3565b5b6124fe8482856124b5565b509392505050565b600082601f83011261251b5761251a6123ee565b5b813561252b8482602086016124c4565b91505092915050565b60006020828403121561254a576125496123e4565b5b600082013567ffffffffffffffff811115612568576125676123e9565b5b61257484828501612506565b91505092915050565b600073ffffffffffffffffffffffffffffffffffffffff82169050919050565b60006125a88261257d565b9050919050565b6125b88161259d565b81146125c357600080fd5b50565b6000813590506125d5816125af565b92915050565b6000602082840312156125f1576125f06123e4565b5b60006125ff848285016125c6565b91505092915050565b60008115159050919050565b61261d81612608565b82525050565b60006020820190506126386000830184612614565b92915050565b6126478161259d565b82525050565b6000602082019050612662600083018461263e565b92915050565b600081519050919050565b600082825260208201905092915050565b60005b838110156126a2578082015181840152602081019050612687565b838111156126b1576000848401525b50505050565b60006126c282612668565b6126cc8185612673565b93506126dc818560208601612684565b6126e5816123f8565b840191505092915050565b6000604082019050818103600083015261270a81856126b7565b905061271960208301846123b0565b9392505050565b600067ffffffffffffffff82111561273b5761273a612409565b5b612744826123f8565b9050602081019050919050565b600061276461275f84612720565b612469565b9050828152602081018484840111156127805761277f6123f3565b5b61278b8482856124b5565b509392505050565b600082601f8301126127a8576127a76123ee565b5b81356127b8848260208601612751565b91505092915050565b6000819050919050565b6127d4816127c1565b81146127df57600080fd5b50565b6000813590506127f1816127cb565b92915050565b6000806040838503121561280e5761280d6123e4565b5b600083013567ffffffffffffffff81111561282c5761282b6123e9565b5b61283885828601612793565b9250506020612849858286016127e2565b9150509250929050565b6000806040838503121561286a576128696123e4565b5b600083013567ffffffffffffffff811115612888576128876123e9565b5b61289485828601612506565b925050602083013567ffffffffffffffff8111156128b5576128b46123e9565b5b6128c185828601612793565b9150509250929050565b6128d4816123a6565b81146128df57600080fd5b50565b6000813590506128f1816128cb565b92915050565b60006020828403121561290d5761290c6123e4565b5b600061291b848285016128e2565b91505092915050565b6000602082019050818103600083015261293e81846126b7565b905092915050565b6000806040838503121561295d5761295c6123e4565b5b600061296b858286016127e2565b925050602083013567ffffffffffffffff81111561298c5761298b6123e9565b5b61299885828601612793565b9150509250929050565b6000602082840312156129b8576129b76123e4565b5b600082013567ffffffffffffffff8111156129d6576129d56123e9565b5b6129e284828501612793565b91505092915050565b60008060408385031215612a0257612a016123e4565b5b600083013567ffffffffffffffff811115612a2057612a1f6123e9565b5b612a2c85828601612506565b925050602083013567ffffffffffffffff811115612a4d57612a4c6123e9565b5b612a5985828601612506565b9150509250929050565b612a6c816127c1565b82525050565b600060ff82169050919050565b612a8881612a72565b82525050565b6000606082019050612aa36000830186612a63565b612ab06020830185612a63565b612abd6040830184612a7f565b949350505050565b60006040820190508181036000830152612adf81856126b7565b90508181036020830152612af381846126b7565b90509392505050565b600080600060608486031215612b1557612b146123e4565b5b600084013567ffffffffffffffff811115612b3357612b326123e9565b5b612b3f86828701612506565b935050602084013567ffffffffffffffff811115612b6057612b5f6123e9565b5b612b6c86828701612506565b925050604084013567ffffffffffffffff811115612b8d57612b8c6123e9565b5b612b9986828701612506565b9150509250925092565b60008060408385031215612bba57612bb96123e4565b5b600083013567ffffffffffffffff811115612bd857612bd76123e9565b5b612be485828601612506565b9250506020612bf5858286016128e2565b9150509250929050565b6000602082019050612c146000830184612a63565b92915050565b600060208284031215612c3057612c2f6123e4565b5b6000612c3e848285016127e2565b91505092915050565b7f47617465776179206e6f7420726567697374657265642e2e2e00000000000000600082015250565b6000612c7d601983612673565b9150612c8882612c47565b602082019050919050565b60006020820190508181036000830152612cac81612c70565b9050919050565b7f4e487b7100000000000000000000000000000000000000000000000000000000600052603260045260246000fd5b7f4e487b7100000000000000000000000000000000000000000000000000000000600052602260045260246000fd5b60006002820490506001821680612d2957607f821691505b60208210811415612d3d57612d3c612ce2565b5b50919050565b7f4e487b7100000000000000000000000000000000000000000000000000000000600052601160045260246000fd5b6000612d7d826123a6565b91507fffffffffffffffffffffffffffffffffffffffffffffffffffffffffffffffff821415612db057612daf612d43565b5b600182019050919050565b7f446576696365206e6f74206173736f636961746564207769746820746869732060008201527f676174657761792e2e2e2e000000000000000000000000000000000000000000602082015250565b6000612e17602b83612673565b9150612e2282612dbb565b604082019050919050565b60006020820190508181036000830152612e4681612e0a565b9050919050565b7f446576696365206e6f74206173736f636961746564207769746820746869732060008201527f676174657761792e2e2e00000000000000000000000000000000000000000000602082015250565b6000612ea9602a83612673565b9150612eb482612e4d565b604082019050919050565b60006020820190508181036000830152612ed881612e9c565b9050919050565b6000819050919050565b612efa612ef5826123a6565b612edf565b82525050565b6000612f0c8286612ee9565b602082019150612f1c8285612ee9565b602082019150612f2c8284612ee9565b602082019150819050949350505050565b7f4e487b7100000000000000000000000000000000000000000000000000000000600052601260045260246000fd5b6000612f77826123a6565b9150612f82836123a6565b925082612f9257612f91612f3d565b5b828206905092915050565b600081905092915050565b6000612fb382612668565b612fbd8185612f9d565b9350612fcd818560208601612684565b80840191505092915050565b6000612fe58284612fa8565b915081905092915050565b7f4e6f6e6365207375636365737366756c6c7920757064617465642e2e2e000000600082015250565b6000613026601d83612673565b915061303182612ff0565b602082019050919050565b6000602082019050818103600083015261305581613019565b9050919050565b6000613067826123a6565b9150613072836123a6565b9250827fffffffffffffffffffffffffffffffffffffffffffffffffffffffffffffffff038211156130a7576130a6612d43565b5b828201905092915050565b60006130be8285612fa8565b91506130ca8284612ee9565b6020820191508190509392505050565b7f796f000000000000000000000000000000000000000000000000000000000000600082015250565b6000613110600283612f9d565b915061311b826130da565b600282019050919050565b600061313182613103565b9150819050919050565b60008190508160005260206000209050919050565b6000815461315d81612d11565b6131678186612f9d565b945060018216600081146131825760018114613193576131c6565b60ff198316865281860193506131c6565b61319c8561313b565b60005b838110156131be5781548189015260018201915060208101905061319f565b838801955050505b50505092915050565b60006131db8284613150565b915081905092915050565b7f596179792c206572726f72206f63757272656400000000000000000000000000600082015250565b600061321c601383612673565b9150613227826131e6565b602082019050919050565b6000602082019050818103600083015261324b8161320f565b9050919050565b7f566572696669636174696f6e2073756363657373202d20537472696e6720757060008201527f6461746564000000000000000000000000000000000000000000000000000000602082015250565b60006132ae602583612673565b91506132b982613252565b604082019050919050565b600060208201905081810360008301526132dd816132a1565b9050919050565b7f566572696669636174696f6e206661696c6564202d20537472696e67206e6f7460008201527f2075706461746564000000000000000000000000000000000000000000000000602082015250565b6000613340602883612673565b915061334b826132e4565b604082019050919050565b6000602082019050818103600083015261336f81613333565b9050919050565b6000815461338381612d11565b61338d8186612673565b945060018216600081146133a857600181146133ba576133ed565b60ff19831686526020860193506133ed565b6133c38561313b565b60005b838110156133e5578154818901526001820191506020810190506133c6565b808801955050505b50505092915050565b600060208201905081810360008301526134108184613376565b905092915050565b600060808201905061342d6000830187612a63565b61343a6020830186612a7f565b6134476040830185612a63565b6134546060830184612a63565b95945050505050565b7f416c726561647920726567697374657265642e2e2e0000000000000000000000600082015250565b6000613493601583612673565b915061349e8261345d565b602082019050919050565b600060208201905081810360008301526134c281613486565b9050919050565b7f5265676973746572000000000000000000000000000000000000000000000000600082015250565b60006134ff600883612f9d565b915061350a826134c9565b600882019050919050565b6000613520826134f2565b9150819050919050565b7f526567697374726174696f6e206661696c65642e2e2e00000000000000000000600082015250565b6000613560601683612673565b915061356b8261352a565b602082019050919050565b6000602082019050818103600083015261358f81613553565b9050919050565b7f54696d657374616d7020757064617465642e2e2e000000000000000000000000600082015250565b60006135cc601483612673565b91506135d782613596565b602082019050919050565b600060208201905081810360008301526135fb816135bf565b9050919050565b7f696e76616c6964207369676e6174757265206c656e6774680000000000000000600082015250565b6000613638601883612673565b915061364382613602565b602082019050919050565b600060208201905081810360008301526136678161362b565b9050919050565b7f526563697069656e7420757064617465642e2e2e000000000000000000000000600082015250565b60006136a4601483612673565b91506136af8261366e565b602082019050919050565b600060208201905081810360008301526136d381613697565b9050919050565b60006136e5826123a6565b91506136f0836123a6565b92508282101561370357613702612d43565b5b828203905092915050565b7f44657669636520616c726561647920726567697374657265642e2e2e00000000600082015250565b6000613744601c83612673565b915061374f8261370e565b602082019050919050565b6000602082019050818103600083015261377381613737565b9050919050565b7f47617465776179206e6f74207265676973746572656400000000000000000000600082015250565b60006137b0601683612673565b91506137bb8261377a565b602082019050919050565b600060208201905081810360008301526137df816137a3565b9050919050565b7f19457468657265756d205369676e6564204d6573736167653a0a333200000000600082015250565b600061381c601c83612f9d565b9150613827826137e6565b601c82019050919050565b6000819050919050565b61384d613848826127c1565b613832565b82525050565b600061385e8261380f565b915061386a828461383c565b6020820191508190509291505056fea264697066735822122001b0cb7f027c58e9df0204fadef5c9932cdf9d6cf6975f076c88ac7b8d9185c064736f6c634300080a0033",
  "immutableReferences": {},
  "source": "// SPDX-License-Identifier: .\r\npragma solidity ^0.8.10;\r\n\r\ncontract Sample {\r\n    ///Blockchain state variables.\r\n\r\n    /* 'number' and 'str' are test variables */\r\n    uint public number = 10;\r\n    string public str = \"Hello\";\r\n    uint public t=0;\r\n    // 'reg' is mapping which stores whether a gateway has registered or not.\r\n    mapping(address => bool) reg;\r\n    // 'nonces' is a mapping which stores nonces for each registered gateway and changes with transaction.\r\n    mapping(address => uint) nonces;\r\n    //This mapping stores whether the dev has been registered or not.\r\n    mapping(string => bool) dev_reg;\r\n\r\n    //This structure contains the device information.\r\n    struct Device {\r\n        string pubKey;\r\n        address gate;\r\n        uint nonce;\r\n        string TS;\r\n        string recvId;\r\n        uint id;\r\n    }\r\n     \r\n    address[5] public lbrids;\r\n    //Maps from the device id to device information which is contained in 'Device' struct.\r\n    mapping(string => Device) dev_info;\r\n    \r\n    mapping(address => string[]) gate_dev;\r\n    mapping(address => string[]) gate_agg;\r\n\r\n    //The messsages associated with the lbr are stored in this data structure.\r\n    struct Message {\r\n        string from;\r\n        string to;\r\n        string msg_str;\r\n    }    \r\n    mapping(address => Message[]) msgs;\r\n\r\n    //Test event to listen to in the script.\r\n    event test(string _str);  \r\n    \r\n    //This is the event which the gateway listens for any notification of messages.\r\n    event receive_message(address indexed gateway, string devId);\r\n\r\n    //Utility function\r\n    function str_cmp(string memory _a, string memory _b) internal pure returns(bool fl){\r\n        return keccak256(abi.encodePacked(_a)) == keccak256(abi.encodePacked(_b));\r\n    }      \r\n\r\n    /*The below 3 functions are test functions.*/\r\n\r\n\r\n    //Multiple value return.\r\n    function without_parameters() public view returns (string memory str1, uint num1) {\r\n            return (str, number);\r\n    }\r\n\r\n    //Directly update the number by 'n'.\r\n    function update(uint _n) public {\r\n            number = _n;            \r\n    } \r\n\r\n    //Test transaction to check working with signature.\r\n    function update_string(string memory _str, bytes memory signature) public {\r\n        \r\n        bytes32 messageHash = keccak256(abi.encodePacked(_str, nonces[msg.sender]));\r\n        bool status = verify(signature, messageHash);\r\n        if(status == true)\r\n        {\r\n            if(keccak256(abi.encodePacked(str)) == keccak256(abi.encodePacked(\"yo\")))\r\n            revert(\"Yayy, error ocurred\");\r\n            str = _str;\r\n            nonces[msg.sender] = uint(keccak256(abi.encodePacked(block.difficulty, block.timestamp, block.number)))%10000;\r\n            emit test(\"Verification success - String updated\");\r\n        }\r\n        else\r\n            emit test(\"Verification failed - String not updated\");\r\n\r\n        emit test(str);\r\n    }       \r\n   \r\n\r\n    //Function to retrieve nonce.\r\n    function getNonce() public view returns(uint nonce) {\r\n        if(reg[msg.sender] == true)\r\n            return nonces[msg.sender];\r\n        else\r\n            return 0;\r\n    }\r\n    //device authentication\r\n    \r\n\r\n    \r\n    function register_gateway(bytes memory signature) public {\r\n        \r\n        if(reg[msg.sender] == true)\r\n            emit test(\"Already registered...\");\r\n        else{\r\n            bytes32 messageHash = keccak256(abi.encodePacked('Register'));\r\n            bool status = verify(signature, messageHash);\r\n            if(status == true)\r\n            {\r\n                //That means the signature has been verified.\r\n                reg[msg.sender] = true;\r\n                lbrids[t]=msg.sender;\r\n                t++;\r\n                nonces[msg.sender] = uint(keccak256(abi.encodePacked(block.difficulty, block.timestamp, block.number)))%10000;\r\n            }        \r\n            else\r\n            {\r\n                revert(\"Registration failed...\");\r\n            }\r\n        }\r\n    }\r\n    uint public count=8080;\r\n    function register_device(string memory _devId, string memory _pub, string memory _TS) public {\r\n        \r\n        if(dev_reg[_devId] == true)\r\n            emit test(\"Device already registered...\");\r\n\r\n        else if(reg[msg.sender] != true){\r\n            emit test(\"Gateway not registered\");\r\n            revert(\"Gateway not registered\");\r\n        }\r\n        else{                        \r\n            //Since the status has been verified, things to do are:\r\n            //1. Mark the device as registered.\r\n            dev_reg[_devId] = true;\r\n            \r\n            //2. Create a new struct with the information.\r\n            Device memory dev;\r\n            dev.pubKey = _pub;\r\n            dev.gate = msg.sender;\r\n            dev.nonce = uint(keccak256(abi.encodePacked(block.difficulty, block.timestamp, block.number)))%10000;\r\n            dev.TS = _TS;\r\n            dev.recvId = \"\";\r\n            dev.id=count;\r\n            count++;\r\n            //3. Map the device id to the created struct.\r\n            dev_info[_devId] = dev;\r\n\r\n            //4. Also add the device id to the list of devices under the associated gateway.  \r\n            gate_dev[msg.sender].push(_devId);                                  \r\n        }\r\n    }\r\n\r\n    //Function to check whether device has been registered or not. If yes, returns the timestamp of the last request.\r\n    function check_device(string memory _devId) public view returns(string memory){                \r\n        if (dev_reg[_devId])\r\n            return dev_info[_devId].TS;\r\n        else\r\n            return \"\";\r\n    }\r\n\r\n    function update_timestamp(string memory _devId, string memory _TS) public {\r\n        dev_info[_devId].TS = _TS;\r\n        emit test(\"Timestamp updated...\");\r\n    }\r\n    function verifyroute(address lbrid) public view returns(bool){\r\n        return reg[lbrid];\r\n    } \r\n    struct info{\r\n        string pubKey;\r\n        address lbrinfo;\r\n    }\r\n    function get_device_key(string memory _devId) public view returns(string memory){                \r\n        return dev_info[_devId].pubKey;\r\n    }\r\n    function get_device_gateway(string memory _devId) public view returns(address){ \r\n        return dev_info[_devId].gate;\r\n        \r\n    }\r\n    function get_lbr_id(address gate) public view returns(uint){\r\n        uint i=0;\r\n        for(i=0;i<=4;i++){\r\n            if(lbrids[i]==gate){\r\n                return i+8080;\r\n            }\r\n        }\r\n        return 0;\r\n    }\r\n    function addressToString(address _addr) internal pure returns (string memory) {\r\n        bytes32 value = bytes32(uint256(uint160(_addr)));\r\n        bytes memory alphabet = \"0123456789abcdef\";\r\n        bytes memory str2 = new bytes(42);\r\n        str2[0] = '0';\r\n        str2[2] = 'x';\r\n        for(uint i=0; i< 20; i++) {\r\n            str2[2+i*2] = alphabet[uint(uint8(value[i+12] >> 4))];\r\n            str2[3+i*2] = alphabet[uint(uint8(value[i+12] & 0x0f))];\r\n        }\r\n        return string(str2);\r\n    }\r\n\r\n    function update_recipient(string memory _devId, string memory _recvId) public {\r\n        dev_info[_devId].recvId = _recvId;\r\n        emit test(\"Recipient updated...\");\r\n    }\r\n    //function to return lbrid for the device specified\r\n   \r\n        \r\n\r\n    \r\n    function communicate(string memory _devId, string memory _msg) public {\r\n        \r\n        if(reg[msg.sender] != true)\r\n        {\r\n            emit test(\"Gateway not registered...\");\r\n            revert(\"Gateway not registered...\");\r\n        }\r\n        \r\n        bool fl = false;\r\n        for(uint i=0;i<gate_dev[msg.sender].length;i++)\r\n        {\r\n            fl = str_cmp(_devId, gate_dev[msg.sender][i]);\r\n            if(fl)\r\n                break;\r\n        }\r\n\r\n        if(!fl)\r\n        {\r\n            emit test(\"Device not associated with this gateway....\");\r\n            revert(\"Device not associated with this gateway...\");\r\n        }\r\n\r\n        string memory _recvId = dev_info[_devId].recvId;\r\n        //Now add the message under this gateway and emit the event.\r\n        Message memory message;\r\n        message.from = _devId;\r\n        message.to = _recvId;\r\n        message.msg_str = _msg;\r\n\r\n        //Add to the list of messages for the gateway.\r\n        msgs[dev_info[_recvId].gate].push(message);\r\n\r\n        //Clear the recipient id under the dev_info.\r\n        dev_info[_devId].recvId = \"\";\r\n\r\n        emit receive_message(dev_info[_recvId].gate, _recvId);\r\n    }\r\n\r\n    function getMessage() public view returns (string memory from, string memory _str){\r\n        \r\n        uint n = msgs[msg.sender].length;\r\n        return (msgs[msg.sender][n-1].from, msgs[msg.sender][n-1].msg_str);\r\n    }\r\n\r\n\r\n    //The gateway updates the nonce of the device after every authentication attempt.\r\n    function update_device_nonce(string memory _devId) public {\r\n        //Check whether the gateway is registered.\r\n        //Also check whether the device is under this gateway.\r\n        if(reg[msg.sender] != true)\r\n        {\r\n            emit test(\"Gateway not registered...\");\r\n            revert(\"Gateway not registered...\");\r\n        }\r\n        \r\n        bool fl = false;\r\n        for(uint i=0;i<gate_dev[msg.sender].length;i++)\r\n        {\r\n            fl = str_cmp(_devId, gate_dev[msg.sender][i]);\r\n            if(fl)\r\n                break;\r\n        }\r\n\r\n        if(!fl)\r\n        {\r\n            emit test(\"Device not associated with this gateway....\");\r\n            revert(\"Device not associated with this gateway...\");\r\n        }    \r\n        \r\n        //Add a nonce for the device here.\r\n        dev_info[_devId].nonce = uint(keccak256(abi.encodePacked(block.difficulty, block.timestamp, block.number)))%10000;   \r\n        emit test(\"Nonce successfully updated...\");\r\n    }\r\n    \r\n\r\n    function get_device_nonce(string memory _devId) public view returns(uint nonce){\r\n        //Check whether the gateway is registered.\r\n        //Also check whether the device is under this gateway.\r\n        if(reg[msg.sender] != true)                   \r\n            return 0;                    \r\n        \r\n        bool fl = false;\r\n        for(uint i=0;i<gate_dev[msg.sender].length;i++)\r\n        {\r\n            fl = str_cmp(_devId, gate_dev[msg.sender][i]);\r\n            if(fl)\r\n                break;\r\n        }\r\n\r\n        if(!fl)                    \r\n            return 0;           \r\n        \r\n        //Return nonce for the device here.\r\n        return dev_info[_devId].nonce;               \r\n    }\r\n    \r\n\r\n\r\n\r\n\r\n    function verify(\r\n        bytes memory signature,\r\n        bytes32 messageHash        \r\n    ) public view returns (bool) {        \r\n        bytes32 ethSignedMessageHash = getEthSignedMessageHash(messageHash);\r\n\r\n        return recoverSigner(ethSignedMessageHash, signature) == msg.sender;\r\n    }\r\n\r\n    function getMessageHash(        \r\n        string memory _message ,\r\n        uint _nonce       \r\n    ) public pure returns (bytes32) {\r\n        return keccak256(abi.encodePacked(_message, _nonce));\r\n    }\r\n\r\n    function getEthSignedMessageHash(bytes32 _messageHash)\r\n        public\r\n        pure\r\n        returns (bytes32)\r\n    {\r\n        /*\r\n        Signature is produced by signing a keccak256 hash with the following format:\r\n        \"\\x19Ethereum Signed Message\\n\" + len(msg) + msg\r\n        */\r\n        return\r\n            keccak256(\r\n                abi.encodePacked(\"\\x19Ethereum Signed Message:\\n32\", _messageHash)\r\n            );\r\n    }\r\n\r\n    function recoverSigner(bytes32 _ethSignedMessageHash, bytes memory _signature)\r\n        public\r\n        pure\r\n        returns (address)\r\n    {\r\n        (bytes32 r, bytes32 s, uint8 v) = splitSignature(_signature);\r\n\r\n        return ecrecover(_ethSignedMessageHash, v, r, s);\r\n    }\r\n\r\n    function splitSignature(bytes memory sig)\r\n        public\r\n        pure\r\n        returns (\r\n            bytes32 r,\r\n            bytes32 s,\r\n            uint8 v\r\n        )\r\n    {\r\n        require(sig.length == 65, \"invalid signature length\");\r\n\r\n        assembly {\r\n            /*\r\n            First 32 bytes stores the length of the signature\r\n\r\n            add(sig, 32) = pointer of sig + 32\r\n            effectively, skips first 32 bytes of signature\r\n\r\n            mload(p) loads next 32 bytes starting at the memory address p into memory\r\n            */\r\n\r\n            // first 32 bytes, after the length prefix\r\n            r := mload(add(sig, 32))\r\n            // second 32 bytes\r\n            s := mload(add(sig, 64))\r\n            // final byte (first byte of the next 32 bytes)\r\n            v := byte(0, mload(add(sig, 96)))\r\n        }\r\n\r\n        // implicitly return (r, s, v)\r\n    }\r\n}",
  "sourcePath": "C:\\Users\\abhi\\Desktop\\etherium\\endproject\\BorderRouters\\contracts\\Sample.sol",
  "compiler": {
    "name": "solc",
    "version": "0.8.10+commit.fc410830.Emscripten.clang"
  },
  "schemaVersion": "3.4.11",
  "updatedAt": "2023-04-24T08:40:50.150Z",
  "devdoc": {
    "kind": "dev",
    "methods": {},
    "version": 1
  },
  "userdoc": {
    "kind": "user",
    "methods": {
      "number()": {
        "notice": "Blockchain state variables."
      }
    },
    "version": 1
  }
}