{
  "contractName": "Sample",
  "abi": [
    {
      "anonymous": false,
      "inputs": [
        {
          "indexed": true,
          "internalType": "address",
          "name": "gateway",
          "type": "address"
        },
        {
          "indexed": false,
          "internalType": "string",
          "name": "devId",
          "type": "string"
        }
      ],
      "name": "receive_message",
      "type": "event"
    },
    {
      "anonymous": false,
      "inputs": [
        {
          "indexed": false,
          "internalType": "string",
          "name": "_str",
          "type": "string"
        }
      ],
      "name": "test",
      "type": "event"
    },
    {
      "inputs": [],
      "name": "count",
      "outputs": [
        {
          "internalType": "uint256",
          "name": "",
          "type": "uint256"
        }
      ],
      "stateMutability": "view",
      "type": "function",
      "constant": true
    },
    {
      "inputs": [
        {
          "internalType": "uint256",
          "name": "",
          "type": "uint256"
        }
      ],
      "name": "lbrids",
      "outputs": [
        {
          "internalType": "address",
          "name": "",
          "type": "address"
        }
      ],
      "stateMutability": "view",
      "type": "function",
      "constant": true
    },
    {
      "inputs": [],
      "name": "number",
      "outputs": [
        {
          "internalType": "uint256",
          "name": "",
          "type": "uint256"
        }
      ],
      "stateMutability": "view",
      "type": "function",
      "constant": true
    },
    {
      "inputs": [],
      "name": "str",
      "outputs": [
        {
          "internalType": "string",
          "name": "",
          "type": "string"
        }
      ],
      "stateMutability": "view",
      "type": "function",
      "constant": true
    },
    {
      "inputs": [],
      "name": "t",
      "outputs": [
        {
          "internalType": "uint256",
          "name": "",
          "type": "uint256"
        }
      ],
      "stateMutability": "view",
      "type": "function",
      "constant": true
    },
    {
      "inputs": [],
      "name": "without_parameters",
      "outputs": [
        {
          "internalType": "string",
          "name": "str1",
          "type": "string"
        },
        {
          "internalType": "uint256",
          "name": "num1",
          "type": "uint256"
        }
      ],
      "stateMutability": "view",
      "type": "function",
      "constant": true
    },
    {
      "inputs": [
        {
          "internalType": "uint256",
          "name": "_n",
          "type": "uint256"
        }
      ],
      "name": "update",
      "outputs": [],
      "stateMutability": "nonpayable",
      "type": "function"
    },
    {
      "inputs": [
        {
          "internalType": "string",
          "name": "_str",
          "type": "string"
        },
        {
          "internalType": "bytes",
          "name": "signature",
          "type": "bytes"
        }
      ],
      "name": "update_string",
      "outputs": [],
      "stateMutability": "nonpayable",
      "type": "function"
    },
    {
      "inputs": [],
      "name": "getNonce",
      "outputs": [
        {
          "internalType": "uint256",
          "name": "nonce",
          "type": "uint256"
        }
      ],
      "stateMutability": "view",
      "type": "function",
      "constant": true
    },
    {
      "inputs": [
        {
          "internalType": "bytes",
          "name": "signature",
          "type": "bytes"
        }
      ],
      "name": "register_gateway",
      "outputs": [],
      "stateMutability": "nonpayable",
      "type": "function"
    },
    {
      "inputs": [
        {
          "internalType": "string",
          "name": "_devId",
          "type": "string"
        },
        {
          "internalType": "string",
          "name": "_pub",
          "type": "string"
        },
        {
          "internalType": "string",
          "name": "_TS",
          "type": "string"
        }
      ],
      "name": "register_device",
      "outputs": [],
      "stateMutability": "nonpayable",
      "type": "function"
    },
    {
      "inputs": [
        {
          "internalType": "string",
          "name": "_devId",
          "type": "string"
        }
      ],
      "name": "check_device",
      "outputs": [
        {
          "internalType": "string",
          "name": "",
          "type": "string"
        }
      ],
      "stateMutability": "view",
      "type": "function",
      "constant": true
    },
    {
      "inputs": [
        {
          "internalType": "address",
          "name": "lbrid",
          "type": "address"
        }
      ],
      "name": "check_lbr",
      "outputs": [
        {
          "internalType": "uint256",
          "name": "",
          "type": "uint256"
        }
      ],
      "stateMutability": "view",
      "type": "function",
      "constant": true
    },
    {
      "inputs": [
        {
          "internalType": "string",
          "name": "_devId",
          "type": "string"
        },
        {
          "internalType": "string",
          "name": "_TS",
          "type": "string"
        }
      ],
      "name": "update_timestamp",
      "outputs": [],
      "stateMutability": "nonpayable",
      "type": "function"
    },
    {
      "inputs": [
        {
          "internalType": "address",
          "name": "lbrid",
          "type": "address"
        }
      ],
      "name": "verifyroute",
      "outputs": [
        {
          "internalType": "bool",
          "name": "",
          "type": "bool"
        }
      ],
      "stateMutability": "view",
      "type": "function",
      "constant": true
    },
    {
      "inputs": [
        {
          "internalType": "string",
          "name": "_devId",
          "type": "string"
        }
      ],
      "name": "get_device_key",
      "outputs": [
        {
          "internalType": "string",
          "name": "",
          "type": "string"
        }
      ],
      "stateMutability": "view",
      "type": "function",
      "constant": true
    },
    {
      "inputs": [
        {
          "internalType": "string",
          "name": "_devId",
          "type": "string"
        }
      ],
      "name": "get_device_gateway",
      "outputs": [
        {
          "internalType": "address",
          "name": "",
          "type": "address"
        }
      ],
      "stateMutability": "view",
      "type": "function",
      "constant": true
    },
    {
      "inputs": [
        {
          "internalType": "address",
          "name": "gate",
          "type": "address"
        }
      ],
      "name": "get_lbr_id",
      "outputs": [
        {
          "internalType": "uint256",
          "name": "",
          "type": "uint256"
        }
      ],
      "stateMutability": "view",
      "type": "function",
      "constant": true
    },
    {
      "inputs": [
        {
          "internalType": "string",
          "name": "_devId",
          "type": "string"
        },
        {
          "internalType": "string",
          "name": "_recvId",
          "type": "string"
        }
      ],
      "name": "update_recipient",
      "outputs": [],
      "stateMutability": "nonpayable",
      "type": "function"
    },
    {
      "inputs": [
        {
          "internalType": "string",
          "name": "_devId",
          "type": "string"
        },
        {
          "internalType": "string",
          "name": "_msg",
          "type": "string"
        }
      ],
      "name": "communicate",
      "outputs": [],
      "stateMutability": "nonpayable",
      "type": "function"
    },
    {
      "inputs": [],
      "name": "getMessage",
      "outputs": [
        {
          "internalType": "string",
          "name": "from",
          "type": "string"
        },
        {
          "internalType": "string",
          "name": "_str",
          "type": "string"
        }
      ],
      "stateMutability": "view",
      "type": "function",
      "constant": true
    },
    {
      "inputs": [
        {
          "internalType": "string",
          "name": "_devId",
          "type": "string"
        }
      ],
      "name": "update_device_nonce",
      "outputs": [],
      "stateMutability": "nonpayable",
      "type": "function"
    },
    {
      "inputs": [
        {
          "internalType": "string",
          "name": "_devId",
          "type": "string"
        }
      ],
      "name": "get_device_nonce",
      "outputs": [
        {
          "internalType": "uint256",
          "name": "nonce",
          "type": "uint256"
        }
      ],
      "stateMutability": "view",
      "type": "function",
      "constant": true
    },
    {
      "inputs": [
        {
          "internalType": "bytes",
          "name": "signature",
          "type": "bytes"
        },
        {
          "internalType": "bytes32",
          "name": "messageHash",
          "type": "bytes32"
        }
      ],
      "name": "verify",
      "outputs": [
        {
          "internalType": "bool",
          "name": "",
          "type": "bool"
        }
      ],
      "stateMutability": "view",
      "type": "function",
      "constant": true
    },
    {
      "inputs": [
        {
          "internalType": "string",
          "name": "_message",
          "type": "string"
        },
        {
          "internalType": "uint256",
          "name": "_nonce",
          "type": "uint256"
        }
      ],
      "name": "getMessageHash",
      "outputs": [
        {
          "internalType": "bytes32",
          "name": "",
          "type": "bytes32"
        }
      ],
      "stateMutability": "pure",
      "type": "function",
      "constant": true
    },
    {
      "inputs": [
        {
          "internalType": "bytes32",
          "name": "_messageHash",
          "type": "bytes32"
        }
      ],
      "name": "getEthSignedMessageHash",
      "outputs": [
        {
          "internalType": "bytes32",
          "name": "",
          "type": "bytes32"
        }
      ],
      "stateMutability": "pure",
      "type": "function",
      "constant": true
    },
    {
      "inputs": [
        {
          "internalType": "bytes32",
          "name": "_ethSignedMessageHash",
          "type": "bytes32"
        },
        {
          "internalType": "bytes",
          "name": "_signature",
          "type": "bytes"
        }
      ],
      "name": "recoverSigner",
      "outputs": [
        {
          "internalType": "address",
          "name": "",
          "type": "address"
        }
      ],
      "stateMutability": "pure",
      "type": "function",
      "constant": true
    },
    {
      "inputs": [
        {
          "internalType": "bytes",
          "name": "sig",
          "type": "bytes"
        }
      ],
      "name": "splitSignature",
      "outputs": [
        {
          "internalType": "bytes32",
          "name": "r",
          "type": "bytes32"
        },
        {
          "internalType": "bytes32",
          "name": "s",
          "type": "bytes32"
        },
        {
          "internalType": "uint8",
          "name": "v",
          "type": "uint8"
        }
      ],
      "stateMutability": "pure",
      "type": "function",
      "constant": true
    }
  ],
  "bytecode": "0x6080604052600a6000556040518060400160405280600581526020017f48656c6c6f000000000000000000000000000000000000000000000000000000815250600190805190602001906200005692919062000076565b506000600255611f90600f553480156200006f57600080fd5b506200018b565b828054620000849062000155565b90600052602060002090601f016020900481019282620000a85760008555620000f4565b82601f10620000c357805160ff1916838001178555620000f4565b82800160010185558215620000f4579182015b82811115620000f3578251825591602001919060010190620000d6565b5b50905062000103919062000107565b5090565b5b808211156200012257600081600090555060010162000108565b5090565b7f4e487b7100000000000000000000000000000000000000000000000000000000600052602260045260246000fd5b600060028204905060018216806200016e57607f821691505b6020821081141562000185576200018462000126565b5b50919050565b613961806200019b6000396000f3fe608060405234801561001057600080fd5b50600436106101c45760003560e01c806397aba7f9116100f9578063d075b7bf11610097578063d4aa691611610071578063d4aa69161461052f578063e4a6d9141461055f578063e594d0f11461058f578063fa540801146105bf576101c4565b8063d075b7bf146104d9578063d087d288146104f5578063d38fe63614610513576101c4565b8063a7bb5803116100d3578063a7bb58031461044e578063a9eb410114610480578063c15bae841461049c578063ce6d41de146104ba576101c4565b806397aba7f9146103e6578063a0c265f814610416578063a6bf902814610432576101c4565b806364e5ad561161016657806382ab890a1161014057806382ab890a1461035e5780638381f58a1461037a57806392d0d1531461039857806393c7a68b146103b6576101c4565b806364e5ad56146102e25780636b406341146103125780637737879f14610342576101c4565b8063225ef760116101a2578063225ef7601461023357806338ead8e8146102635780634ea36e32146102935780635b72ae05146102b2576101c4565b806306661abd146101c9578063119559dc146101e7578063187160b414610203575b600080fd5b6101d16105ef565b6040516101de9190612471565b60405180910390f35b61020160048036038101906101fc91906125e6565b6105f5565b005b61021d6004803603810190610218919061268d565b610927565b60405161022a91906126d5565b60405180910390f35b61024d6004803603810190610248919061268d565b61097d565b60405161025a9190612471565b60405180910390f35b61027d600480360381019061027891906125e6565b610a2e565b60405161028a91906126ff565b60405180910390f35b61029b610a79565b6040516102a99291906127a2565b60405180910390f35b6102cc60048036038101906102c791906125e6565b610b16565b6040516102d99190612471565b60405180910390f35b6102fc60048036038101906102f7919061268d565b610d0f565b6040516103099190612471565b60405180910390f35b61032c600480360381019061032791906128a9565b610d76565b60405161033991906126d5565b60405180910390f35b61035c60048036038101906103579190612905565b610dc5565b005b610378600480360381019061037391906129a9565b61101d565b005b610382611027565b60405161038f9190612471565b60405180910390f35b6103a061102d565b6040516103ad9190612471565b60405180910390f35b6103d060048036038101906103cb91906125e6565b611033565b6040516103dd91906129d6565b60405180910390f35b61040060048036038101906103fb91906129f8565b61112f565b60405161040d91906126ff565b60405180910390f35b610430600480360381019061042b9190612a54565b61119e565b005b61044c60048036038101906104479190612a9d565b6113ff565b005b61046860048036038101906104639190612a54565b61146e565b60405161047793929190612b40565b60405180910390f35b61049a60048036038101906104959190612a9d565b6114d6565b005b6104a4611545565b6040516104b191906129d6565b60405180910390f35b6104c26115d3565b6040516104d0929190612b77565b60405180910390f35b6104f360048036038101906104ee9190612a9d565b61181a565b005b6104fd611d62565b60405161050a9190612471565b60405180910390f35b61052d60048036038101906105289190612bae565b611e0c565b005b61054960048036038101906105449190612c55565b6121a3565b6040516105569190612cb1565b60405180910390f35b610579600480360381019061057491906129a9565b6121d6565b60405161058691906126ff565b60405180910390f35b6105a960048036038101906105a491906125e6565b61220c565b6040516105b691906129d6565b60405180910390f35b6105d960048036038101906105d49190612ccc565b6122bf565b6040516105e69190612cb1565b60405180910390f35b600f5481565b60011515600360003373ffffffffffffffffffffffffffffffffffffffff1673ffffffffffffffffffffffffffffffffffffffff16815260200190815260200160002060009054906101000a900460ff161515146106bd577ff9fbd55454309325ccadd998a641a1dfe7cd888eea26c0ae93b95992a13ac14460405161067a90612d45565b60405180910390a16040517f08c379a00000000000000000000000000000000000000000000000000000000081526004016106b490612d45565b60405180910390fd5b6000805b600c60003373ffffffffffffffffffffffffffffffffffffffff1673ffffffffffffffffffffffffffffffffffffffff16815260200190815260200160002080549050811015610818576107f883600c60003373ffffffffffffffffffffffffffffffffffffffff1673ffffffffffffffffffffffffffffffffffffffff16815260200190815260200160002083815481106107605761075f612d65565b5b90600052602060002001805461077590612dc3565b80601f01602080910402602001604051908101604052809291908181526020018280546107a190612dc3565b80156107ee5780601f106107c3576101008083540402835291602001916107ee565b820191906000526020600020905b8154815290600101906020018083116107d157829003601f168201915b50505050506122ef565b9150811561080557610818565b808061081090612e24565b9150506106c1565b508061088e577ff9fbd55454309325ccadd998a641a1dfe7cd888eea26c0ae93b95992a13ac14460405161084b90612edf565b60405180910390a16040517f08c379a000000000000000000000000000000000000000000000000000000000815260040161088590612f71565b60405180910390fd5b6127104442436040516020016108a693929190612fb2565b6040516020818303038152906040528051906020012060001c6108c9919061301e565b600b836040516108d9919061308b565b9081526020016040518091039020600201819055507ff9fbd55454309325ccadd998a641a1dfe7cd888eea26c0ae93b95992a13ac14460405161091b906130ee565b60405180910390a15050565b6000600360008373ffffffffffffffffffffffffffffffffffffffff1673ffffffffffffffffffffffffffffffffffffffff16815260200190815260200160002060009054906101000a900460ff169050919050565b60008060009050600090505b60048111610a23578273ffffffffffffffffffffffffffffffffffffffff16600682600581106109bc576109bb612d65565b5b0160009054906101000a900473ffffffffffffffffffffffffffffffffffffffff1673ffffffffffffffffffffffffffffffffffffffff161415610a1057611f9081610a08919061310e565b915050610a29565b8080610a1b90612e24565b915050610989565b60009150505b919050565b6000600b82604051610a40919061308b565b908152602001604051809103902060010160009054906101000a900473ffffffffffffffffffffffffffffffffffffffff169050919050565b606060006001600054818054610a8e90612dc3565b80601f0160208091040260200160405190810160405280929190818152602001828054610aba90612dc3565b8015610b075780601f10610adc57610100808354040283529160200191610b07565b820191906000526020600020905b815481529060010190602001808311610aea57829003601f168201915b50505050509150915091509091565b600060011515600360003373ffffffffffffffffffffffffffffffffffffffff1673ffffffffffffffffffffffffffffffffffffffff16815260200190815260200160002060009054906101000a900460ff16151514610b795760009050610d0a565b6000805b600c60003373ffffffffffffffffffffffffffffffffffffffff1673ffffffffffffffffffffffffffffffffffffffff16815260200190815260200160002080549050811015610cd457610cb484600c60003373ffffffffffffffffffffffffffffffffffffffff1673ffffffffffffffffffffffffffffffffffffffff1681526020019081526020016000208381548110610c1c57610c1b612d65565b5b906000526020600020018054610c3190612dc3565b80601f0160208091040260200160405190810160405280929190818152602001828054610c5d90612dc3565b8015610caa5780601f10610c7f57610100808354040283529160200191610caa565b820191906000526020600020905b815481529060010190602001808311610c8d57829003601f168201915b50505050506122ef565b91508115610cc157610cd4565b8080610ccc90612e24565b915050610b7d565b5080610ce4576000915050610d0a565b600b83604051610cf4919061308b565b9081526020016040518091039020600201549150505b919050565b6000600360008373ffffffffffffffffffffffffffffffffffffffff1673ffffffffffffffffffffffffffffffffffffffff16815260200190815260200160002060009054906101000a900460ff1615610d6c5760019050610d71565b600090505b919050565b600080610d82836122bf565b90503373ffffffffffffffffffffffffffffffffffffffff16610da5828661112f565b73ffffffffffffffffffffffffffffffffffffffff161491505092915050565b600082600460003373ffffffffffffffffffffffffffffffffffffffff1673ffffffffffffffffffffffffffffffffffffffff16815260200190815260200160002054604051602001610e19929190613164565b6040516020818303038152906040528051906020012090506000610e3d8383610d76565b9050600115158115151415610fa957604051602001610e5b906131d8565b604051602081830303815290604052805190602001206001604051602001610e839190613281565b604051602081830303815290604052805190602001201415610eda576040517f08c379a0000000000000000000000000000000000000000000000000000000008152600401610ed1906132e4565b60405180910390fd5b8360019080519060200190610ef0929190612348565b50612710444243604051602001610f0993929190612fb2565b6040516020818303038152906040528051906020012060001c610f2c919061301e565b600460003373ffffffffffffffffffffffffffffffffffffffff1673ffffffffffffffffffffffffffffffffffffffff168152602001908152602001600020819055507ff9fbd55454309325ccadd998a641a1dfe7cd888eea26c0ae93b95992a13ac144604051610f9c90613376565b60405180910390a1610fdf565b7ff9fbd55454309325ccadd998a641a1dfe7cd888eea26c0ae93b95992a13ac144604051610fd690613408565b60405180910390a15b7ff9fbd55454309325ccadd998a641a1dfe7cd888eea26c0ae93b95992a13ac144600160405161100f91906134a8565b60405180910390a150505050565b8060008190555050565b60005481565b60025481565b6060600582604051611045919061308b565b908152602001604051809103902060009054906101000a900460ff161561111757600b82604051611076919061308b565b9081526020016040518091039020600301805461109290612dc3565b80601f01602080910402602001604051908101604052809291908181526020018280546110be90612dc3565b801561110b5780601f106110e05761010080835404028352916020019161110b565b820191906000526020600020905b8154815290600101906020018083116110ee57829003601f168201915b5050505050905061112a565b6040518060200160405280600081525090505b919050565b60008060008061113e8561146e565b9250925092506001868285856040516000815260200160405260405161116794939291906134ca565b6020604051602081039080840390855afa158015611189573d6000803e3d6000fd5b50505060206040510351935050505092915050565b60011515600360003373ffffffffffffffffffffffffffffffffffffffff1673ffffffffffffffffffffffffffffffffffffffff16815260200190815260200160002060009054906101000a900460ff1615151415611231577ff9fbd55454309325ccadd998a641a1dfe7cd888eea26c0ae93b95992a13ac1446040516112249061355b565b60405180910390a16113fc565b6000604051602001611242906135c7565b60405160208183030381529060405280519060200120905060006112668383610d76565b90506001151581151514156113be576001600360003373ffffffffffffffffffffffffffffffffffffffff1673ffffffffffffffffffffffffffffffffffffffff16815260200190815260200160002060006101000a81548160ff021916908315150217905550336006600254600581106112e4576112e3612d65565b5b0160006101000a81548173ffffffffffffffffffffffffffffffffffffffff021916908373ffffffffffffffffffffffffffffffffffffffff1602179055506002600081548092919061133690612e24565b919050555061271044424360405160200161135393929190612fb2565b6040516020818303038152906040528051906020012060001c611376919061301e565b600460003373ffffffffffffffffffffffffffffffffffffffff1673ffffffffffffffffffffffffffffffffffffffff168152602001908152602001600020819055506113f9565b6040517f08c379a00000000000000000000000000000000000000000000000000000000081526004016113f090613628565b60405180910390fd5b50505b50565b80600b83604051611410919061308b565b90815260200160405180910390206003019080519060200190611434929190612348565b507ff9fbd55454309325ccadd998a641a1dfe7cd888eea26c0ae93b95992a13ac14460405161146290613694565b60405180910390a15050565b600080600060418451146114b7576040517f08c379a00000000000000000000000000000000000000000000000000000000081526004016114ae90613700565b60405180910390fd5b6020840151925060408401519150606084015160001a90509193909250565b80600b836040516114e7919061308b565b9081526020016040518091039020600401908051906020019061150b929190612348565b507ff9fbd55454309325ccadd998a641a1dfe7cd888eea26c0ae93b95992a13ac1446040516115399061376c565b60405180910390a15050565b6001805461155290612dc3565b80601f016020809104026020016040519081016040528092919081815260200182805461157e90612dc3565b80156115cb5780601f106115a0576101008083540402835291602001916115cb565b820191906000526020600020905b8154815290600101906020018083116115ae57829003601f168201915b505050505081565b6060806000600e60003373ffffffffffffffffffffffffffffffffffffffff1673ffffffffffffffffffffffffffffffffffffffff168152602001908152602001600020805490509050600e60003373ffffffffffffffffffffffffffffffffffffffff1673ffffffffffffffffffffffffffffffffffffffff168152602001908152602001600020600182611669919061378c565b8154811061167a57611679612d65565b5b9060005260206000209060030201600001600e60003373ffffffffffffffffffffffffffffffffffffffff1673ffffffffffffffffffffffffffffffffffffffff1681526020019081526020016000206001836116d7919061378c565b815481106116e8576116e7612d65565b5b906000526020600020906003020160020181805461170590612dc3565b80601f016020809104026020016040519081016040528092919081815260200182805461173190612dc3565b801561177e5780601f106117535761010080835404028352916020019161177e565b820191906000526020600020905b81548152906001019060200180831161176157829003601f168201915b5050505050915080805461179190612dc3565b80601f01602080910402602001604051908101604052809291908181526020018280546117bd90612dc3565b801561180a5780601f106117df5761010080835404028352916020019161180a565b820191906000526020600020905b8154815290600101906020018083116117ed57829003601f168201915b5050505050905092509250509091565b60011515600360003373ffffffffffffffffffffffffffffffffffffffff1673ffffffffffffffffffffffffffffffffffffffff16815260200190815260200160002060009054906101000a900460ff161515146118e2577ff9fbd55454309325ccadd998a641a1dfe7cd888eea26c0ae93b95992a13ac14460405161189f90612d45565b60405180910390a16040517f08c379a00000000000000000000000000000000000000000000000000000000081526004016118d990612d45565b60405180910390fd5b6000805b600c60003373ffffffffffffffffffffffffffffffffffffffff1673ffffffffffffffffffffffffffffffffffffffff16815260200190815260200160002080549050811015611a3d57611a1d84600c60003373ffffffffffffffffffffffffffffffffffffffff1673ffffffffffffffffffffffffffffffffffffffff168152602001908152602001600020838154811061198557611984612d65565b5b90600052602060002001805461199a90612dc3565b80601f01602080910402602001604051908101604052809291908181526020018280546119c690612dc3565b8015611a135780601f106119e857610100808354040283529160200191611a13565b820191906000526020600020905b8154815290600101906020018083116119f657829003601f168201915b50505050506122ef565b91508115611a2a57611a3d565b8080611a3590612e24565b9150506118e6565b5080611ab3577ff9fbd55454309325ccadd998a641a1dfe7cd888eea26c0ae93b95992a13ac144604051611a7090612edf565b60405180910390a16040517f08c379a0000000000000000000000000000000000000000000000000000000008152600401611aaa90612f71565b60405180910390fd5b6000600b84604051611ac5919061308b565b90815260200160405180910390206004018054611ae190612dc3565b80601f0160208091040260200160405190810160405280929190818152602001828054611b0d90612dc3565b8015611b5a5780601f10611b2f57610100808354040283529160200191611b5a565b820191906000526020600020905b815481529060010190602001808311611b3d57829003601f168201915b50505050509050611b696123ce565b848160000181905250818160200181905250838160400181905250600e6000600b84604051611b98919061308b565b908152602001604051809103902060010160009054906101000a900473ffffffffffffffffffffffffffffffffffffffff1673ffffffffffffffffffffffffffffffffffffffff1673ffffffffffffffffffffffffffffffffffffffff1681526020019081526020016000208190806001815401808255809150506001900390600052602060002090600302016000909190919091506000820151816000019080519060200190611c4a929190612348565b506020820151816001019080519060200190611c67929190612348565b506040820151816002019080519060200190611c84929190612348565b50505060405180602001604052806000815250600b86604051611ca7919061308b565b90815260200160405180910390206004019080519060200190611ccb929190612348565b50600b82604051611cdc919061308b565b908152602001604051809103902060010160009054906101000a900473ffffffffffffffffffffffffffffffffffffffff1673ffffffffffffffffffffffffffffffffffffffff167f0d4847e7a0fec04b76bf0bba9d0c9f2673273b35ba00aa7229d254aa01be4b7d83604051611d5391906129d6565b60405180910390a25050505050565b600060011515600360003373ffffffffffffffffffffffffffffffffffffffff1673ffffffffffffffffffffffffffffffffffffffff16815260200190815260200160002060009054906101000a900460ff1615151415611e0457600460003373ffffffffffffffffffffffffffffffffffffffff1673ffffffffffffffffffffffffffffffffffffffff168152602001908152602001600020549050611e09565b600090505b90565b60011515600584604051611e20919061308b565b908152602001604051809103902060009054906101000a900460ff1615151415611e7e577ff9fbd55454309325ccadd998a641a1dfe7cd888eea26c0ae93b95992a13ac144604051611e719061380c565b60405180910390a161219e565b60011515600360003373ffffffffffffffffffffffffffffffffffffffff1673ffffffffffffffffffffffffffffffffffffffff16815260200190815260200160002060009054906101000a900460ff16151514611f46577ff9fbd55454309325ccadd998a641a1dfe7cd888eea26c0ae93b95992a13ac144604051611f0390613878565b60405180910390a16040517f08c379a0000000000000000000000000000000000000000000000000000000008152600401611f3d90613878565b60405180910390fd5b6001600584604051611f58919061308b565b908152602001604051809103902060006101000a81548160ff021916908315150217905550611f856123ef565b82816000018190525033816020019073ffffffffffffffffffffffffffffffffffffffff16908173ffffffffffffffffffffffffffffffffffffffff1681525050612710444243604051602001611fde93929190612fb2565b6040516020818303038152906040528051906020012060001c612001919061301e565b816040018181525050818160600181905250604051806020016040528060008152508160800181905250600f548160a0018181525050600f600081548092919061204a90612e24565b919050555080600b85604051612060919061308b565b9081526020016040518091039020600082015181600001908051906020019061208a929190612348565b5060208201518160010160006101000a81548173ffffffffffffffffffffffffffffffffffffffff021916908373ffffffffffffffffffffffffffffffffffffffff1602179055506040820151816002015560608201518160030190805190602001906120f8929190612348565b506080820151816004019080519060200190612115929190612348565b5060a08201518160050155905050600c60003373ffffffffffffffffffffffffffffffffffffffff1673ffffffffffffffffffffffffffffffffffffffff1681526020019081526020016000208490806001815401808255809150506001900390600052602060002001600090919091909150908051906020019061219b929190612348565b50505b505050565b600082826040516020016121b8929190613164565b60405160208183030381529060405280519060200120905092915050565b600681600581106121e657600080fd5b016000915054906101000a900473ffffffffffffffffffffffffffffffffffffffff1681565b6060600b8260405161221e919061308b565b9081526020016040518091039020600001805461223a90612dc3565b80601f016020809104026020016040519081016040528092919081815260200182805461226690612dc3565b80156122b35780601f10612288576101008083540402835291602001916122b3565b820191906000526020600020905b81548152906001019060200180831161229657829003601f168201915b50505050509050919050565b6000816040516020016122d29190613905565b604051602081830303815290604052805190602001209050919050565b600081604051602001612302919061308b565b6040516020818303038152906040528051906020012083604051602001612329919061308b565b6040516020818303038152906040528051906020012014905092915050565b82805461235490612dc3565b90600052602060002090601f01602090048101928261237657600085556123bd565b82601f1061238f57805160ff19168380011785556123bd565b828001600101855582156123bd579182015b828111156123bc5782518255916020019190600101906123a1565b5b5090506123ca919061243b565b5090565b60405180606001604052806060815260200160608152602001606081525090565b6040518060c0016040528060608152602001600073ffffffffffffffffffffffffffffffffffffffff168152602001600081526020016060815260200160608152602001600081525090565b5b8082111561245457600081600090555060010161243c565b5090565b6000819050919050565b61246b81612458565b82525050565b60006020820190506124866000830184612462565b92915050565b6000604051905090565b600080fd5b600080fd5b600080fd5b600080fd5b6000601f19601f8301169050919050565b7f4e487b7100000000000000000000000000000000000000000000000000000000600052604160045260246000fd5b6124f3826124aa565b810181811067ffffffffffffffff82111715612512576125116124bb565b5b80604052505050565b600061252561248c565b905061253182826124ea565b919050565b600067ffffffffffffffff821115612551576125506124bb565b5b61255a826124aa565b9050602081019050919050565b82818337600083830152505050565b600061258961258484612536565b61251b565b9050828152602081018484840111156125a5576125a46124a5565b5b6125b0848285612567565b509392505050565b600082601f8301126125cd576125cc6124a0565b5b81356125dd848260208601612576565b91505092915050565b6000602082840312156125fc576125fb612496565b5b600082013567ffffffffffffffff81111561261a5761261961249b565b5b612626848285016125b8565b91505092915050565b600073ffffffffffffffffffffffffffffffffffffffff82169050919050565b600061265a8261262f565b9050919050565b61266a8161264f565b811461267557600080fd5b50565b60008135905061268781612661565b92915050565b6000602082840312156126a3576126a2612496565b5b60006126b184828501612678565b91505092915050565b60008115159050919050565b6126cf816126ba565b82525050565b60006020820190506126ea60008301846126c6565b92915050565b6126f98161264f565b82525050565b600060208201905061271460008301846126f0565b92915050565b600081519050919050565b600082825260208201905092915050565b60005b83811015612754578082015181840152602081019050612739565b83811115612763576000848401525b50505050565b60006127748261271a565b61277e8185612725565b935061278e818560208601612736565b612797816124aa565b840191505092915050565b600060408201905081810360008301526127bc8185612769565b90506127cb6020830184612462565b9392505050565b600067ffffffffffffffff8211156127ed576127ec6124bb565b5b6127f6826124aa565b9050602081019050919050565b6000612816612811846127d2565b61251b565b905082815260208101848484011115612832576128316124a5565b5b61283d848285612567565b509392505050565b600082601f83011261285a576128596124a0565b5b813561286a848260208601612803565b91505092915050565b6000819050919050565b61288681612873565b811461289157600080fd5b50565b6000813590506128a38161287d565b92915050565b600080604083850312156128c0576128bf612496565b5b600083013567ffffffffffffffff8111156128de576128dd61249b565b5b6128ea85828601612845565b92505060206128fb85828601612894565b9150509250929050565b6000806040838503121561291c5761291b612496565b5b600083013567ffffffffffffffff81111561293a5761293961249b565b5b612946858286016125b8565b925050602083013567ffffffffffffffff8111156129675761296661249b565b5b61297385828601612845565b9150509250929050565b61298681612458565b811461299157600080fd5b50565b6000813590506129a38161297d565b92915050565b6000602082840312156129bf576129be612496565b5b60006129cd84828501612994565b91505092915050565b600060208201905081810360008301526129f08184612769565b905092915050565b60008060408385031215612a0f57612a0e612496565b5b6000612a1d85828601612894565b925050602083013567ffffffffffffffff811115612a3e57612a3d61249b565b5b612a4a85828601612845565b9150509250929050565b600060208284031215612a6a57612a69612496565b5b600082013567ffffffffffffffff811115612a8857612a8761249b565b5b612a9484828501612845565b91505092915050565b60008060408385031215612ab457612ab3612496565b5b600083013567ffffffffffffffff811115612ad257612ad161249b565b5b612ade858286016125b8565b925050602083013567ffffffffffffffff811115612aff57612afe61249b565b5b612b0b858286016125b8565b9150509250929050565b612b1e81612873565b82525050565b600060ff82169050919050565b612b3a81612b24565b82525050565b6000606082019050612b556000830186612b15565b612b626020830185612b15565b612b6f6040830184612b31565b949350505050565b60006040820190508181036000830152612b918185612769565b90508181036020830152612ba58184612769565b90509392505050565b600080600060608486031215612bc757612bc6612496565b5b600084013567ffffffffffffffff811115612be557612be461249b565b5b612bf1868287016125b8565b935050602084013567ffffffffffffffff811115612c1257612c1161249b565b5b612c1e868287016125b8565b925050604084013567ffffffffffffffff811115612c3f57612c3e61249b565b5b612c4b868287016125b8565b9150509250925092565b60008060408385031215612c6c57612c6b612496565b5b600083013567ffffffffffffffff811115612c8a57612c8961249b565b5b612c96858286016125b8565b9250506020612ca785828601612994565b9150509250929050565b6000602082019050612cc66000830184612b15565b92915050565b600060208284031215612ce257612ce1612496565b5b6000612cf084828501612894565b91505092915050565b7f47617465776179206e6f7420726567697374657265642e2e2e00000000000000600082015250565b6000612d2f601983612725565b9150612d3a82612cf9565b602082019050919050565b60006020820190508181036000830152612d5e81612d22565b9050919050565b7f4e487b7100000000000000000000000000000000000000000000000000000000600052603260045260246000fd5b7f4e487b7100000000000000000000000000000000000000000000000000000000600052602260045260246000fd5b60006002820490506001821680612ddb57607f821691505b60208210811415612def57612dee612d94565b5b50919050565b7f4e487b7100000000000000000000000000000000000000000000000000000000600052601160045260246000fd5b6000612e2f82612458565b91507fffffffffffffffffffffffffffffffffffffffffffffffffffffffffffffffff821415612e6257612e61612df5565b5b600182019050919050565b7f446576696365206e6f74206173736f636961746564207769746820746869732060008201527f676174657761792e2e2e2e000000000000000000000000000000000000000000602082015250565b6000612ec9602b83612725565b9150612ed482612e6d565b604082019050919050565b60006020820190508181036000830152612ef881612ebc565b9050919050565b7f446576696365206e6f74206173736f636961746564207769746820746869732060008201527f676174657761792e2e2e00000000000000000000000000000000000000000000602082015250565b6000612f5b602a83612725565b9150612f6682612eff565b604082019050919050565b60006020820190508181036000830152612f8a81612f4e565b9050919050565b6000819050919050565b612fac612fa782612458565b612f91565b82525050565b6000612fbe8286612f9b565b602082019150612fce8285612f9b565b602082019150612fde8284612f9b565b602082019150819050949350505050565b7f4e487b7100000000000000000000000000000000000000000000000000000000600052601260045260246000fd5b600061302982612458565b915061303483612458565b92508261304457613043612fef565b5b828206905092915050565b600081905092915050565b60006130658261271a565b61306f818561304f565b935061307f818560208601612736565b80840191505092915050565b6000613097828461305a565b915081905092915050565b7f4e6f6e6365207375636365737366756c6c7920757064617465642e2e2e000000600082015250565b60006130d8601d83612725565b91506130e3826130a2565b602082019050919050565b60006020820190508181036000830152613107816130cb565b9050919050565b600061311982612458565b915061312483612458565b9250827fffffffffffffffffffffffffffffffffffffffffffffffffffffffffffffffff0382111561315957613158612df5565b5b828201905092915050565b6000613170828561305a565b915061317c8284612f9b565b6020820191508190509392505050565b7f796f000000000000000000000000000000000000000000000000000000000000600082015250565b60006131c260028361304f565b91506131cd8261318c565b600282019050919050565b60006131e3826131b5565b9150819050919050565b60008190508160005260206000209050919050565b6000815461320f81612dc3565b613219818661304f565b94506001821660008114613234576001811461324557613278565b60ff19831686528186019350613278565b61324e856131ed565b60005b8381101561327057815481890152600182019150602081019050613251565b838801955050505b50505092915050565b600061328d8284613202565b915081905092915050565b7f596179792c206572726f72206f63757272656400000000000000000000000000600082015250565b60006132ce601383612725565b91506132d982613298565b602082019050919050565b600060208201905081810360008301526132fd816132c1565b9050919050565b7f566572696669636174696f6e2073756363657373202d20537472696e6720757060008201527f6461746564000000000000000000000000000000000000000000000000000000602082015250565b6000613360602583612725565b915061336b82613304565b604082019050919050565b6000602082019050818103600083015261338f81613353565b9050919050565b7f566572696669636174696f6e206661696c6564202d20537472696e67206e6f7460008201527f2075706461746564000000000000000000000000000000000000000000000000602082015250565b60006133f2602883612725565b91506133fd82613396565b604082019050919050565b60006020820190508181036000830152613421816133e5565b9050919050565b6000815461343581612dc3565b61343f8186612725565b9450600182166000811461345a576001811461346c5761349f565b60ff198316865260208601935061349f565b613475856131ed565b60005b8381101561349757815481890152600182019150602081019050613478565b808801955050505b50505092915050565b600060208201905081810360008301526134c28184613428565b905092915050565b60006080820190506134df6000830187612b15565b6134ec6020830186612b31565b6134f96040830185612b15565b6135066060830184612b15565b95945050505050565b7f416c726561647920726567697374657265642e2e2e0000000000000000000000600082015250565b6000613545601583612725565b91506135508261350f565b602082019050919050565b6000602082019050818103600083015261357481613538565b9050919050565b7f5265676973746572000000000000000000000000000000000000000000000000600082015250565b60006135b160088361304f565b91506135bc8261357b565b600882019050919050565b60006135d2826135a4565b9150819050919050565b7f526567697374726174696f6e206661696c65642e2e2e00000000000000000000600082015250565b6000613612601683612725565b915061361d826135dc565b602082019050919050565b6000602082019050818103600083015261364181613605565b9050919050565b7f54696d657374616d7020757064617465642e2e2e000000000000000000000000600082015250565b600061367e601483612725565b915061368982613648565b602082019050919050565b600060208201905081810360008301526136ad81613671565b9050919050565b7f696e76616c6964207369676e6174757265206c656e6774680000000000000000600082015250565b60006136ea601883612725565b91506136f5826136b4565b602082019050919050565b60006020820190508181036000830152613719816136dd565b9050919050565b7f526563697069656e7420757064617465642e2e2e000000000000000000000000600082015250565b6000613756601483612725565b915061376182613720565b602082019050919050565b6000602082019050818103600083015261378581613749565b9050919050565b600061379782612458565b91506137a283612458565b9250828210156137b5576137b4612df5565b5b828203905092915050565b7f44657669636520616c726561647920726567697374657265642e2e2e00000000600082015250565b60006137f6601c83612725565b9150613801826137c0565b602082019050919050565b60006020820190508181036000830152613825816137e9565b9050919050565b7f47617465776179206e6f74207265676973746572656400000000000000000000600082015250565b6000613862601683612725565b915061386d8261382c565b602082019050919050565b6000602082019050818103600083015261389181613855565b9050919050565b7f19457468657265756d205369676e6564204d6573736167653a0a333200000000600082015250565b60006138ce601c8361304f565b91506138d982613898565b601c82019050919050565b6000819050919050565b6138ff6138fa82612873565b6138e4565b82525050565b6000613910826138c1565b915061391c82846138ee565b6020820191508190509291505056fea26469706673582212201ddae0d40c286fc60a2c95e7c792bbe5b1cf93a103675adcfcbb3f9a9d4dc26764736f6c634300080a0033",
  "immutableReferences": {},
  "source": "// SPDX-License-Identifier: .\r\npragma solidity ^0.8.10;\r\n\r\ncontract Sample {\r\n    ///Blockchain state variables.\r\n\r\n    /* 'number' and 'str' are test variables */\r\n    uint public number = 10;\r\n    string public str = \"Hello\";\r\n    uint public t=0;\r\n    // 'reg' is mapping which stores whether a gateway has registered or not.\r\n    mapping(address => bool) reg;\r\n    // 'nonces' is a mapping which stores nonces for each registered gateway and changes with transaction.\r\n    mapping(address => uint) nonces;\r\n    //This mapping stores whether the dev has been registered or not.\r\n    mapping(string => bool) dev_reg;\r\n\r\n    //This structure contains the device information.\r\n    struct Device {\r\n        string pubKey;\r\n        address gate;\r\n        uint nonce;\r\n        string TS;\r\n        string recvId;\r\n        uint id;\r\n    }\r\n     \r\n    address[5] public lbrids;\r\n    //Maps from the device id to device information which is contained in 'Device' struct.\r\n    mapping(string => Device) dev_info;\r\n    \r\n    mapping(address => string[]) gate_dev;\r\n    mapping(address => string[]) gate_agg;\r\n\r\n    //The messsages associated with the lbr are stored in this data structure.\r\n    struct Message {\r\n        string from;\r\n        string to;\r\n        string msg_str;\r\n    }    \r\n    mapping(address => Message[]) msgs;\r\n\r\n    //Test event to listen to in the script.\r\n    event test(string _str);  \r\n    \r\n    //This is the event which the gateway listens for any notification of messages.\r\n    event receive_message(address indexed gateway, string devId);\r\n\r\n    //Utility function\r\n    function str_cmp(string memory _a, string memory _b) internal pure returns(bool fl){\r\n        return keccak256(abi.encodePacked(_a)) == keccak256(abi.encodePacked(_b));\r\n    }      \r\n\r\n    /*The below 3 functions are test functions.*/\r\n\r\n\r\n    //Multiple value return.\r\n    function without_parameters() public view returns (string memory str1, uint num1) {\r\n            return (str, number);\r\n    }\r\n\r\n    //Directly update the number by 'n'.\r\n    function update(uint _n) public {\r\n            number = _n;            \r\n    } \r\n\r\n    //Test transaction to check working with signature.\r\n    function update_string(string memory _str, bytes memory signature) public {\r\n        \r\n        bytes32 messageHash = keccak256(abi.encodePacked(_str, nonces[msg.sender]));\r\n        bool status = verify(signature, messageHash);\r\n        if(status == true)\r\n        {\r\n            if(keccak256(abi.encodePacked(str)) == keccak256(abi.encodePacked(\"yo\")))\r\n            revert(\"Yayy, error ocurred\");\r\n            str = _str;\r\n            nonces[msg.sender] = uint(keccak256(abi.encodePacked(block.difficulty, block.timestamp, block.number)))%10000;\r\n            emit test(\"Verification success - String updated\");\r\n        }\r\n        else\r\n            emit test(\"Verification failed - String not updated\");\r\n\r\n        emit test(str);\r\n    }       \r\n   \r\n\r\n    //Function to retrieve nonce.\r\n    function getNonce() public view returns(uint nonce) {\r\n        if(reg[msg.sender] == true)\r\n            return nonces[msg.sender];\r\n        else\r\n            return 0;\r\n    }\r\n    //device authentication\r\n    \r\n\r\n    \r\n    function register_gateway(bytes memory signature) public {\r\n        \r\n        if(reg[msg.sender] == true)\r\n            emit test(\"Already registered...\");\r\n        else{\r\n            bytes32 messageHash = keccak256(abi.encodePacked('Register'));\r\n            bool status = verify(signature, messageHash);\r\n            if(status == true)\r\n            {\r\n                //That means the signature has been verified.\r\n                reg[msg.sender] = true;\r\n                lbrids[t]=msg.sender;\r\n                t++;\r\n                nonces[msg.sender] = uint(keccak256(abi.encodePacked(block.difficulty, block.timestamp, block.number)))%10000;\r\n            }        \r\n            else\r\n            {\r\n                revert(\"Registration failed...\");\r\n            }\r\n        }\r\n    }\r\n    uint public count=8080;\r\n    function register_device(string memory _devId, string memory _pub, string memory _TS) public {\r\n        \r\n        if(dev_reg[_devId] == true)\r\n            emit test(\"Device already registered...\");\r\n\r\n        else if(reg[msg.sender] != true){\r\n            emit test(\"Gateway not registered\");\r\n            revert(\"Gateway not registered\");\r\n        }\r\n        else{                        \r\n            //Since the status has been verified, things to do are:\r\n            //1. Mark the device as registered.\r\n            dev_reg[_devId] = true;\r\n            \r\n            //2. Create a new struct with the information.\r\n            Device memory dev;\r\n            dev.pubKey = _pub;\r\n            dev.gate = msg.sender;\r\n            dev.nonce = uint(keccak256(abi.encodePacked(block.difficulty, block.timestamp, block.number)))%10000;\r\n            dev.TS = _TS;\r\n            dev.recvId = \"\";\r\n            dev.id=count;\r\n            count++;\r\n            //3. Map the device id to the created struct.\r\n            dev_info[_devId] = dev;\r\n\r\n            //4. Also add the device id to the list of devices under the associated gateway.  \r\n            gate_dev[msg.sender].push(_devId);                                  \r\n        }\r\n    }\r\n\r\n    //Function to check whether device has been registered or not. If yes, returns the timestamp of the last request.\r\n    function check_device(string memory _devId) public view returns(string memory){                \r\n        if (dev_reg[_devId])\r\n            return dev_info[_devId].TS;\r\n        else\r\n            return \"\";\r\n    }\r\n    function check_lbr(address lbrid) public view returns(uint){\r\n        if(reg[lbrid]){\r\n            return 1;\r\n        }\r\n        return 0;\r\n    }\r\n\r\n    function update_timestamp(string memory _devId, string memory _TS) public {\r\n        dev_info[_devId].TS = _TS;\r\n        emit test(\"Timestamp updated...\");\r\n    }\r\n    function verifyroute(address lbrid) public view returns(bool){\r\n        return reg[lbrid];\r\n    } \r\n    struct info{\r\n        string pubKey;\r\n        address lbrinfo;\r\n    }\r\n    function get_device_key(string memory _devId) public view returns(string memory){                \r\n        return dev_info[_devId].pubKey;\r\n    }\r\n    function get_device_gateway(string memory _devId) public view returns(address){ \r\n        return dev_info[_devId].gate;\r\n        \r\n    }\r\n    function get_lbr_id(address gate) public view returns(uint){\r\n        uint i=0;\r\n        for(i=0;i<=4;i++){\r\n            if(lbrids[i]==gate){\r\n                return i+8080;\r\n            }\r\n        }\r\n        return 0;\r\n    }\r\n    function addressToString(address _addr) internal pure returns (string memory) {\r\n        bytes32 value = bytes32(uint256(uint160(_addr)));\r\n        bytes memory alphabet = \"0123456789abcdef\";\r\n        bytes memory str2 = new bytes(42);\r\n        str2[0] = '0';\r\n        str2[2] = 'x';\r\n        for(uint i=0; i< 20; i++) {\r\n            str2[2+i*2] = alphabet[uint(uint8(value[i+12] >> 4))];\r\n            str2[3+i*2] = alphabet[uint(uint8(value[i+12] & 0x0f))];\r\n        }\r\n        return string(str2);\r\n    }\r\n\r\n    function update_recipient(string memory _devId, string memory _recvId) public {\r\n        dev_info[_devId].recvId = _recvId;\r\n        emit test(\"Recipient updated...\");\r\n    }\r\n    //function to return lbrid for the device specified\r\n   \r\n        \r\n\r\n    \r\n    function communicate(string memory _devId, string memory _msg) public {\r\n        \r\n        if(reg[msg.sender] != true)\r\n        {\r\n            emit test(\"Gateway not registered...\");\r\n            revert(\"Gateway not registered...\");\r\n        }\r\n        \r\n        bool fl = false;\r\n        for(uint i=0;i<gate_dev[msg.sender].length;i++)\r\n        {\r\n            fl = str_cmp(_devId, gate_dev[msg.sender][i]);\r\n            if(fl)\r\n                break;\r\n        }\r\n\r\n        if(!fl)\r\n        {\r\n            emit test(\"Device not associated with this gateway....\");\r\n            revert(\"Device not associated with this gateway...\");\r\n        }\r\n\r\n        string memory _recvId = dev_info[_devId].recvId;\r\n        //Now add the message under this gateway and emit the event.\r\n        Message memory message;\r\n        message.from = _devId;\r\n        message.to = _recvId;\r\n        message.msg_str = _msg;\r\n\r\n        //Add to the list of messages for the gateway.\r\n        msgs[dev_info[_recvId].gate].push(message);\r\n\r\n        //Clear the recipient id under the dev_info.\r\n        dev_info[_devId].recvId = \"\";\r\n\r\n        emit receive_message(dev_info[_recvId].gate, _recvId);\r\n    }\r\n\r\n    function getMessage() public view returns (string memory from, string memory _str){\r\n        \r\n        uint n = msgs[msg.sender].length;\r\n        return (msgs[msg.sender][n-1].from, msgs[msg.sender][n-1].msg_str);\r\n    }\r\n\r\n\r\n    //The gateway updates the nonce of the device after every authentication attempt.\r\n    function update_device_nonce(string memory _devId) public {\r\n        //Check whether the gateway is registered.\r\n        //Also check whether the device is under this gateway.\r\n        if(reg[msg.sender] != true)\r\n        {\r\n            emit test(\"Gateway not registered...\");\r\n            revert(\"Gateway not registered...\");\r\n        }\r\n        \r\n        bool fl = false;\r\n        for(uint i=0;i<gate_dev[msg.sender].length;i++)\r\n        {\r\n            fl = str_cmp(_devId, gate_dev[msg.sender][i]);\r\n            if(fl)\r\n                break;\r\n        }\r\n\r\n        if(!fl)\r\n        {\r\n            emit test(\"Device not associated with this gateway....\");\r\n            revert(\"Device not associated with this gateway...\");\r\n        }    \r\n        \r\n        //Add a nonce for the device here.\r\n        dev_info[_devId].nonce = uint(keccak256(abi.encodePacked(block.difficulty, block.timestamp, block.number)))%10000;   \r\n        emit test(\"Nonce successfully updated...\");\r\n    }\r\n    \r\n\r\n    function get_device_nonce(string memory _devId) public view returns(uint nonce){\r\n        //Check whether the gateway is registered.\r\n        //Also check whether the device is under this gateway.\r\n        if(reg[msg.sender] != true)                   \r\n            return 0;                    \r\n        \r\n        bool fl = false;\r\n        for(uint i=0;i<gate_dev[msg.sender].length;i++)\r\n        {\r\n            fl = str_cmp(_devId, gate_dev[msg.sender][i]);\r\n            if(fl)\r\n                break;\r\n        }\r\n\r\n        if(!fl)                    \r\n            return 0;           \r\n        \r\n        //Return nonce for the device here.\r\n        return dev_info[_devId].nonce;               \r\n    }\r\n    \r\n\r\n\r\n\r\n\r\n    function verify(\r\n        bytes memory signature,\r\n        bytes32 messageHash        \r\n    ) public view returns (bool) {        \r\n        bytes32 ethSignedMessageHash = getEthSignedMessageHash(messageHash);\r\n\r\n        return recoverSigner(ethSignedMessageHash, signature) == msg.sender;\r\n    }\r\n\r\n    function getMessageHash(        \r\n        string memory _message ,\r\n        uint _nonce       \r\n    ) public pure returns (bytes32) {\r\n        return keccak256(abi.encodePacked(_message, _nonce));\r\n    }\r\n\r\n    function getEthSignedMessageHash(bytes32 _messageHash)\r\n        public\r\n        pure\r\n        returns (bytes32)\r\n    {\r\n        /*\r\n        Signature is produced by signing a keccak256 hash with the following format:\r\n        \"\\x19Ethereum Signed Message\\n\" + len(msg) + msg\r\n        */\r\n        return\r\n            keccak256(\r\n                abi.encodePacked(\"\\x19Ethereum Signed Message:\\n32\", _messageHash)\r\n            );\r\n    }\r\n\r\n    function recoverSigner(bytes32 _ethSignedMessageHash, bytes memory _signature)\r\n        public\r\n        pure\r\n        returns (address)\r\n    {\r\n        (bytes32 r, bytes32 s, uint8 v) = splitSignature(_signature);\r\n\r\n        return ecrecover(_ethSignedMessageHash, v, r, s);\r\n    }\r\n\r\n    function splitSignature(bytes memory sig)\r\n        public\r\n        pure\r\n        returns (\r\n            bytes32 r,\r\n            bytes32 s,\r\n            uint8 v\r\n        )\r\n    {\r\n        require(sig.length == 65, \"invalid signature length\");\r\n\r\n        assembly {\r\n            /*\r\n            First 32 bytes stores the length of the signature\r\n\r\n            add(sig, 32) = pointer of sig + 32\r\n            effectively, skips first 32 bytes of signature\r\n\r\n            mload(p) loads next 32 bytes starting at the memory address p into memory\r\n            */\r\n\r\n            // first 32 bytes, after the length prefix\r\n            r := mload(add(sig, 32))\r\n            // second 32 bytes\r\n            s := mload(add(sig, 64))\r\n            // final byte (first byte of the next 32 bytes)\r\n            v := byte(0, mload(add(sig, 96)))\r\n        }\r\n\r\n        // implicitly return (r, s, v)\r\n    }\r\n}",
  "sourcePath": "C:\\Users\\abhi\\Desktop\\etherium\\endproject\\BorderRouters\\contracts\\Sample.sol",
  "compiler": {
    "name": "solc",
    "version": "0.8.10+commit.fc410830.Emscripten.clang"
  },
  "schemaVersion": "3.4.11",
  "updatedAt": "2023-05-06T06:28:31.504Z",
  "networkType": "ethereum",
  "devdoc": {
    "kind": "dev",
    "methods": {},
    "version": 1
  },
  "userdoc": {
    "kind": "user",
    "methods": {
      "number()": {
        "notice": "Blockchain state variables."
      }
    },
    "version": 1
  }
}