{
  "contractName": "Sample",
  "abi": [
    {
      "anonymous": false,
      "inputs": [
        {
          "indexed": true,
          "internalType": "address",
          "name": "gateway",
          "type": "address"
        },
        {
          "indexed": false,
          "internalType": "string",
          "name": "devId",
          "type": "string"
        }
      ],
      "name": "receive_message",
      "type": "event"
    },
    {
      "anonymous": false,
      "inputs": [
        {
          "indexed": false,
          "internalType": "string",
          "name": "_str",
          "type": "string"
        }
      ],
      "name": "test",
      "type": "event"
    },
    {
      "inputs": [],
      "name": "number",
      "outputs": [
        {
          "internalType": "uint256",
          "name": "",
          "type": "uint256"
        }
      ],
      "stateMutability": "view",
      "type": "function"
    },
    {
      "inputs": [],
      "name": "str",
      "outputs": [
        {
          "internalType": "string",
          "name": "",
          "type": "string"
        }
      ],
      "stateMutability": "view",
      "type": "function"
    },
    {
      "inputs": [],
      "name": "without_parameters",
      "outputs": [
        {
          "internalType": "string",
          "name": "str1",
          "type": "string"
        },
        {
          "internalType": "uint256",
          "name": "num1",
          "type": "uint256"
        }
      ],
      "stateMutability": "view",
      "type": "function"
    },
    {
      "inputs": [
        {
          "internalType": "uint256",
          "name": "_n",
          "type": "uint256"
        }
      ],
      "name": "update",
      "outputs": [],
      "stateMutability": "nonpayable",
      "type": "function"
    },
    {
      "inputs": [
        {
          "internalType": "string",
          "name": "_str",
          "type": "string"
        },
        {
          "internalType": "bytes",
          "name": "signature",
          "type": "bytes"
        }
      ],
      "name": "update_string",
      "outputs": [],
      "stateMutability": "nonpayable",
      "type": "function"
    },
    {
      "inputs": [],
      "name": "getNonce",
      "outputs": [
        {
          "internalType": "uint256",
          "name": "nonce",
          "type": "uint256"
        }
      ],
      "stateMutability": "view",
      "type": "function"
    },
    {
      "inputs": [
        {
          "internalType": "address",
          "name": "deviceAddress",
          "type": "address"
        }
      ],
      "name": "isAuthorized",
      "outputs": [
        {
          "internalType": "bool",
          "name": "",
          "type": "bool"
        }
      ],
      "stateMutability": "view",
      "type": "function"
    },
    {
      "inputs": [
        {
          "internalType": "bytes",
          "name": "signature",
          "type": "bytes"
        }
      ],
      "name": "register_gateway",
      "outputs": [],
      "stateMutability": "nonpayable",
      "type": "function"
    },
    {
      "inputs": [
        {
          "internalType": "string",
          "name": "_devId",
          "type": "string"
        },
        {
          "internalType": "string",
          "name": "_pub",
          "type": "string"
        },
        {
          "internalType": "string",
          "name": "_TS",
          "type": "string"
        }
      ],
      "name": "register_device",
      "outputs": [],
      "stateMutability": "nonpayable",
      "type": "function"
    },
    {
      "inputs": [
        {
          "internalType": "string",
          "name": "_devId",
          "type": "string"
        }
      ],
      "name": "check_device",
      "outputs": [
        {
          "internalType": "string",
          "name": "",
          "type": "string"
        }
      ],
      "stateMutability": "view",
      "type": "function"
    },
    {
      "inputs": [
        {
          "internalType": "string",
          "name": "_devId",
          "type": "string"
        },
        {
          "internalType": "string",
          "name": "_TS",
          "type": "string"
        }
      ],
      "name": "update_timestamp",
      "outputs": [],
      "stateMutability": "nonpayable",
      "type": "function"
    },
    {
      "inputs": [
        {
          "internalType": "string",
          "name": "_devId",
          "type": "string"
        }
      ],
      "name": "get_device_key",
      "outputs": [
        {
          "internalType": "string",
          "name": "",
          "type": "string"
        }
      ],
      "stateMutability": "view",
      "type": "function"
    },
    {
      "inputs": [
        {
          "internalType": "string",
          "name": "_devId",
          "type": "string"
        },
        {
          "internalType": "string",
          "name": "_recvId",
          "type": "string"
        }
      ],
      "name": "update_recipient",
      "outputs": [],
      "stateMutability": "nonpayable",
      "type": "function"
    },
    {
      "inputs": [
        {
          "internalType": "string",
          "name": "_devId",
          "type": "string"
        },
        {
          "internalType": "string",
          "name": "_msg",
          "type": "string"
        }
      ],
      "name": "communicate",
      "outputs": [],
      "stateMutability": "nonpayable",
      "type": "function"
    },
    {
      "inputs": [],
      "name": "getMessage",
      "outputs": [
        {
          "internalType": "string",
          "name": "from",
          "type": "string"
        },
        {
          "internalType": "string",
          "name": "_str",
          "type": "string"
        }
      ],
      "stateMutability": "view",
      "type": "function"
    },
    {
      "inputs": [
        {
          "internalType": "string",
          "name": "_devId",
          "type": "string"
        }
      ],
      "name": "update_device_nonce",
      "outputs": [],
      "stateMutability": "nonpayable",
      "type": "function"
    },
    {
      "inputs": [
        {
          "internalType": "string",
          "name": "_devId",
          "type": "string"
        }
      ],
      "name": "get_device_nonce",
      "outputs": [
        {
          "internalType": "uint256",
          "name": "nonce",
          "type": "uint256"
        }
      ],
      "stateMutability": "view",
      "type": "function"
    },
    {
      "inputs": [
        {
          "internalType": "bytes",
          "name": "signature",
          "type": "bytes"
        },
        {
          "internalType": "bytes32",
          "name": "messageHash",
          "type": "bytes32"
        }
      ],
      "name": "verify",
      "outputs": [
        {
          "internalType": "bool",
          "name": "",
          "type": "bool"
        }
      ],
      "stateMutability": "view",
      "type": "function"
    },
    {
      "inputs": [
        {
          "internalType": "string",
          "name": "_message",
          "type": "string"
        },
        {
          "internalType": "uint256",
          "name": "_nonce",
          "type": "uint256"
        }
      ],
      "name": "getMessageHash",
      "outputs": [
        {
          "internalType": "bytes32",
          "name": "",
          "type": "bytes32"
        }
      ],
      "stateMutability": "pure",
      "type": "function"
    },
    {
      "inputs": [
        {
          "internalType": "bytes32",
          "name": "_messageHash",
          "type": "bytes32"
        }
      ],
      "name": "getEthSignedMessageHash",
      "outputs": [
        {
          "internalType": "bytes32",
          "name": "",
          "type": "bytes32"
        }
      ],
      "stateMutability": "pure",
      "type": "function"
    },
    {
      "inputs": [
        {
          "internalType": "bytes32",
          "name": "_ethSignedMessageHash",
          "type": "bytes32"
        },
        {
          "internalType": "bytes",
          "name": "_signature",
          "type": "bytes"
        }
      ],
      "name": "recoverSigner",
      "outputs": [
        {
          "internalType": "address",
          "name": "",
          "type": "address"
        }
      ],
      "stateMutability": "pure",
      "type": "function"
    },
    {
      "inputs": [
        {
          "internalType": "bytes",
          "name": "sig",
          "type": "bytes"
        }
      ],
      "name": "splitSignature",
      "outputs": [
        {
          "internalType": "bytes32",
          "name": "r",
          "type": "bytes32"
        },
        {
          "internalType": "bytes32",
          "name": "s",
          "type": "bytes32"
        },
        {
          "internalType": "uint8",
          "name": "v",
          "type": "uint8"
        }
      ],
      "stateMutability": "pure",
      "type": "function"
    }
  ],
  "bytecode": "0x6080604052600a6000556040518060400160405280600581526020017f48656c6c6f00000000000000000000000000000000000000000000000000000081525060019080519060200190620000569291906200006b565b503480156200006457600080fd5b5062000180565b82805462000079906200014a565b90600052602060002090601f0160209004810192826200009d5760008555620000e9565b82601f10620000b857805160ff1916838001178555620000e9565b82800160010185558215620000e9579182015b82811115620000e8578251825591602001919060010190620000cb565b5b509050620000f89190620000fc565b5090565b5b8082111562000117576000816000905550600101620000fd565b5090565b7f4e487b7100000000000000000000000000000000000000000000000000000000600052602260045260246000fd5b600060028204905060018216806200016357607f821691505b602082108114156200017a57620001796200011b565b5b50919050565b6134fa80620001906000396000f3fe608060405234801561001057600080fd5b50600436106101425760003560e01c8063a7bb5803116100b8578063d087d2881161007c578063d087d28814610377578063d38fe63614610395578063d4aa6916146103b1578063e594d0f1146103e1578063fa54080114610411578063fe9fbb801461044157610142565b8063a7bb5803146102d0578063a9eb410114610302578063c15bae841461031e578063ce6d41de1461033c578063d075b7bf1461035b57610142565b806382ab890a1161010a57806382ab890a146101fe5780638381f58a1461021a57806393c7a68b1461023857806397aba7f914610268578063a0c265f814610298578063a6bf9028146102b457610142565b8063119559dc146101475780634ea36e32146101635780635b72ae05146101825780636b406341146101b25780637737879f146101e2575b600080fd5b610161600480360381019061015c91906121a1565b610471565b005b61016b6107a3565b60405161017992919061228b565b60405180910390f35b61019c600480360381019061019791906121a1565b610840565b6040516101a991906122bb565b60405180910390f35b6101cc60048036038101906101c791906123ad565b610a39565b6040516101d99190612424565b60405180910390f35b6101fc60048036038101906101f7919061243f565b610a88565b005b610218600480360381019061021391906124e3565b610ce0565b005b610222610cea565b60405161022f91906122bb565b60405180910390f35b610252600480360381019061024d91906121a1565b610cf0565b60405161025f9190612510565b60405180910390f35b610282600480360381019061027d9190612532565b610dec565b60405161028f91906125cf565b60405180910390f35b6102b260048036038101906102ad91906125ea565b610e5b565b005b6102ce60048036038101906102c99190612633565b61104e565b005b6102ea60048036038101906102e591906125ea565b6110bd565b6040516102f9939291906126d6565b60405180910390f35b61031c60048036038101906103179190612633565b611125565b005b610326611194565b6040516103339190612510565b60405180910390f35b610344611222565b60405161035292919061270d565b60405180910390f35b61037560048036038101906103709190612633565b611469565b005b61037f6119b1565b60405161038c91906122bb565b60405180910390f35b6103af60048036038101906103aa9190612744565b611a5b565b005b6103cb60048036038101906103c691906127eb565b611dc4565b6040516103d89190612847565b60405180910390f35b6103fb60048036038101906103f691906121a1565b611df7565b6040516104089190612510565b60405180910390f35b61042b60048036038101906104269190612862565b611eaa565b6040516104389190612847565b60405180910390f35b61045b600480360381019061045691906128bb565b611eda565b6040516104689190612424565b60405180910390f35b60011515600260003373ffffffffffffffffffffffffffffffffffffffff1673ffffffffffffffffffffffffffffffffffffffff16815260200190815260200160002060009054906101000a900460ff16151514610539577ff9fbd55454309325ccadd998a641a1dfe7cd888eea26c0ae93b95992a13ac1446040516104f690612934565b60405180910390a16040517f08c379a000000000000000000000000000000000000000000000000000000000815260040161053090612934565b60405180910390fd5b6000805b600660003373ffffffffffffffffffffffffffffffffffffffff1673ffffffffffffffffffffffffffffffffffffffff168152602001908152602001600020805490508110156106945761067483600660003373ffffffffffffffffffffffffffffffffffffffff1673ffffffffffffffffffffffffffffffffffffffff16815260200190815260200160002083815481106105dc576105db612954565b5b9060005260206000200180546105f1906129b2565b80601f016020809104026020016040519081016040528092919081815260200182805461061d906129b2565b801561066a5780601f1061063f5761010080835404028352916020019161066a565b820191906000526020600020905b81548152906001019060200180831161064d57829003601f168201915b5050505050611ee5565b9150811561068157610694565b808061068c90612a13565b91505061053d565b508061070a577ff9fbd55454309325ccadd998a641a1dfe7cd888eea26c0ae93b95992a13ac1446040516106c790612ace565b60405180910390a16040517f08c379a000000000000000000000000000000000000000000000000000000000815260040161070190612b60565b60405180910390fd5b61271044424360405160200161072293929190612ba1565b6040516020818303038152906040528051906020012060001c6107459190612c0d565b6005836040516107559190612c7a565b9081526020016040518091039020600201819055507ff9fbd55454309325ccadd998a641a1dfe7cd888eea26c0ae93b95992a13ac14460405161079790612cdd565b60405180910390a15050565b6060600060016000548180546107b8906129b2565b80601f01602080910402602001604051908101604052809291908181526020018280546107e4906129b2565b80156108315780601f1061080657610100808354040283529160200191610831565b820191906000526020600020905b81548152906001019060200180831161081457829003601f168201915b50505050509150915091509091565b600060011515600260003373ffffffffffffffffffffffffffffffffffffffff1673ffffffffffffffffffffffffffffffffffffffff16815260200190815260200160002060009054906101000a900460ff161515146108a35760009050610a34565b6000805b600660003373ffffffffffffffffffffffffffffffffffffffff1673ffffffffffffffffffffffffffffffffffffffff168152602001908152602001600020805490508110156109fe576109de84600660003373ffffffffffffffffffffffffffffffffffffffff1673ffffffffffffffffffffffffffffffffffffffff168152602001908152602001600020838154811061094657610945612954565b5b90600052602060002001805461095b906129b2565b80601f0160208091040260200160405190810160405280929190818152602001828054610987906129b2565b80156109d45780601f106109a9576101008083540402835291602001916109d4565b820191906000526020600020905b8154815290600101906020018083116109b757829003601f168201915b5050505050611ee5565b915081156109eb576109fe565b80806109f690612a13565b9150506108a7565b5080610a0e576000915050610a34565b600583604051610a1e9190612c7a565b9081526020016040518091039020600201549150505b919050565b600080610a4583611eaa565b90503373ffffffffffffffffffffffffffffffffffffffff16610a688286610dec565b73ffffffffffffffffffffffffffffffffffffffff161491505092915050565b600082600360003373ffffffffffffffffffffffffffffffffffffffff1673ffffffffffffffffffffffffffffffffffffffff16815260200190815260200160002054604051602001610adc929190612cfd565b6040516020818303038152906040528051906020012090506000610b008383610a39565b9050600115158115151415610c6c57604051602001610b1e90612d71565b604051602081830303815290604052805190602001206001604051602001610b469190612e1a565b604051602081830303815290604052805190602001201415610b9d576040517f08c379a0000000000000000000000000000000000000000000000000000000008152600401610b9490612e7d565b60405180910390fd5b8360019080519060200190610bb3929190611f3e565b50612710444243604051602001610bcc93929190612ba1565b6040516020818303038152906040528051906020012060001c610bef9190612c0d565b600360003373ffffffffffffffffffffffffffffffffffffffff1673ffffffffffffffffffffffffffffffffffffffff168152602001908152602001600020819055507ff9fbd55454309325ccadd998a641a1dfe7cd888eea26c0ae93b95992a13ac144604051610c5f90612f0f565b60405180910390a1610ca2565b7ff9fbd55454309325ccadd998a641a1dfe7cd888eea26c0ae93b95992a13ac144604051610c9990612fa1565b60405180910390a15b7ff9fbd55454309325ccadd998a641a1dfe7cd888eea26c0ae93b95992a13ac1446001604051610cd29190613041565b60405180910390a150505050565b8060008190555050565b60005481565b6060600482604051610d029190612c7a565b908152602001604051809103902060009054906101000a900460ff1615610dd457600582604051610d339190612c7a565b90815260200160405180910390206003018054610d4f906129b2565b80601f0160208091040260200160405190810160405280929190818152602001828054610d7b906129b2565b8015610dc85780601f10610d9d57610100808354040283529160200191610dc8565b820191906000526020600020905b815481529060010190602001808311610dab57829003601f168201915b50505050509050610de7565b6040518060200160405280600081525090505b919050565b600080600080610dfb856110bd565b92509250925060018682858560405160008152602001604052604051610e249493929190613063565b6020604051602081039080840390855afa158015610e46573d6000803e3d6000fd5b50505060206040510351935050505092915050565b60011515600260003373ffffffffffffffffffffffffffffffffffffffff1673ffffffffffffffffffffffffffffffffffffffff16815260200190815260200160002060009054906101000a900460ff1615151415610eee577ff9fbd55454309325ccadd998a641a1dfe7cd888eea26c0ae93b95992a13ac144604051610ee1906130f4565b60405180910390a161104b565b6000604051602001610eff90613160565b6040516020818303038152906040528051906020012090506000610f238383610a39565b905060011515811515141561100d576001600260003373ffffffffffffffffffffffffffffffffffffffff1673ffffffffffffffffffffffffffffffffffffffff16815260200190815260200160002060006101000a81548160ff021916908315150217905550612710444243604051602001610fa293929190612ba1565b6040516020818303038152906040528051906020012060001c610fc59190612c0d565b600360003373ffffffffffffffffffffffffffffffffffffffff1673ffffffffffffffffffffffffffffffffffffffff16815260200190815260200160002081905550611048565b6040517f08c379a000000000000000000000000000000000000000000000000000000000815260040161103f906131c1565b60405180910390fd5b50505b50565b8060058360405161105f9190612c7a565b90815260200160405180910390206003019080519060200190611083929190611f3e565b507ff9fbd55454309325ccadd998a641a1dfe7cd888eea26c0ae93b95992a13ac1446040516110b19061322d565b60405180910390a15050565b60008060006041845114611106576040517f08c379a00000000000000000000000000000000000000000000000000000000081526004016110fd90613299565b60405180910390fd5b6020840151925060408401519150606084015160001a90509193909250565b806005836040516111369190612c7a565b9081526020016040518091039020600401908051906020019061115a929190611f3e565b507ff9fbd55454309325ccadd998a641a1dfe7cd888eea26c0ae93b95992a13ac14460405161118890613305565b60405180910390a15050565b600180546111a1906129b2565b80601f01602080910402602001604051908101604052809291908181526020018280546111cd906129b2565b801561121a5780601f106111ef5761010080835404028352916020019161121a565b820191906000526020600020905b8154815290600101906020018083116111fd57829003601f168201915b505050505081565b6060806000600760003373ffffffffffffffffffffffffffffffffffffffff1673ffffffffffffffffffffffffffffffffffffffff168152602001908152602001600020805490509050600760003373ffffffffffffffffffffffffffffffffffffffff1673ffffffffffffffffffffffffffffffffffffffff1681526020019081526020016000206001826112b89190613325565b815481106112c9576112c8612954565b5b9060005260206000209060030201600001600760003373ffffffffffffffffffffffffffffffffffffffff1673ffffffffffffffffffffffffffffffffffffffff1681526020019081526020016000206001836113269190613325565b8154811061133757611336612954565b5b9060005260206000209060030201600201818054611354906129b2565b80601f0160208091040260200160405190810160405280929190818152602001828054611380906129b2565b80156113cd5780601f106113a2576101008083540402835291602001916113cd565b820191906000526020600020905b8154815290600101906020018083116113b057829003601f168201915b505050505091508080546113e0906129b2565b80601f016020809104026020016040519081016040528092919081815260200182805461140c906129b2565b80156114595780601f1061142e57610100808354040283529160200191611459565b820191906000526020600020905b81548152906001019060200180831161143c57829003601f168201915b5050505050905092509250509091565b60011515600260003373ffffffffffffffffffffffffffffffffffffffff1673ffffffffffffffffffffffffffffffffffffffff16815260200190815260200160002060009054906101000a900460ff16151514611531577ff9fbd55454309325ccadd998a641a1dfe7cd888eea26c0ae93b95992a13ac1446040516114ee90612934565b60405180910390a16040517f08c379a000000000000000000000000000000000000000000000000000000000815260040161152890612934565b60405180910390fd5b6000805b600660003373ffffffffffffffffffffffffffffffffffffffff1673ffffffffffffffffffffffffffffffffffffffff1681526020019081526020016000208054905081101561168c5761166c84600660003373ffffffffffffffffffffffffffffffffffffffff1673ffffffffffffffffffffffffffffffffffffffff16815260200190815260200160002083815481106115d4576115d3612954565b5b9060005260206000200180546115e9906129b2565b80601f0160208091040260200160405190810160405280929190818152602001828054611615906129b2565b80156116625780601f1061163757610100808354040283529160200191611662565b820191906000526020600020905b81548152906001019060200180831161164557829003601f168201915b5050505050611ee5565b915081156116795761168c565b808061168490612a13565b915050611535565b5080611702577ff9fbd55454309325ccadd998a641a1dfe7cd888eea26c0ae93b95992a13ac1446040516116bf90612ace565b60405180910390a16040517f08c379a00000000000000000000000000000000000000000000000000000000081526004016116f990612b60565b60405180910390fd5b60006005846040516117149190612c7a565b90815260200160405180910390206004018054611730906129b2565b80601f016020809104026020016040519081016040528092919081815260200182805461175c906129b2565b80156117a95780601f1061177e576101008083540402835291602001916117a9565b820191906000526020600020905b81548152906001019060200180831161178c57829003601f168201915b505050505090506117b8611fc4565b848160000181905250818160200181905250838160400181905250600760006005846040516117e79190612c7a565b908152602001604051809103902060010160009054906101000a900473ffffffffffffffffffffffffffffffffffffffff1673ffffffffffffffffffffffffffffffffffffffff1673ffffffffffffffffffffffffffffffffffffffff1681526020019081526020016000208190806001815401808255809150506001900390600052602060002090600302016000909190919091506000820151816000019080519060200190611899929190611f3e565b5060208201518160010190805190602001906118b6929190611f3e565b5060408201518160020190805190602001906118d3929190611f3e565b505050604051806020016040528060008152506005866040516118f69190612c7a565b9081526020016040518091039020600401908051906020019061191a929190611f3e565b5060058260405161192b9190612c7a565b908152602001604051809103902060010160009054906101000a900473ffffffffffffffffffffffffffffffffffffffff1673ffffffffffffffffffffffffffffffffffffffff167f0d4847e7a0fec04b76bf0bba9d0c9f2673273b35ba00aa7229d254aa01be4b7d836040516119a29190612510565b60405180910390a25050505050565b600060011515600260003373ffffffffffffffffffffffffffffffffffffffff1673ffffffffffffffffffffffffffffffffffffffff16815260200190815260200160002060009054906101000a900460ff1615151415611a5357600360003373ffffffffffffffffffffffffffffffffffffffff1673ffffffffffffffffffffffffffffffffffffffff168152602001908152602001600020549050611a58565b600090505b90565b60011515600484604051611a6f9190612c7a565b908152602001604051809103902060009054906101000a900460ff1615151415611acd577ff9fbd55454309325ccadd998a641a1dfe7cd888eea26c0ae93b95992a13ac144604051611ac0906133a5565b60405180910390a1611dbf565b60011515600260003373ffffffffffffffffffffffffffffffffffffffff1673ffffffffffffffffffffffffffffffffffffffff16815260200190815260200160002060009054906101000a900460ff16151514611b95577ff9fbd55454309325ccadd998a641a1dfe7cd888eea26c0ae93b95992a13ac144604051611b5290613411565b60405180910390a16040517f08c379a0000000000000000000000000000000000000000000000000000000008152600401611b8c90613411565b60405180910390fd5b6001600484604051611ba79190612c7a565b908152602001604051809103902060006101000a81548160ff021916908315150217905550611bd4611fe5565b82816000018190525033816020019073ffffffffffffffffffffffffffffffffffffffff16908173ffffffffffffffffffffffffffffffffffffffff1681525050612710444243604051602001611c2d93929190612ba1565b6040516020818303038152906040528051906020012060001c611c509190612c0d565b81604001818152505081816060018190525060405180602001604052806000815250816080018190525080600585604051611c8b9190612c7a565b90815260200160405180910390206000820151816000019080519060200190611cb5929190611f3e565b5060208201518160010160006101000a81548173ffffffffffffffffffffffffffffffffffffffff021916908373ffffffffffffffffffffffffffffffffffffffff160217905550604082015181600201556060820151816003019080519060200190611d23929190611f3e565b506080820151816004019080519060200190611d40929190611f3e565b50905050600660003373ffffffffffffffffffffffffffffffffffffffff1673ffffffffffffffffffffffffffffffffffffffff16815260200190815260200160002084908060018154018082558091505060019003906000526020600020016000909190919091509080519060200190611dbc929190611f3e565b50505b505050565b60008282604051602001611dd9929190612cfd565b60405160208183030381529060405280519060200120905092915050565b6060600582604051611e099190612c7a565b90815260200160405180910390206000018054611e25906129b2565b80601f0160208091040260200160405190810160405280929190818152602001828054611e51906129b2565b8015611e9e5780601f10611e7357610100808354040283529160200191611e9e565b820191906000526020600020905b815481529060010190602001808311611e8157829003601f168201915b50505050509050919050565b600081604051602001611ebd919061349e565b604051602081830303815290604052805190602001209050919050565b600060019050919050565b600081604051602001611ef89190612c7a565b6040516020818303038152906040528051906020012083604051602001611f1f9190612c7a565b6040516020818303038152906040528051906020012014905092915050565b828054611f4a906129b2565b90600052602060002090601f016020900481019282611f6c5760008555611fb3565b82601f10611f8557805160ff1916838001178555611fb3565b82800160010185558215611fb3579182015b82811115611fb2578251825591602001919060010190611f97565b5b509050611fc0919061202a565b5090565b60405180606001604052806060815260200160608152602001606081525090565b6040518060a0016040528060608152602001600073ffffffffffffffffffffffffffffffffffffffff1681526020016000815260200160608152602001606081525090565b5b8082111561204357600081600090555060010161202b565b5090565b6000604051905090565b600080fd5b600080fd5b600080fd5b600080fd5b6000601f19601f8301169050919050565b7f4e487b7100000000000000000000000000000000000000000000000000000000600052604160045260246000fd5b6120ae82612065565b810181811067ffffffffffffffff821117156120cd576120cc612076565b5b80604052505050565b60006120e0612047565b90506120ec82826120a5565b919050565b600067ffffffffffffffff82111561210c5761210b612076565b5b61211582612065565b9050602081019050919050565b82818337600083830152505050565b600061214461213f846120f1565b6120d6565b9050828152602081018484840111156121605761215f612060565b5b61216b848285612122565b509392505050565b600082601f8301126121885761218761205b565b5b8135612198848260208601612131565b91505092915050565b6000602082840312156121b7576121b6612051565b5b600082013567ffffffffffffffff8111156121d5576121d4612056565b5b6121e184828501612173565b91505092915050565b600081519050919050565b600082825260208201905092915050565b60005b83811015612224578082015181840152602081019050612209565b83811115612233576000848401525b50505050565b6000612244826121ea565b61224e81856121f5565b935061225e818560208601612206565b61226781612065565b840191505092915050565b6000819050919050565b61228581612272565b82525050565b600060408201905081810360008301526122a58185612239565b90506122b4602083018461227c565b9392505050565b60006020820190506122d0600083018461227c565b92915050565b600067ffffffffffffffff8211156122f1576122f0612076565b5b6122fa82612065565b9050602081019050919050565b600061231a612315846122d6565b6120d6565b90508281526020810184848401111561233657612335612060565b5b612341848285612122565b509392505050565b600082601f83011261235e5761235d61205b565b5b813561236e848260208601612307565b91505092915050565b6000819050919050565b61238a81612377565b811461239557600080fd5b50565b6000813590506123a781612381565b92915050565b600080604083850312156123c4576123c3612051565b5b600083013567ffffffffffffffff8111156123e2576123e1612056565b5b6123ee85828601612349565b92505060206123ff85828601612398565b9150509250929050565b60008115159050919050565b61241e81612409565b82525050565b60006020820190506124396000830184612415565b92915050565b6000806040838503121561245657612455612051565b5b600083013567ffffffffffffffff81111561247457612473612056565b5b61248085828601612173565b925050602083013567ffffffffffffffff8111156124a1576124a0612056565b5b6124ad85828601612349565b9150509250929050565b6124c081612272565b81146124cb57600080fd5b50565b6000813590506124dd816124b7565b92915050565b6000602082840312156124f9576124f8612051565b5b6000612507848285016124ce565b91505092915050565b6000602082019050818103600083015261252a8184612239565b905092915050565b6000806040838503121561254957612548612051565b5b600061255785828601612398565b925050602083013567ffffffffffffffff81111561257857612577612056565b5b61258485828601612349565b9150509250929050565b600073ffffffffffffffffffffffffffffffffffffffff82169050919050565b60006125b98261258e565b9050919050565b6125c9816125ae565b82525050565b60006020820190506125e460008301846125c0565b92915050565b600060208284031215612600576125ff612051565b5b600082013567ffffffffffffffff81111561261e5761261d612056565b5b61262a84828501612349565b91505092915050565b6000806040838503121561264a57612649612051565b5b600083013567ffffffffffffffff81111561266857612667612056565b5b61267485828601612173565b925050602083013567ffffffffffffffff81111561269557612694612056565b5b6126a185828601612173565b9150509250929050565b6126b481612377565b82525050565b600060ff82169050919050565b6126d0816126ba565b82525050565b60006060820190506126eb60008301866126ab565b6126f860208301856126ab565b61270560408301846126c7565b949350505050565b600060408201905081810360008301526127278185612239565b9050818103602083015261273b8184612239565b90509392505050565b60008060006060848603121561275d5761275c612051565b5b600084013567ffffffffffffffff81111561277b5761277a612056565b5b61278786828701612173565b935050602084013567ffffffffffffffff8111156127a8576127a7612056565b5b6127b486828701612173565b925050604084013567ffffffffffffffff8111156127d5576127d4612056565b5b6127e186828701612173565b9150509250925092565b6000806040838503121561280257612801612051565b5b600083013567ffffffffffffffff8111156128205761281f612056565b5b61282c85828601612173565b925050602061283d858286016124ce565b9150509250929050565b600060208201905061285c60008301846126ab565b92915050565b60006020828403121561287857612877612051565b5b600061288684828501612398565b91505092915050565b612898816125ae565b81146128a357600080fd5b50565b6000813590506128b58161288f565b92915050565b6000602082840312156128d1576128d0612051565b5b60006128df848285016128a6565b91505092915050565b7f47617465776179206e6f7420726567697374657265642e2e2e00000000000000600082015250565b600061291e6019836121f5565b9150612929826128e8565b602082019050919050565b6000602082019050818103600083015261294d81612911565b9050919050565b7f4e487b7100000000000000000000000000000000000000000000000000000000600052603260045260246000fd5b7f4e487b7100000000000000000000000000000000000000000000000000000000600052602260045260246000fd5b600060028204905060018216806129ca57607f821691505b602082108114156129de576129dd612983565b5b50919050565b7f4e487b7100000000000000000000000000000000000000000000000000000000600052601160045260246000fd5b6000612a1e82612272565b91507fffffffffffffffffffffffffffffffffffffffffffffffffffffffffffffffff821415612a5157612a506129e4565b5b600182019050919050565b7f446576696365206e6f74206173736f636961746564207769746820746869732060008201527f676174657761792e2e2e2e000000000000000000000000000000000000000000602082015250565b6000612ab8602b836121f5565b9150612ac382612a5c565b604082019050919050565b60006020820190508181036000830152612ae781612aab565b9050919050565b7f446576696365206e6f74206173736f636961746564207769746820746869732060008201527f676174657761792e2e2e00000000000000000000000000000000000000000000602082015250565b6000612b4a602a836121f5565b9150612b5582612aee565b604082019050919050565b60006020820190508181036000830152612b7981612b3d565b9050919050565b6000819050919050565b612b9b612b9682612272565b612b80565b82525050565b6000612bad8286612b8a565b602082019150612bbd8285612b8a565b602082019150612bcd8284612b8a565b602082019150819050949350505050565b7f4e487b7100000000000000000000000000000000000000000000000000000000600052601260045260246000fd5b6000612c1882612272565b9150612c2383612272565b925082612c3357612c32612bde565b5b828206905092915050565b600081905092915050565b6000612c54826121ea565b612c5e8185612c3e565b9350612c6e818560208601612206565b80840191505092915050565b6000612c868284612c49565b915081905092915050565b7f4e6f6e6365207375636365737366756c6c7920757064617465642e2e2e000000600082015250565b6000612cc7601d836121f5565b9150612cd282612c91565b602082019050919050565b60006020820190508181036000830152612cf681612cba565b9050919050565b6000612d098285612c49565b9150612d158284612b8a565b6020820191508190509392505050565b7f796f000000000000000000000000000000000000000000000000000000000000600082015250565b6000612d5b600283612c3e565b9150612d6682612d25565b600282019050919050565b6000612d7c82612d4e565b9150819050919050565b60008190508160005260206000209050919050565b60008154612da8816129b2565b612db28186612c3e565b94506001821660008114612dcd5760018114612dde57612e11565b60ff19831686528186019350612e11565b612de785612d86565b60005b83811015612e0957815481890152600182019150602081019050612dea565b838801955050505b50505092915050565b6000612e268284612d9b565b915081905092915050565b7f596179792c206572726f72206f63757272656400000000000000000000000000600082015250565b6000612e676013836121f5565b9150612e7282612e31565b602082019050919050565b60006020820190508181036000830152612e9681612e5a565b9050919050565b7f566572696669636174696f6e2073756363657373202d20537472696e6720757060008201527f6461746564000000000000000000000000000000000000000000000000000000602082015250565b6000612ef96025836121f5565b9150612f0482612e9d565b604082019050919050565b60006020820190508181036000830152612f2881612eec565b9050919050565b7f566572696669636174696f6e206661696c6564202d20537472696e67206e6f7460008201527f2075706461746564000000000000000000000000000000000000000000000000602082015250565b6000612f8b6028836121f5565b9150612f9682612f2f565b604082019050919050565b60006020820190508181036000830152612fba81612f7e565b9050919050565b60008154612fce816129b2565b612fd881866121f5565b94506001821660008114612ff3576001811461300557613038565b60ff1983168652602086019350613038565b61300e85612d86565b60005b8381101561303057815481890152600182019150602081019050613011565b808801955050505b50505092915050565b6000602082019050818103600083015261305b8184612fc1565b905092915050565b600060808201905061307860008301876126ab565b61308560208301866126c7565b61309260408301856126ab565b61309f60608301846126ab565b95945050505050565b7f416c726561647920726567697374657265642e2e2e0000000000000000000000600082015250565b60006130de6015836121f5565b91506130e9826130a8565b602082019050919050565b6000602082019050818103600083015261310d816130d1565b9050919050565b7f5265676973746572000000000000000000000000000000000000000000000000600082015250565b600061314a600883612c3e565b915061315582613114565b600882019050919050565b600061316b8261313d565b9150819050919050565b7f526567697374726174696f6e206661696c65642e2e2e00000000000000000000600082015250565b60006131ab6016836121f5565b91506131b682613175565b602082019050919050565b600060208201905081810360008301526131da8161319e565b9050919050565b7f54696d657374616d7020757064617465642e2e2e000000000000000000000000600082015250565b60006132176014836121f5565b9150613222826131e1565b602082019050919050565b600060208201905081810360008301526132468161320a565b9050919050565b7f696e76616c6964207369676e6174757265206c656e6774680000000000000000600082015250565b60006132836018836121f5565b915061328e8261324d565b602082019050919050565b600060208201905081810360008301526132b281613276565b9050919050565b7f526563697069656e7420757064617465642e2e2e000000000000000000000000600082015250565b60006132ef6014836121f5565b91506132fa826132b9565b602082019050919050565b6000602082019050818103600083015261331e816132e2565b9050919050565b600061333082612272565b915061333b83612272565b92508282101561334e5761334d6129e4565b5b828203905092915050565b7f44657669636520616c726561647920726567697374657265642e2e2e00000000600082015250565b600061338f601c836121f5565b915061339a82613359565b602082019050919050565b600060208201905081810360008301526133be81613382565b9050919050565b7f47617465776179206e6f74207265676973746572656400000000000000000000600082015250565b60006133fb6016836121f5565b9150613406826133c5565b602082019050919050565b6000602082019050818103600083015261342a816133ee565b9050919050565b7f19457468657265756d205369676e6564204d6573736167653a0a333200000000600082015250565b6000613467601c83612c3e565b915061347282613431565b601c82019050919050565b6000819050919050565b61349861349382612377565b61347d565b82525050565b60006134a98261345a565b91506134b58284613487565b6020820191508190509291505056fea2646970667358221220ddbcd1dfe6dbfdcc7425074cbb4619665c20e3a93cce29435448c8913db6c02164736f6c634300080a0033",
  "immutableReferences": {},
  "source": "// SPDX-License-Identifier: .\r\npragma solidity ^0.8.10;\r\n\r\ncontract Sample {\r\n    ///Blockchain state variables.\r\n\r\n    /* 'number' and 'str' are test variables */\r\n    uint public number = 10;\r\n    string public str = \"Hello\";\r\n\r\n    // 'reg' is mapping which stores whether a gateway has registered or not.\r\n    mapping(address => bool) reg;\r\n    // 'nonces' is a mapping which stores nonces for each registered gateway and changes with transaction.\r\n    mapping(address => uint) nonces;\r\n    //This mapping stores whether the dev has been registered or not.\r\n    mapping(string => bool) dev_reg;\r\n\r\n    //This structure contains the device information.\r\n    struct Device {\r\n        string pubKey;\r\n        address gate;\r\n        uint nonce;\r\n        string TS;\r\n        string recvId;\r\n    }\r\n\r\n    //Maps from the device id to device information which is contained in 'Device' struct.\r\n    mapping(string => Device) dev_info;\r\n    mapping(address => string[]) gate_dev;\r\n    \r\n\r\n    //The messsages associated with the gateway are stored in this data structure.\r\n    struct Message {\r\n        string from;\r\n        string to;\r\n        string msg_str;\r\n    }    \r\n    mapping(address => Message[]) msgs;\r\n\r\n    //Test event to listen to in the script.\r\n    event test(string _str);  \r\n    \r\n    //This is the event which the gateway listens for any notification of messages.\r\n    event receive_message(address indexed gateway, string devId);\r\n\r\n    //Utility function\r\n    function str_cmp(string memory _a, string memory _b) internal pure returns(bool fl){\r\n        return keccak256(abi.encodePacked(_a)) == keccak256(abi.encodePacked(_b));\r\n    }      \r\n\r\n    /*The below 3 functions are test functions.*/\r\n\r\n\r\n    //Multiple value return.\r\n    function without_parameters() public view returns (string memory str1, uint num1) {\r\n            return (str, number);\r\n    }\r\n\r\n    //Directly update the number by 'n'.\r\n    function update(uint _n) public {\r\n            number = _n;            \r\n    } \r\n\r\n    //Test transaction to check working with signature.\r\n    function update_string(string memory _str, bytes memory signature) public {\r\n        \r\n        bytes32 messageHash = keccak256(abi.encodePacked(_str, nonces[msg.sender]));\r\n        bool status = verify(signature, messageHash);\r\n        if(status == true)\r\n        {\r\n            if(keccak256(abi.encodePacked(str)) == keccak256(abi.encodePacked(\"yo\")))\r\n            revert(\"Yayy, error ocurred\");\r\n            str = _str;\r\n            nonces[msg.sender] = uint(keccak256(abi.encodePacked(block.difficulty, block.timestamp, block.number)))%10000;\r\n            emit test(\"Verification success - String updated\");\r\n        }\r\n        else\r\n            emit test(\"Verification failed - String not updated\");\r\n\r\n        emit test(str);\r\n    }       \r\n   \r\n\r\n    //Function to retrieve nonce.\r\n    function getNonce() public view returns(uint nonce) {\r\n        if(reg[msg.sender] == true)\r\n            return nonces[msg.sender];\r\n        else\r\n            return 0;\r\n    }\r\n    //device authentication\r\n\r\n    /* function recoverAddress(bytes32 messageHash, bytes memory sig) public pure returns (address) {\r\n    require(sig.length == 65, \"Invalid signature length\");\r\n\r\n    bytes32 r;\r\n    bytes32 s;\r\n    uint8 v;\r\n\r\n    assembly {\r\n        r := mload(add(sig, 32))\r\n        s := mload(add(sig, 64))\r\n        v := byte(0, mload(add(sig, 96)))\r\n    }\r\n\r\n    if (v < 27) {\r\n        v += 27;\r\n    }\r\n\r\n    require(v == 27 || v == 28, \"Invalid signature recovery\");\r\n\r\n    return ecrecover(messageHash, v, r, s);\r\n}\r\n\r\nfunction verifyAggregateSignature(bytes32 messageHash, bytes[] memory signatures) public pure returns (bool) {\r\n    uint256 n = signatures.length;\r\n\r\n    require(n > 0, \"No signatures provided\");\r\n\r\n    uint256 m = n / 2;\r\n    uint256 s = 0;\r\n\r\n    for (uint256 i = 0; i < n; i++) {\r\n        address signer = recoverAddress(messageHash, signatures[i]);\r\n        s |= uint256(uint160(signer)) << (i * 160);\r\n    }\r\n\r\n    bytes32 expectedHash = keccak256(abi.encodePacked(s));\r\n    return expectedHash == messageHash;\r\n}\r\n\r\n\r\n\r\n    bytes32 private constant MAGIC_VALUE = 0x11223344;\r\n    mapping (address => bool) private authorizedDevices;\r\n\r\n    function authenticateDevices(bytes memory[] sig, address[] memory deviceAddresses) public {\r\n        bytes32 message = keccak256(abi.encodePacked(MAGIC_VALUE, deviceAddresses));\r\n\r\n        // Verify the aggregate signature\r\n        bool result = verifyAggregateSignature(message, sig);\r\n\r\n        // If the aggregate signature is valid, authorize all devices\r\n        if (result) {\r\n            for (uint i = 0; i < deviceAddresses.length; i++) {\r\n                authorizedDevices[deviceAddresses[i]] = true;\r\n            }\r\n        }\r\n        return result;\r\n    }*/\r\n\r\n       function isAuthorized(address deviceAddress) public view returns (bool) {\r\n        return true;\r\n    }\r\n\r\n\r\n    function register_gateway(bytes memory signature) public {\r\n        \r\n        if(reg[msg.sender] == true)\r\n            emit test(\"Already registered...\");\r\n        else{\r\n            bytes32 messageHash = keccak256(abi.encodePacked('Register'));\r\n            bool status = verify(signature, messageHash);\r\n            if(status == true)\r\n            {\r\n                //That means the signature has been verified.\r\n                reg[msg.sender] = true;\r\n                nonces[msg.sender] = uint(keccak256(abi.encodePacked(block.difficulty, block.timestamp, block.number)))%10000;\r\n            }        \r\n            else\r\n            {\r\n                revert(\"Registration failed...\");\r\n            }\r\n        }\r\n    }\r\n\r\n    function register_device(string memory _devId, string memory _pub, string memory _TS) public {\r\n        \r\n        if(dev_reg[_devId] == true)\r\n            emit test(\"Device already registered...\");\r\n\r\n        else if(reg[msg.sender] != true){\r\n            emit test(\"Gateway not registered\");\r\n            revert(\"Gateway not registered\");\r\n        }\r\n        else{                        \r\n            //Since the status has been verified, things to do are:\r\n            //1. Mark the device as registered.\r\n            dev_reg[_devId] = true;\r\n            \r\n            //2. Create a new struct with the information.\r\n            Device memory dev;\r\n            dev.pubKey = _pub;\r\n            dev.gate = msg.sender;\r\n            dev.nonce = uint(keccak256(abi.encodePacked(block.difficulty, block.timestamp, block.number)))%10000;\r\n            dev.TS = _TS;\r\n            dev.recvId = \"\";\r\n            //3. Map the device id to the created struct.\r\n            dev_info[_devId] = dev;\r\n\r\n            //4. Also add the device id to the list of devices under the associated gatewyay.  \r\n            gate_dev[msg.sender].push(_devId);                                  \r\n        }\r\n    }\r\n\r\n    //Function to check whether device has been registered or not. If yes, returns the timestamp of the last request.\r\n    function check_device(string memory _devId) public view returns(string memory){                \r\n        if (dev_reg[_devId])\r\n            return dev_info[_devId].TS;\r\n        else\r\n            return \"\";\r\n    }\r\n\r\n    function update_timestamp(string memory _devId, string memory _TS) public {\r\n        dev_info[_devId].TS = _TS;\r\n        emit test(\"Timestamp updated...\");\r\n    }\r\n\r\n    function get_device_key(string memory _devId) public view returns(string memory){                \r\n        return dev_info[_devId].pubKey;\r\n    }\r\n\r\n    function update_recipient(string memory _devId, string memory _recvId) public {\r\n        dev_info[_devId].recvId = _recvId;\r\n        emit test(\"Recipient updated...\");\r\n    }\r\n\r\n    function communicate(string memory _devId, string memory _msg) public {\r\n        \r\n        if(reg[msg.sender] != true)\r\n        {\r\n            emit test(\"Gateway not registered...\");\r\n            revert(\"Gateway not registered...\");\r\n        }\r\n        \r\n        bool fl = false;\r\n        for(uint i=0;i<gate_dev[msg.sender].length;i++)\r\n        {\r\n            fl = str_cmp(_devId, gate_dev[msg.sender][i]);\r\n            if(fl)\r\n                break;\r\n        }\r\n\r\n        if(!fl)\r\n        {\r\n            emit test(\"Device not associated with this gateway....\");\r\n            revert(\"Device not associated with this gateway...\");\r\n        }\r\n\r\n        string memory _recvId = dev_info[_devId].recvId;\r\n        //Now add the message under this gateway and emit the event.\r\n        Message memory message;\r\n        message.from = _devId;\r\n        message.to = _recvId;\r\n        message.msg_str = _msg;\r\n\r\n        //Add to the list of messages for the gateway.\r\n        msgs[dev_info[_recvId].gate].push(message);\r\n\r\n        //Clear the recipient id under the dev_info.\r\n        dev_info[_devId].recvId = \"\";\r\n\r\n        emit receive_message(dev_info[_recvId].gate, _recvId);\r\n    }\r\n\r\n    function getMessage() public view returns (string memory from, string memory _str){\r\n        \r\n        uint n = msgs[msg.sender].length;\r\n        return (msgs[msg.sender][n-1].from, msgs[msg.sender][n-1].msg_str);\r\n    }\r\n\r\n\r\n    //The gateway updates the nonce of the device after every authentication attempt.\r\n    function update_device_nonce(string memory _devId) public {\r\n        //Check whether the gateway is registered.\r\n        //Also check whether the device is under this gateway.\r\n        if(reg[msg.sender] != true)\r\n        {\r\n            emit test(\"Gateway not registered...\");\r\n            revert(\"Gateway not registered...\");\r\n        }\r\n        \r\n        bool fl = false;\r\n        for(uint i=0;i<gate_dev[msg.sender].length;i++)\r\n        {\r\n            fl = str_cmp(_devId, gate_dev[msg.sender][i]);\r\n            if(fl)\r\n                break;\r\n        }\r\n\r\n        if(!fl)\r\n        {\r\n            emit test(\"Device not associated with this gateway....\");\r\n            revert(\"Device not associated with this gateway...\");\r\n        }    \r\n        \r\n        //Add a nonce for the device here.\r\n        dev_info[_devId].nonce = uint(keccak256(abi.encodePacked(block.difficulty, block.timestamp, block.number)))%10000;   \r\n        emit test(\"Nonce successfully updated...\");\r\n    }\r\n    \r\n\r\n    function get_device_nonce(string memory _devId) public view returns(uint nonce){\r\n        //Check whether the gateway is registered.\r\n        //Also check whether the device is under this gateway.\r\n        if(reg[msg.sender] != true)                   \r\n            return 0;                    \r\n        \r\n        bool fl = false;\r\n        for(uint i=0;i<gate_dev[msg.sender].length;i++)\r\n        {\r\n            fl = str_cmp(_devId, gate_dev[msg.sender][i]);\r\n            if(fl)\r\n                break;\r\n        }\r\n\r\n        if(!fl)                    \r\n            return 0;           \r\n        \r\n        //Return nonce for the device here.\r\n        return dev_info[_devId].nonce;               \r\n    }\r\n    \r\n\r\n\r\n\r\n\r\n    function verify(\r\n        bytes memory signature,\r\n        bytes32 messageHash        \r\n    ) public view returns (bool) {        \r\n        bytes32 ethSignedMessageHash = getEthSignedMessageHash(messageHash);\r\n\r\n        return recoverSigner(ethSignedMessageHash, signature) == msg.sender;\r\n    }\r\n\r\n    function getMessageHash(        \r\n        string memory _message ,\r\n        uint _nonce       \r\n    ) public pure returns (bytes32) {\r\n        return keccak256(abi.encodePacked(_message, _nonce));\r\n    }\r\n\r\n    function getEthSignedMessageHash(bytes32 _messageHash)\r\n        public\r\n        pure\r\n        returns (bytes32)\r\n    {\r\n        /*\r\n        Signature is produced by signing a keccak256 hash with the following format:\r\n        \"\\x19Ethereum Signed Message\\n\" + len(msg) + msg\r\n        */\r\n        return\r\n            keccak256(\r\n                abi.encodePacked(\"\\x19Ethereum Signed Message:\\n32\", _messageHash)\r\n            );\r\n    }\r\n\r\n    function recoverSigner(bytes32 _ethSignedMessageHash, bytes memory _signature)\r\n        public\r\n        pure\r\n        returns (address)\r\n    {\r\n        (bytes32 r, bytes32 s, uint8 v) = splitSignature(_signature);\r\n\r\n        return ecrecover(_ethSignedMessageHash, v, r, s);\r\n    }\r\n\r\n    function splitSignature(bytes memory sig)\r\n        public\r\n        pure\r\n        returns (\r\n            bytes32 r,\r\n            bytes32 s,\r\n            uint8 v\r\n        )\r\n    {\r\n        require(sig.length == 65, \"invalid signature length\");\r\n\r\n        assembly {\r\n            /*\r\n            First 32 bytes stores the length of the signature\r\n\r\n            add(sig, 32) = pointer of sig + 32\r\n            effectively, skips first 32 bytes of signature\r\n\r\n            mload(p) loads next 32 bytes starting at the memory address p into memory\r\n            */\r\n\r\n            // first 32 bytes, after the length prefix\r\n            r := mload(add(sig, 32))\r\n            // second 32 bytes\r\n            s := mload(add(sig, 64))\r\n            // final byte (first byte of the next 32 bytes)\r\n            v := byte(0, mload(add(sig, 96)))\r\n        }\r\n\r\n        // implicitly return (r, s, v)\r\n    }\r\n}",
  "sourcePath": "C:\\Users\\abhi\\Desktop\\etherium\\endproject\\Gateway\\contracts\\Sample.sol",
  "compiler": {
    "name": "solc",
    "version": "0.8.10+commit.fc410830.Emscripten.clang"
  },
  "schemaVersion": "3.4.11",
  "updatedAt": "2023-02-23T14:17:30.890Z",
  "devdoc": {
    "kind": "dev",
    "methods": {},
    "version": 1
  },
  "userdoc": {
    "kind": "user",
    "methods": {
      "number()": {
        "notice": "Blockchain state variables."
      }
    },
    "version": 1
  }
}